:020000040800F2
:1000000030460020010100089D220008311E000832
:10001000292100088714000863560008000000002A
:10002000000000000000000000000000293000086F
:100030006916000800000000D9270008B14F000829
:100040001B0100081B0100081B0100081B01000820
:100050001B0100081B0100081B0100081B01000810
:100060001B0100081B0100081B0100081B01000800
:100070001B0100081B0100081B0100081B010008F0
:100080001B0100081B0100081B0100081B010008E0
:100090001B0100081B0100081B0100081B010008D0
:1000A0001B0100081B0100081B0100081B010008C0
:1000B0001B0100081B0100081B0100081B010008B0
:1000C0001B0100081B0100081B0100081B010008A0
:1000D0001B010008E952000825540008715400086B
:1000E0001B0100081B0100081B010008DFF80CD0F1
:1000F00000F0AEFC00480047C16100083046002017
:100100000648804706480047FEE7FEE7FEE7FEE7B1
:10011000FEE7FEE7FEE7FEE7FEE7FEE741500008E8
:10012000ED000008014610B509683C22B1FBF2F36E
:1001300002FB1313B1FBF2F11D480360B1FBF2F3B4
:1001400002FB1313B1FBF2F118224360B1FBF2F38F
:1001500002FB1313B1FBF2F183600A1D0723B2FB0C
:10016000F3F403FB142282618A0040F2B55102F6D7
:100170006C32B2FBF1F344334361B2FBF1F301FBA8
:1001800013218908C1613B2903D3027D920700D066
:10019000491C0022074C13460261E25C8A4203D8E4
:1001A000891A5B1C0361F8E7491CC16010BD00009F
:1001B000042200207C8F000840EA01039B0703D043
:1001C00009E008C9121F08C0042AFAD203E011F896
:1001D000013B00F8013B521EF9D27047D2B201E058
:1001E00000F8012B491EFBD270470022F6E710B53C
:1001F00013460A4604461946FFF7F0FF204610BD95
:10020000421C10F8011B0029FBD1801A704730B541
:1002100004460020034600E05B1C934203D2E05CEE
:10022000CD5C401BF8D030BD034611F8012B00F81F
:10023000012B002AF9D11846704730B480EA010238
:1002400002F0004530F0004221F0004013D090B1A0
:10025000C30DD40DC2F31601C0F31600E41A41F425
:10026000000140F400027D34914201D3641C00E09F
:100270004900002C02DA30BC002070474FF4000027
:100280000023914201D3891A034340084FEA4101F8
:10029000F7D151B1914202D14FF0004105E002D2B5
:1002A0004FF0010101E06FF0010103EBC45028445D
:1002B00030BC00F0C5BA2DE9FE4F804681EA03004C
:1002C000C00F0C46009021F0004123F00045B8EB30
:1002D0000200A94105D24046214690461C460B46E5
:1002E000024623F00040104347D0270DC7F30A0011
:1002F000C3F30A510290401A019040286BDAC3F30D
:10030000130040F4801B0098924620B10023D2EBEA
:10031000030A63EB0B0B01985946C0F140025046AB
:1003200000F05DFA06460D4650465946019A00F027
:1003300075FA10EB08006141002487EA115284EA43
:10034000E7731A4340D0009A62B3019A012A4FEA38
:10035000075215DC001B61EB02014FF0004202EA7C
:100360000752CDE90042001C41F5801132462B4670
:1003700000F0ACFA03B0BDE8F08F40462146F9E743
:10038000001B61EB0201001C41F5801300185B416A
:100390002018A2F5001747EB030140EAD570B61903
:1003A0006D4111E06D084FEA360645EAC0754FEA27
:1003B0000752001B61EB0201001C41F58011490846
:1003C0004FEA30000019514132462B4603B0BDE8D8
:1003D000F04F00F06CBA0098012240000023D0EBEF
:1003E000020263EBE073009821464FEAE074B8EB39
:1003F000000061EB0401E9E783F000435BE781F073
:10040000004158E72DE9FE4F81EA030404F000445F
:1004100021F0004100944FF0000B23F0004350EA1C
:1004200001045ED052EA03045BD0C3F30A54C1F363
:100430000A552C44A4F2F3340194A0FB0254C1F3F6
:10044000130141F48011C3F3130343F4801301FB40
:10045000024400FB034E840A970A44EA815447EAA7
:100460008357A4FB076802958D0A05FB07854FEAB1
:10047000932C04FB0C542705029D4FEA065847EACB
:100480001637B5EB08056EEB070C870E920E47EAA0
:10049000811742EA8312A7FB0201B6EB0B0164EB62
:1004A00000042B0D43EA0C335E1844EB1C50DA4673
:1004B0005146E7FB0201C5F313044FEA0B3343EA4D
:1004C00014534FEA0432019C43EA0603A4F10C04DE
:1004D0000294009CCDE900B400F0F8F903B0BDE847
:1004E000F08F00200146F9E72DE9F04D81EA030481
:1004F00004F0004B21F0004514464FF0000A23F0B1
:10050000004150EA050220D054EA01021DD0C5F393
:100510000A570246C5F31303C1F31300C1F30A5689
:1005200040F4801543F48013A7EB0608101BD64651
:1005300008F2FD3873EB050002D308F1010801E071
:1005400092185B41B8F1000F03DA00200146BDE8C4
:10055000F08D00204FF48011064684460EE0171BF4
:1005600073EB050705D3121B63EB050306434CEA47
:10057000010C49084FEA300092185B4150EA01072C
:10058000EDD152EA030012D082EA040083EA0501A9
:10059000084305D0101BAB4106D20122002306E020
:1005A00000224FF0004302E06FF0010253101AEBFB
:1005B00006004CEB085110EB0A0041EB0B01BDE8C3
:1005C000F04D00F074B9C10F80EAE0700844CA072A
:1005D0009623002100F03DB996230022114600F039
:1005E00038B90EB5C10F80EAE0700844CA0700218F
:1005F00040F233438DE80E000A460B4600F066F9E0
:1006000003B000BD0EB540F2334102910021CDE9A7
:1006100000110A460B4600F059F903B000BD00F086
:10062000004220F00040C10DC0F3160040F400006D
:100630007F2901DA00207047962903DCC1F1960179
:10064000C84001E096398840002AF4D04042704703
:1006500070B5C1F30A5201F000450024C1F3130143
:1006600040F2FF3341F480119A4201DA002070BD5C
:1006700040F233439A42A2F2334203DC524200F08A
:10068000BDF800E090402C43F1D0404270BDC1F372
:100690000A5210B5C1F3130140F2FF3341F4801147
:1006A0009A4201DA002010BD40F233439A42A2F28E
:1006B000334203DC524200F0A1F810BD904010BD5F
:1006C00000F0004230F000400AD0C10D01F5607129
:1006D000C0F3160042EA0151C208400711437047B7
:1006E000002001467047000030B5041E71F100047F
:1006F00004DB4FF00044404264EB0101141E73F12F
:10070000000405DB1C464FF00043524263EB040338
:100710008B4208BF824230BD01F0004330B421F06B
:10072000004150EA010206D00A0DA2F56072C1F341
:100730001301002A02DC30BC00207047440F44EA59
:10074000C104C100E01830BC00EBC25000F078B822
:1007500030B50B46014600202022012409E021FA91
:1007600002F59D4205D303FA02F5491B04FA02F58E
:100770002844151EA2F10102F1DC30BD2DE9F05F25
:100780000546002092469B46884606468146402400
:100790001BE0284641464746224600F02FF85346C4
:1007A0005A46C01A914110D311461846224600F00D
:1007B00016F82D1A67EB01084F462246012000214A
:1007C00000F00DF817EB00094E41201EA4F10104C2
:1007D000DFDC484631462A464346BDE8F09F202AE2
:1007E00004DB203A00FA02F1002070479140C2F188
:1007F000200320FA03F3194390407047202A04DBBA
:10080000203A21FA02F00021704721FA02F3D04089
:10081000C2F120029140084319467047202A06DBA6
:10082000CB17203A41FA02F043EAE07306E041FABE
:1008300002F3D040C2F120029140084319467047AC
:100840000029A8BF7047401C490008BF20F00100E4
:10085000704710B4B0FA80FC00FA0CF050EA0104C2
:1008600004BF10BC704749B1CCF1200421FA04F454
:1008700011FA0CF118BF012121430843A3EB0C012D
:10088000CB1D4FEA00614FEA102042BF002010BC90
:10089000704700EBC35010440029A4BF10BC704740
:1008A000401C490008BF20F0010010BC704710B583
:1008B000141E73F1000408DA401C41F10001921883
:1008C0005B411A4301D120F0010010BD2DE9F04D2C
:1008D00092469B4611B1B1FA81F202E0B0FA80F281
:1008E00020329046FFF77BFF04460F4640EA0A009D
:1008F00041EA0B0153465A46084313D0114653EAC6
:10090000010019D0C8F140025046FFF777FF0546B5
:100910000E46504659464246FFF761FF084305D050
:10092000012004E020463946BDE8F08D0020054353
:1009300046EAE0762C4337430A986305E40AA0EBC5
:1009400008000022FD0A44EA47540A3002D500207C
:100950000146E9E7010510196941DDE9084500197B
:100960006941BDE8F04DA2E72DE9F041054621F0CF
:1009700000400C46284309D0C4F30A5040F23341EA
:10098000884205DD28462146BDE8F0812846FBE780
:1009900040F2FE31884210DC0CDB4FEA043040EAC2
:1009A000155050EA053105D0104804F000410143CC
:1009B0000020E9E700200146E6E7A0F23340464286
:1009C000C6F1400228462146FFF709FF0746884640
:1009D000284621463246FFF711FF43463A46FFF7C5
:1009E00066FF3246BDE8F041FFF7F9BE0000F03F78
:1009F000C1F30A52C1F3130140F2FF3341F48011F5
:100A00009A4202DA00200146704740F233439A428C
:100A1000A2F2334202DC5242FFF7F0BEFFF7DFBE24
:100A200030B5041E71F1000404DB4FF00044404275
:100A300064EB0101141E73F1000405DB1C464FF04A
:100A40000043524263EB0403994208BF904230BD19
:100A5000064C074D06E0E06840F0010394E807000B
:100A600098471034AC42F6D3FFF744FB709000086F
:100A70009090000870B58C1810F8015B15F0070312
:100A800001D110F8013B2A1106D110F8012B03E027
:100A900010F8016B01F8016B5B1EF9D12B0705D42F
:100AA0000023521E0DD401F8013BFAE710F8013B78
:100AB000CB1A921C03E013F8015B01F8015B521E94
:100AC000F9D5A142D8D3002070BD21B1826842F08F
:100AD0000102826003E0826822F0010282607047B6
:100AE00000B587B001214FF4027002F003F8022034
:100AF000ADF8180000208DF81B0006A91D4801F074
:100B000007F80020019001208DF808008DF80900F9
:100B10004FF4602003900020049001208DF8140011
:100B200001A9154800F04EF80523012209211248B9
:100B300000F070F80121104800F020F801210E4863
:100B4000FFF7C3FF0C4800F0C1F800BF0A4800F0EF
:100B50002EF80028FAD1084800F0C8F800BF06486F
:100B600000F017F80028FAD10121034800F0B3F88B
:100B700007B000BD000C01400024014021B1826893
:100B800042F48072826003E0826822F480728260A4
:100B90007047014600208A6802F004020AB1012071
:100BA00000E0002070470146C86C80B270470146E3
:100BB00000208A6802F008020AB1012000E000204B
:100BC0007047000030B502460020002350680F4CEB
:100BD00020400D790C6844EA052420435060906859
:100BE0000B4C2040D1E902542C434D7944EA450492
:100BF00020439060D06A20F470000C7C641EE4B244
:100C0000234340EA0350D06230BD0000FFFEF0FFF6
:100C1000FDF7F1FFF0B504460D4600200021092D37
:100C200011DDE068A5F10A0606EB4607072606FA7D
:100C300007F18843A5F10A0606EB460603FA06F11A
:100C40000843E0600CE0206905EB4507072606FA3B
:100C500007F1884305EB450603FA06F108432061D6
:100C6000072A0FDA606B561E06EB86071F2606FA68
:100C700007F18843561E06EB860605FA06F108437F
:100C8000606322E00D2A0FDA206BD61F06EB860781
:100C90001F2606FA07F18843D61F06EB860605FADB
:100CA00006F10843206310E0E06AA2F10D0606EBAE
:100CB00086071F2606FA07F18843A2F10D0606EB08
:100CC000860605FA06F10843E062F0BD816841F04E
:100CD00008018160704721B1826842F4A0028260FD
:100CE00003E0826822F4A00282607047816841F0CC
:100CF000040181607047000070B51348FFF753FF8F
:100D00001249134A128821F8120011480088401C29
:100D100080B20F490880142801DB002008800025DC
:100D2000002405E0094830F814000544601C84B232
:100D3000142CF7DB1420B5FBF0F0064908800121E4
:100D40000148FFF7C8FF70BD00240140D00E00200D
:100D5000620000201800002010B50E48FFF750FA7E
:100D600084B222460B49012006F0DEFF012006F086
:100D70007FFF022308A20021084601F061FC022344
:100D80005F220021572001F02AFB0020044908704F
:100D900010BD0000980300204254204F464600003A
:100DA0005200002070B58EB000250DE02048FFF7FE
:100DB00027FA86B232461E49012006F0B5FF01200F
:100DC00006F056FF681CC5B23C2DEFDB4FF4FA70FD
:100DD00005F0DCF8012006F0AFFEC4B2022C1EDBE9
:100DE000224601A9012006F0DDFE601F01A9085C72
:100DF0004F2814D1201F085C4B2810D102230DA2CC
:100E00000021084601F01CFC0C4802235F2200214F
:100E10000090572001F017FB0120094908704FF49A
:100E2000FA7005F0B3F800F059F80EB070BD00008C
:100E3000A30300204254204F4E0000006C8D000898
:100E4000520000207CB504460D46FF208DF80000BE
:100E500003208DF8020006208DF801008DF8044073
:100E60008DF8055005210DF1010000F05BFB8DF8B8
:100E70000600F0208DF8070008226946012006F0E0
:100E800053FF012006F0F4FE7CBD30B585B004466A
:100E90000D46FF208DF8000006208DF80200052089
:100EA0008DF801002068019060680290A0680390AE
:100EB0008DF8105011210DF1010000F033FB8DF879
:100EC0001100F0208DF8120014226946012006F06E
:100ED0002BFF012006F0CCFE05B030BD30B58FB041
:100EE0002248FFF78DF985B22A462049012006F0F5
:100EF0001BFF012006F0BCFE4FF4FA7005F046F827
:100F0000012006F019FEC4B2022C2DDB224602A9F4
:100F1000012006F047FE9DF80900422824D19DF8E3
:100F20000A00412820D19DF80B0055281CD19DF8BE
:100F30000C00442818D19DF811004F2814D19DF8B9
:100F400012004B2810D1022309A20021084601F00B
:100F500077FB094802235F2200210090572001F00F
:100F600072FA0120054908700FB030BDB2030020AD
:100F70004254204F4E0000006C8D000852000020AB
:100F80007CB504460D46FF208DF800008DF8024028
:100F900005208DF801008DF8045004210DF10100A9
:100FA00000F0C0FA8DF80500F0208DF80600072249
:100FB0006946012006F0B8FE012006F059FE7CBD0E
:100FC0002DE9F0439BB034210EA8FFF70EF9342130
:100FD00001A8FFF70AF98448007801287ED1002093
:100FE00081490870012006F0A7FD00F0FF08424685
:100FF0000EA9012006F0D6FD0EAD2878FF28EDD110
:101000006878401EC1B2681C00F08CFA8146A8784E
:10101000082817D2DFE800F0E304173EE3E3A3CB90
:101020000EAC607AF0280AD1606800BA00F5E140A1
:101030006E49086000210120FFF7A2FF02E06CA0CA
:1010400004F020FBCBE00EAFB879F0281ED101F000
:1010500090F93879642811DC6848007864280DDC40
:1010600000210220FFF78CFF012065490870012351
:1010700064A20321002001F0E3FA0AE0012102202A
:10108000FFF77EFF65A004F0FDFA02E058A004F02F
:10109000F9FAA4E00EAC607DF0285CD158480078E5
:1010A000012850D1A06800BA6449544A127801EB73
:1010B00002110860E06800BA6049504A127801EBFA
:1010C00002114860206901BA5C484C4A127800EB72
:1010D0000210816001205949484A00E080E01278FE
:1010E00001EB0211087345480078401C4349087021
:1010F00001F03FF94148027851A101A804F0D2FA69
:10110000012301AA0521002001F09AFA206900BA02
:101110000090E06803BAA06802BA4DA101A804F0EB
:10112000C1FA012301AA0621002001F089FA3348FF
:101130000078642802DB0020314908706179207949
:10114000FFF780FE0AE001210220FFF719FF33A01C
:1011500004F098FA02E026A004F094FA3FE00EAE04
:10116000707CF0281FD1002413E0344901EB0410F7
:101170000C22311DFFF74BF848B900202F4901EB35
:10118000041108730021301DFFF77FFE03E0601C8F
:10119000C4B2642CE9DB00BF642C07D10121301DEF
:1011A000FFF773FE02E012A004F06CFA17E00EAC39
:1011B0006079F0280FD1002006E000211F4A02EBE1
:1011C00000121173411CC8B26428F6DB002107200D
:1011D000FFF7D6FE02E006A004F054FA00BF00BFFD
:1011E0001BB0BDE8F083000055000020080000207F
:1011F0007461696C20657272210D0A00450000203F
:101200005600002047657420426561636F6E494453
:101210005F4E6F746963652100000000546F746154
:101220006C20626561636F6E206E756D2063616E08
:101230002774203E313030210D0A000004040020C4
:10124000426561636F6E4E756D3A20256400000043
:1012500049443A2025303858202530385820253048
:101260003858000010B500200A49087002230AA26D
:101270000021084601F0E4F94FF40061094800F04C
:1012800026FD642004F082FE4FF40061054800F062
:101290001CFD10BD5100002042555A5A204F4646B1
:1012A000000000000008014010B501200A49087044
:1012B00002230AA20021084601F0C2F94FF400619E
:1012C000084800F004FD642004F060FE4FF4006163
:1012D000044800F0FAFC10BD5100002042555A5A53
:1012E000204F4E000008014038B500F0F7FC04B272
:1012F00040F6E4406043C0EBC000400040F6FF71A0
:10130000B0FBF1F00B21B0FBF1F047490880084633
:1013100000884649B1F90010401A322813DA4348D0
:10132000B0F9000040490988401A4049B1F900105D
:10133000401A322807DA3E480078012803D03D4899
:10134000007800286ED1002039490870364800889E
:1013500040F6EC61884208DB374802237F220021F7
:101360000090622001F06FF857E02F48008840F6A7
:101370007461884208DB314802237F2200210090FB
:10138000622001F060F848E02748008840F6AC5140
:10139000884208DB2A4802237F2200210090622035
:1013A00001F051F839E02048008840F64851884261
:1013B00008DB244802237F2200210090622001F0F4
:1013C00042F82AE01848008840F61651884208DBA7
:1013D0001D4802237F2200210090622001F033F893
:1013E0001BE01148008840F6EE41884208DB1748B0
:1013F00002237F2200210090622001F024F80CE0FB
:1014000001F0D5F84FF48051114800F05EFC002047
:1014100003F084F8002002F00BFF0348008800B2BC
:101420000249088038BD000048000020CC0300209D
:101430005300002054000020D68B0008108C0008B8
:101440004A8C0008848C0008BE8C0008F88C0008C8
:101450000008014010B500F00BFB04F0B1FD03F0F3
:10146000EBFE03F07FFF03F053FD05F0B9FF00F042
:1014700003FD01F03FF8FFF733FB022003F010FEFD
:1014800000F00DFF10BD00BFFEE7000038B50020E2
:101490000090002422E04FF480711A4800F00CFC08
:1014A0009DF800100844C0B28DF800004FF40061B0
:1014B000154800F001FC9DF801100844C0B28DF8F9
:1014C00001004FF48061104800F0F6FB9DF8021017
:1014D0000844C0B28DF80200601CC4B2072CDADBED
:1014E00000200CE01DF80010022903DC0121074A4E
:1014F000115402E00021054A1154411CC8B20328CE
:10150000F0DB38BD00080140000C0140BE030020A4
:1015100010B54FF40041024800F0CEFB044610BD68
:101520000008014010B502460020002305E01478B1
:101530000444E0B2521C5C1CE3B28B42F7DB10BDEA
:1015400070B505461C48007800282DD102231BA247
:10155000194601F075F81D4C012006F0BBFCD4F8CB
:10156000012004231A49012006F0D6FC00F001FFF7
:10157000022318A21946002001F062F801200E494A
:1015800008704FF47A7004F001FD00BF184800683D
:1015900000F4E06017490843001D15490860BFF3D7
:1015A000408F00BF00BFFEE702230AA219460020B9
:1015B00001F046F870BD0000F00200204572617332
:1015C0006520446174612E2E2E000000AB000020C7
:1015D000A4000020416C6C205265636F726420444B
:1015E00061746120436C65617265642100000000D4
:1015F0000CED00E00000FA050548006820F480705A
:10160000034908600846006840F48070086070472D
:10161000140C01400548006820F00F0003490860E1
:101620000846006840F0040008607047040C014060
:101630000548006820F00F0003490860084600686C
:1016400040F0030008607047040C01400548006842
:1016500020F48070034908600846006840F48070F8
:1016600008607047100C0140704700002DE9F043FE
:101670008FB00446342102A8FEF7B7FD4FF00408EE
:101680002078012807D13548007808B9012000E00A
:1016900000203249087031480078002845D1304890
:1016A00000683049884204DB2D480068494288427E
:1016B00006DD02232CA21946002000F0C1FF17E02E
:1016C00027480068FEF77FFF81462A49FEF7B5FDEF
:1016D0000546FEF7F5FF064632460B4626A102A850
:1016E00003F0E0FF022302AA1946002000F0A8FF41
:1016F000244800683C21B0FBF1F52A4622A102A84B
:1017000003F0D0FF022302AA0421002000F098FF7A
:101710002148028821A102A803F0C4FF022302AAE3
:101720000621002000F08CFF15E02048C0781F49FA
:101730008978CDE900101D48437802781CA102A8E1
:1017400003F0B0FF022302AA1946002000F078FF40
:1017500000201C4908700FB0BDE8F083F1020020A2
:101760009C000020C0BDF0FF54656D703A2D2D2DFA
:101770000000000000401C4654656D703A25302E74
:10178000326627002C00002052756E54696D653A50
:1017900025646D696E00000048000020566F6C746F
:1017A0006167653A25646D56000000000C0000205A
:1017B0004657205265763A25642E25642E25642EE0
:1017C00025640000F002002010B58AB0202102A894
:1017D000FEF70BFD002409E0102101EB0411C8B253
:1017E0002246002100F002FF601CC4B2062CF3DB8D
:1017F000012317A20321002000F022FF1A48C0781D
:1018000019498978CDE9001017484378027817A163
:1018100002A803F047FF012302AA0421002000F0E0
:101820000FFF202102A8FEF7E0FC16A218A102A8D3
:1018300003F038FF012302AA0521002000F000FF79
:10184000012303A20621002000F0FAFE0AB010BD19
:101850002A2A2A2A2A2A2A2A2A2A2A2A2A2A2A2AE8
:101860002A2A2A2A2A0000000C0000202A20465793
:10187000205265763A2025642E25642E25642E2577
:10188000640000004D617220323020323031380067
:101890002A205265446174653A20257300000000D7
:1018A00010B50821014800F010FA10BD000C0140ED
:1018B00010B50821014800F00AFA10BD000C0140E3
:1018C00030B5044604254FF4302000F0A1F8054659
:1018D000042D17D10C48006940F002000A49086144
:1018E00008464461006940F0400008614FF4302030
:1018F00000F08EF805460448006941F6FD71084085
:1019000001490861284630BD0020024004200B49EF
:10191000C96801F0010109B101200EE00749C96859
:1019200001F0040109B1022007E00449C96801F08F
:10193000100109B1032000E004207047002002409C
:101940000348006940F080000149086170470000C9
:101950000020024001B500200099C1F309021AB12C
:10196000012202EB912000E0880A08BD10B5FFF7C4
:10197000E7FF10BD70B504460D460426F00200F0E6
:1019800047F80646042E11D10948006940F00100CD
:10199000074908612580F00200F03AF8064604483D
:1019A000006941F6FE71084001490861304670BD8A
:1019B0000020024073B582B00446042500260020B2
:1019C000019000F019F80398FFF7C4FF06460AE0FB
:1019D0004FF48062019902FB0140FFF771FF054659
:1019E0000198401C01900198B04201D2042DEFD023
:1019F000284604B070BD000002480349486003480F
:101A0000486070472301674500200240AB89EFCD55
:101A100000B502460423FFF779FF034603E0FFF712
:101A200075FF0346521E012B01D1002AF7D102B9DE
:101A30000523184600BDF8B506460C461746354640
:101A400000940EE029880098FFF794FF28880099F9
:101A50000988884201D00020F8BDAD1C0098801C88
:101A60000090E01900998842ECD80120F4E70000CA
:101A700008B50121042001F03DF80121082001F002
:101A800039F80121102001F035F80121084601F054
:101A900031F801211B4800F0C7F84FF4C050ADF8F1
:101AA000000003208DF8020010208DF80300694625
:101AB000154800F02DF84FF40140ADF80000032068
:101AC0008DF8020004208DF8030069460E4800F0EE
:101AD0001FF84FF44060ADF8000003208DF80200BD
:101AE00004208DF803006946084800F011F84FF40F
:101AF0008051054800F0E9F84FF40061024800F019
:101B0000E4F808BD0002300000080140000C01406C
:101B10002DE9F04102460025002600200023002484
:101B2000002791F803C00CF00F0591F803C00CF0EA
:101B3000100CBCF1000F03D091F802C04CEA05056F
:101B400091F800C0BCF1000F31D0146800202BE0E8
:101B50004FF0010C0CFA00F3B1F800C00CEA0306D8
:101B60009E4220D183004FF00F0C0CFA03F7BC43C8
:101B700005FA03FC4CEA040491F803C0BCF1280FF9
:101B800006D14FF0010C0CFA00FCC2F814C00AE0B8
:101B900091F803C0BCF1480F05D14FF0010C0CFACD
:101BA00000FCC2F810C0401C0828D1D31460B1F862
:101BB00000C0BCF1FF0F34DD546800202EE000F1BE
:101BC000080C4FF0010808FA0CF3B1F800C00CEA59
:101BD00003069E4221D183004FF00F0C0CFA03F74D
:101BE000BC4305FA03FC4CEA040491F803C0BCF1C1
:101BF000280F05D100F1080C08FA0CF8C2F814807F
:101C000091F803C0BCF1480F07D100F1080C4FF068
:101C1000010808FA0CF8C2F81080401C0828CED33E
:101C20005460BDE8F0810000F0B50A4600230024AE
:101C30000021002500F00046B6F1004F02D11D4EF4
:101C4000F16901E01B4E7168C0F3034583B200F4F3
:101C50004016B6F5401F08D121F07061154E766828
:101C600026F07066134F7E6012E000F48016B6F521
:101C7000801F06D1032606FA05F4A14341F07061E6
:101C800006E0460D360103FA06F6B14341F07061F5
:101C900022B1460D360103FA06F6314300F0004644
:101CA000B6F1004F02D1034EF16101E0014E7160C7
:101CB000F0BD0000000001400246002093680B4088
:101CC0000BB1012000E000207047416170470161C5
:101CD00070470AB1016100E041617047012080F363
:101CE000108800BF03480188002080F3108800BFDF
:101CF000084670471800002000B5FFF78BFC064827
:101D0000006882B202F48070B0F5807F01D10120BA
:101D100000BD0020FCE70000080C014005490968EF
:101D2000016004490831096881600249091D096898
:101D300041607047E8F7FF1F70B500202E4908602A
:101D400004F01CFACC2006F00FF9BE2006F00CF9C6
:101D500005F0D8F9054605F0D5F9044605F0D2F9A5
:101D60002649086005F0CEF92549086005F0CAF952
:101D70002449086005F0C6F92349086005F0C2F956
:101D80002249086005F0BEF92149086005F0BAF95A
:101D900020490860072C19DD01201F49087045EA19
:101DA00004201549086008460068C043401C0860CC
:101DB0000846006840F2712148430F490860084610
:101DC0000068A0F543405038086013E00020124935
:101DD000087045EA0420084908600846006840F297
:101DE000712148430449086008460068A0F5434053
:101DF0005038086070BD00009C0000207C0000206E
:101E00008000002084000020880000208C0000203A
:101E10009000002094000020A000002010B504F0E5
:101E2000ADF9CC2006F0A0F8442006F09DF810BDD6
:101E300000BFFEE770B50246002400250023002005
:101E4000958A138B1B0445EA030626F07F4404EAB7
:101E500001068E4201D1012000E0002070BD21B1B9
:101E6000028842F00102028004E002884FF6FE730D
:101E70001A4002807047000000B585B00121480576
:101E800000F018FE0121082000F034FEC020ADF85B
:101E9000000003208DF802001C208DF80300694625
:101EA0001148FFF735FE114800F024F80020ADF886
:101EB00008004BF6FF70ADF80A003020ADF80C00BA
:101EC0004FF48060ADF80E000001ADF81000084836
:101ED000019001210548FFF7C2FF01A9034800F066
:101EE0005BF805B000BD0000000C0140005400404C
:101EF000801A060010B504460B48844209D101211E
:101F0000480500F0E7FD00214FF4001000F0E2FD6D
:101F100008E00121880500F0DDFD00214FF480007C
:101F200000F0D8FD10BD00000054004021B102882F
:101F300042F48072028004E002884FF6FF631A4088
:101F40000280704721B1028842F40072028004E0EE
:101F500002884FF6FF531A40028070470CB50246C4
:101F6000002000230193009300920B0F019321F0B6
:101F70007F41019B1BB1009B1433009303E0090CCC
:101F8000009B18330093009B1B680B400BB1012092
:101F900000E000200CBD00002DE9F04385B00446B0
:101FA0000D460026B1460427DFF8CC80A6884FF600
:101FB000C0700640684600F0ADFDDDF808802F488F
:101FC000B8FBF0F01FFA80F946EA0906A6802088DF
:101FD0004FF6FE7108402080002629492868884273
:101FE0000CD828684000B8FBF0F087B2042F00DA64
:101FF00004273E4309F10100208427E0E8884BF6DE
:10200000FF71884206D1286800EB4000B8FBF0F071
:1020100087B209E0286800EBC00101EB0010B8FBB3
:10202000F0F087B247F48047C7F30B0008B947F0D8
:10203000010747F4004006434FF4967009FB00F097
:102040004FF47A7190FBF1F0401C2084A683208825
:1020500040F00100208026884FF6F5300640A88821
:102060006989084306432680A88929890843208175
:1020700005B0BDE8F083000000127A0040420F0076
:10208000A086010012B141F0010102E04FF6FE739B
:1020900019400182704701827047000070B5044604
:1020A0000D4600BF4FF400311C48FFF757FF0028D2
:1020B000F8D101211948FFF739FF00BF1849174827
:1020C000FFF7B8FE0028F9D0002278211348FFF767
:1020D000D9FF00BF13491148FFF7ACFE0028F9D023
:1020E00021460E48FFF7D7FF00BF0E49891C0B4859
:1020F000FFF7A0FE0028F8D029460848FFF7CBFFDD
:1021000000BF0849891C0548FFF794FE0028F8D055
:1021100001210248FFF716FF70BD00000054004087
:10212000010003008200070000BFFEE710B504466F
:10213000A078012820D15148007838B100F014F976
:10214000FFF7D2F800204D49087001E000F011F9C6
:102150004B480068006948B149480068006948492F
:1021600008600020474908704749087043480078D4
:1021700010B10020414908706078012834D100F086
:10218000F8F84048007800EB80003D49096801EB11
:10219000800080683D4988420AD03A49097801EBBD
:1021A0008101374A126802EB8101886880471BE091
:1021B0003448007800EB80003149096801EB800069
:1021C000C06888B12F48007800EB80002C4909686E
:1021D00001EB8000C0682A49086000202949087086
:1021E000294908702A490870207801280FD100F089
:1021F000C0F824480078401C22490870084600783E
:1022000024490978884202D100201E4908701D48DF
:1022100000781D490978884206DB1B480078801C3D
:1022200018490978884203DA164800781649087078
:102230001749097801EB8101114A126802EB81010B
:102240000122486814A1FDF7E2FF50B90D4800785B
:1022500000EB80000A4A126802EB80008168204689
:1022600088472078012805D06078012802D0A0781E
:10227000012801D102F07EFD10BD000054000020B5
:10228000E8020020ED020020EC0200207D60000842
:10229000EE020020EF02002020000000704708B589
:1022A0004FF4E06000F056F825208DF80000012082
:1022B0008DF801008DF802008DF80300684600F0EB
:1022C00011F826208DF8000001208DF80100022071
:1022D0008DF8020001208DF80300684600F002F836
:1022E00008BD000070B5002100230F22C47804B39C
:1022F000154C246804F4E064C4F5E064210AC1F1DB
:102300000403CA40447804FA03F18478144021435A
:1023100009010E4C0678A155047804F01F0501242C
:10232000AC4005786D11AD0005F1E025C5F8004120
:1023300009E0047804F01F050124AC40044D067840
:10234000761145F8264070BD0CED00E000E400E099
:1023500080E100E002490143024A11607047000039
:102360000000FA050CED00E010B5002000F0A5F823
:1023700010BD70B5002415E004F1B001C8B203F03F
:1023800072F9002003F06FF9102003F06CF90025BA
:1023900004E0002003F06EF9681CC5B2432DF8DBA1
:1023A000601CC4B2022CE7DB022415E004F1B0018A
:1023B000C8B203F058F9002003F055F9102003F0DB
:1023C00052F9002504E0002003F054F9681CC5B25E
:1023D000802DF8DB601CC4B2082CE7DB70BD2DE952
:1023E000F04706460F4690461C464FF0000AE1179C
:1023F00004EB5171C910A4EBC10131B92046E117BA
:1024000004EB5171C1F3C70506E02046E11704EB68
:102410005171C910491CCDB23D4610E029463046E5
:1024200000F0D0F8B14606E0002003F023F909F1EE
:10243000010000F0FF09C145F6DB681CC5B2A542EA
:10244000ECDBBDE8F0872DE9F05F06460F469046CD
:102450001C46DDF828A04FF0000BE11704EB51718A
:10246000C910A4EBC10131B92046E11704EB517149
:10247000C1F3C70506E02046E11704EB5171C9100E
:10248000491CCDB23D4614E02946304600F09AF88A
:10249000B1460AE059460BF1010B1AF8010003F0AE
:1024A000E9F809F1010000F0FF09C145F2DB681C01
:1024B000C5B2A542E8DBBDE8F09F70B50646002432
:1024C00015E004F1B001C8B203F0CDF8002003F02C
:1024D000CAF8102003F0C7F8002504E0304603F0E6
:1024E000C9F8681CC5B2802DF8DB601CC4B2082C8A
:1024F000E7DB70BD10B54FF47A7003F047FDAE20F6
:1025000003F0B1F8202003F0AEF8102003F0ABF890
:10251000B02003F0A8F8C82003F0A5F8002003F0CD
:10252000A2F8102003F09FF8402003F09CF88120CF
:1025300003F099F87F2003F096F8A12003F093F8B8
:10254000A62003F090F8A82003F08DF83F2003F0B8
:102550008AF8A42003F087F8D32003F084F8002041
:1025600003F081F8D52003F07EF8F02003F07BF82B
:10257000D92003F078F8222003F075F8DA2003F070
:1025800072F8122003F06FF8DB2003F06CF82020C3
:1025900003F069F88D2003F066F8142003F063F867
:1025A000AF2003F060F82E2003F05DF810BD10B5E9
:1025B0008D2003F058F8102003F055F8AE2003F0FA
:1025C00052F810BD70B504460D4605F1B001C8B211
:1025D00003F049F8102141EA141003F044F804F024
:1025E0000F0141F0010003F03EF870BD2DE9F0410C
:1025F00080460E46174600247D0131464046FFF7CF
:10260000E1FF00BF06E00D49485D03F033F86D1CA3
:10261000601CC4B2102CF6DB701CC1B24046FFF740
:10262000D1FF002406E00549485D03F023F86D1C46
:10263000601CC4B2102CF6DBBDE8F0819E7F000860
:102640002DE9F0470646894617469A464FF000089E
:1026500000240025BAF1010F06D0BAF1020F29D0EB
:10266000BAF1030F25D15DE020E0785D203800F05D
:10267000FF087E2E04DD002609F1010000F0FF09AD
:1026800049463046FFF79EFF002409E008EB480169
:10269000384A02EB4101085D02F0ECFF601CC4B255
:1026A000062CF3DBB01DC6B2681CC5B2785D0028ED
:1026B000DBD15CE032E0785D203800F0FF08782E56
:1026C00004DD002609F1020000F0FF09494630460A
:1026D000FFF778FF002407E004EB0811264A505C5E
:1026E00002F0C8FF601CC4B2082CF5DB09F1010040
:1026F000C1B23046FFF766FF002408E004EB081182
:1027000008311D4A505C02F0B5FF601CC4B2082CB1
:10271000F4DB06F10800C6B2681CC5B2785D00287B
:10272000C9D124E01FE0785D203800F0FF08782E42
:1027300004DD002609F1010000F0FF09494630469A
:10274000FFF740FF002407E00C4901EBC801085DDA
:1027500002F090FF601CC4B2082CF5DB06F1080003
:10276000C6B2681CC5B2785D0028DCD100BF00BFCE
:10277000BDE8F087BE800008E6850008E682000814
:1027800010B50020074908704FF400610648FFF7B4
:102790009EFA642003F0FAFB4FF400610248FFF751
:1027A00094FA10BD570000200008014010B5012028
:1027B00007490870C1020748FFF789FA642003F04F
:1027C000E5FB4FF400610348FFF77FFA10BD0000FE
:1027D00057000020000801407047000010B586B087
:1027E0000446FF208DF8040011208DF80600122009
:1027F0008DF805002068029060680390A06804903E
:1028000011210DF10500FEF78DFE8DF81400F0206A
:102810008DF81500034800680269142101A890474B
:1028200006B010BD140000202DE9F041ADF5825D29
:102830004FF480510FA8FDF7D8FC00273E4D05F15D
:10284000110404F11106D5F80120042341F23C01E2
:102850006944012005F049FB0422384941F23C005B
:102860006844FDF7D4FC002827D0354807680223C8
:1028700034A219460020FFF7E3FE012005F02AFBF1
:102880002F480068C11B33A002F0FCFE2B480168F2
:102890000DF58050C163D5F80120042300F13C01FF
:1028A000012005F039FB32A002F0ECFE022337A232
:1028B00019460020FFF7C4FE3AE0D4F801204FF497
:1028C00080530FA9012005F010FB00200AE00FA99A
:1028D000095C582904D132490988491C304A1180C1
:1028E000411C88B2B0F5805FF1D3641CA0682C490C
:1028F00009880844A060D6F809102948008801EB2F
:102900004010C6F809002648018826A002F0BAFE49
:10291000A16854F8010900F58050814208D10223D2
:1029200025A206210020FFF78BFE01202749087011
:102930000DF5825DBDE8F081AB000020A400002011
:10294000C4030020466F726D617420466C61736829
:102950002E2E2E00457261736520666C61736820AF
:1029600074696D653A25646D732E0D0A00000000D0
:10297000496E697420666C6173682073746F72614C
:1029800067652073706163652E0D0A00466F726D76
:10299000617420466C617368204F4B210000000079
:1029A00030000020486973746F72795258436E7416
:1029B0003A25640D0A000000466C61736820537468
:1029C0006F726167652046756C6C210034000020D1
:1029D00008B50EA002F056FE1AA21DA11FA002F01B
:1029E00051FE2548C07800902348837842780178CA
:1029F00022A002F047FE274883684268016826A0AB
:102A000002F040FE01A002F03DFE08BD2A2A2A2A5B
:102A10002A2A2A2A2A2A2A2A2A2A2A2A2A2A2A2A16
:102A20002A2A2A2A2A2A2A2A2A2A2A2A2A2A2A2A06
:102A30002A2A2A2A2A2A2A2A2A2A2A2A2A2A0D0A33
:102A40000000000031343A34383A313700000000D9
:102A50004D61722032302032303138002A205265E8
:102A60006C656173652044617465203A202573208C
:102A700025730D0A000000000C0000202A20465794
:102A8000205265763A2025642E25642E25642E2555
:102A9000640D0A00C40A00202A2048572049443AFD
:102AA0002025303858202530385820253038580D0A
:102AB0000A00000029B1064AD2690243044BDA61D8
:102AC00004E0034AD2698243014BDA617047000097
:102AD0000010024029B1064A12690243044B1A61F0
:102AE00004E0034A12698243014B1A6170470000F7
:102AF0000010024029B1064A92690243044B9A61D0
:102B000004E0034A92698243014B9A6170470000D6
:102B10000010024030B500210022002400232D4D7A
:102B20006D6805F00C0121B1042905D0082923D1D5
:102B300005E0294D056022E0274D05601FE0254D89
:102B40006D6805F47012234D6D6805F4803402251C
:102B500005EB92421CB9214D554305600BE01D4D1C
:102B60006D6805F400351DB11C4D5543056002E04C
:102B7000194D5543056002E0174D056000BF00BFC9
:102B8000144D6D6805F0F0010909154D6B5C056881
:102B9000DD4045600F4D6D6805F4E061090A104D98
:102BA0006B5C4568DD4085600A4D6D6805F46051D9
:102BB000C90A0B4D6B5C4568DD40C560054D6D680D
:102BC00005F44041890B074D6B5CC568B5FBF3F517
:102BD000056130BD0010024000127A0000093D007E
:102BE000E4030020F403002010B5002001F096FC5F
:102BF000022306A200210846FFF722FD02235422E9
:102C000000214420FFF7EBFB10BD00005246204F8F
:102C10004646000008B5012001F080FC02230DA209
:102C200000210846FFF70CFD0C480078012808D069
:102C30000B4802235422002100904420FFF703FC9C
:102C400007E0084802235422002100904420FFF7A7
:102C5000FAFB08BD5246204F4E00000057000020EE
:102C60007C8D00089C8D00080748084908600848CA
:102C70004860084888600848C860084808610848F3
:102C80004861084670470000DD3700087C1F0020BF
:102C90002347000879480008B9370008554800085C
:102CA000454600082DE9F04FABB00546802103A84A
:102CB000FDF79BFA0026022005F026F98146687888
:102CC000012805D1D9F8090020386049086007E0DB
:102CD0002878012804D15D48006820385B490860E5
:102CE00020235A4823A90268012005F0FEF8DDF8E8
:102CF000A700029002A8FDF715FA0446606900F2E9
:102D00006C7040F63A0188427ED0E06800902069FD
:102D1000431C606900F26C724DA103A802F0C2FC72
:102D2000012303AA00210846FFF78AFC20680090CF
:102D30004BA103A8D4E9013202F0B4FC012303AA99
:102D400019460020FFF77CFC802103A8FDF74DFA0F
:102D500000270BE00DF18F01CA5D03A9881944A17A
:102D600002F0A0FCB01CC6B2781CC7B2092FF1DB80
:102D7000012341A202210020FFF762FC012303AAE4
:102D800002211220FFF75CFCBDF8A3203BA103A8A1
:102D900002F088FC012303AA03210020FFF750FC66
:102DA0009DF9A02038A103A802F07CFC012303AA0E
:102DB00004210020FFF744FCBDF9A12035A103A8A0
:102DC00002F070FC012303AA05210020FFF738FC64
:102DD000802103A8FDF709FA2698FDF7FDFB83463D
:102DE0002F49FDF72AFA8246FDF76AFC07463A4664
:102DF0000B462CA103A802F055FC012303AA0621CF
:102E00000020FFF71DFC00E017E02798FDF7E4FB2A
:102E100083462349FDF711FA8246FDF751FC074628
:102E20003A460B4621A103A802F03CFC012303AA69
:102E300007210020FFF704FC05E002231DA2042166
:102E40002020FFF7FDFB2BB0BDE8F08FF40200203F
:102E500025642D253032642D2530326400000000B9
:102E600020253032643A253032643A25303264000D
:102E7000253032580000000049443A005278436E31
:102E8000743A202564000000534E523A20256464B1
:102E900042000000525353493A256464426D0000D9
:102EA0008096184B453A2025660000004E3A2025B2
:102EB000660000004E6F2044617461210000000034
:102EC00010B58EB00446342101A8FDF78EF91748DD
:102ED000028817A101A802F0E5FB022301AA194606
:102EE0000020FFF7ADFB342101A8FDF77EF9134860
:102EF000028813A101A802F0D5FB022301AA042134
:102F00000020FFF79DFB342101A8FDF76EF90F4863
:102F100002880FA101A802F0C5FB022301AA062125
:102F20000020FFF78DFB0EB010BD00003000002028
:102F3000485F5258436E743A256400003600002002
:102F4000435F5258436E743A2564000032000020FB
:102F5000466C617368457272436E743A2564000072
:102F600010B50020074908704FF400610648FEF7CD
:102F7000AEFE642003F00AF84FF400610248FEF749
:102F8000A4FE10BD580000200008014010B501202B
:102F900007490870C1020748FEF799FE642002F055
:102FA000F5FF4FF400610348FEF78FFE10BD0000EF
:102FB000580000200008014021B1028842F0400280
:102FC000028004E002884FF6BF731A400280704707
:102FD0000246002013890B400BB1012000E00020C5
:102FE00070470146888970478181704710B500227B
:102FF000028802F441520B884C8823438C88234377
:10300000CC8823430C8923434C8923438C89234355
:10301000CC8923431A430280838B4FF2FF742340F1
:1030200083830B8A038210BD7047000030B51648B9
:10303000006890F8270000F00700421C1248006862
:1030400090F83000C3091048006890F8300000F094
:10305000060008B1012000E0002004460A4800688C
:1030600090F832100848006890F8300000F0100026
:10307000102801D1022000E000200546D01820448D
:103080000844284480B230BD1C03002070B50546BA
:103090000C460648008820800020044908802288C9
:1030A00003492846FDF788F870BD00003003002072
:1030B000042000202DE9F04F89B001200890F84845
:1030C00000780C287ED2DFE800F0060784EFEDECF4
:1030D000EBEAE9E8E7E6BFE2F248006890F8300082
:1030E00000F01000102805D14C20EE49096881F845
:1030F000400004E00C20EB49096881F84000E12021
:10310000E849096881F841000222E6480168403137
:10311000402001F0C7FB052000F002FB4FF4807156
:10312000E148FDF762F8E1494868FDF76BFACDE93F
:103130000201FFF77BFF0190FDF764FA8046002251
:10314000DB4BFDF75FF90646DDE90223FDF7CCF91D
:103150000022D84BCDE90401FDF754F9CDE9060171
:1031600003F0F0FF04460022D34BFDF7A4F882469B
:10317000FDF78DFA80B2D14908600846006800EB7F
:103180005000086008460068CD490860CD480068D6
:10319000CD490860CD490860A020C249096881F87E
:1031A0003500C048006890F83510352001F072FBFA
:1031B0000020C7490870C7490870C7490870C74947
:1031C000087000E047E2C64908800220B449087050
:1031D00042E201F095FA012809D1BD48007830B9E2
:1031E0000120BB490870B7480068B849086001F081
:1031F00075FA01281ED1B648007801281AD1B548C1
:103200000078B8B90120B349087000F063FAB54AF4
:1032100003C200F037FAB449086000F073FAB3490A
:103220000870A8480068A8490860A84908600320F9
:103230009B490870A7480078B8B9A54800780128CC
:1032400013D1A0480068A1490968401A9C4909683F
:1032500088420AD901209249087092480068407B50
:1032600040F020010D2001F015FB9A48007888B944
:103270009748007870B99848007858B99148006824
:1032800091490968401A8D490968884202D9052088
:1032900083490870E0E1D8E1D1E184E14FE127E121
:1032A000EAE0D6E0CCE0FFE78D480088B0F5807F0B
:1032B00003DD06207A490870CEE101F005FA012805
:1032C00053D187480088A8B98448007890B97548D8
:1032D000006890F8300000F08000802804D10121BF
:1032E0007F4801F015FA05E06E48006890F832005A
:1032F0007B4908807A48008878490978401A6949EA
:10330000096891F8351001F03F01884217DD654AE0
:10331000126892F8352002F03F01634A6F4B1B7828
:10332000D01801F0F5F95F48006890F8350000F01A
:103330003F006A49097808446849087015E0684AFE
:103340001278664B1B78D21AD1B2574A634B1B785E
:10335000D01801F0DDF96248007860490978401A18
:103360005E49097808445D49087001F0A3F9012815
:1033700056D154480068544908605948008890BBA9
:103380005648007878BB4748006890F8300000F055
:103390008000802804D10121514801F0B9F905E0ED
:1033A0004048006890F832004D4908804C4A127835
:1033B0004A4B1B78D21AD1B23B4A484B1B78D018E3
:1033C00001F0A6F94648007844490978401A434973
:1033D000097808444149087001203F4908700420D9
:1033E0002F4908701CE0FFE73D4A12783B4B1B78E1
:1033F000D21AD1B22C4A394B1B78D01801F088F977
:103400003748007835490978401A34490978084422
:1034100032490870012030490870042020490870A2
:103420002D48007858B92748006827490968401A8C
:1034300022490968884202D90520194908700BE120
:1034400000202649087001201549087002200890C4
:1034500002E10020214908702149088011480068D4
:10346000407B40F020010D2001F014FA01200C49AE
:10347000087003200890EFE00020184908701849F0
:10348000088008480068407B40F020010D2001F0D2
:1034900001FA01200249087006200890DCE00000D3
:1034A000210300201C030020042000200003002032
:1034B0000000204000408F400000F03F2403002027
:1034C00028030020C4030020480300204C030020F0
:1034D0002C0300202D0300202E03002032030020A7
:1034E0003003002038030020400300204403002064
:1034F00001205C49096881F8400020205949096889
:1035000081F841000222574801684031402001F013
:10351000C9F998205349096881F835005148006875
:1035200090F83510352001F0B5F9032000F0F8F8D7
:1035300008204D49087000204C4908708CE001F0CB
:10354000D7F801282ED14748006890F8300000F0E5
:103550008000802803D10121454801F0C3F9444887
:103560000088002808DD42480088402804DC4048E4
:1035700000784049087002E020203E4908703D482C
:1035800001783D4801F0AEF93848007839490978AA
:1035900008443649087039480068394908600920EC
:1035A0003149087058E001F08FF870BB304800884E
:1035B0002E490978401A2F49097888420FDD2E4993
:1035C0002A4A127888182B49097801F08BF9274884
:1035D00000782849097808442449087015E0244AED
:1035E0001278224B1B78D21AD1B2234A1F4B1B7878
:1035F000D01801F077F91E4800781C490978401A64
:103600001A49097808441949087001F053F801284B
:1036100009D11A4800681A4908600A20124908703E
:10362000012000F07DF81548006815490968401A26
:10363000B0F57A7F02D90B200B4908700CE000200E
:10364000094908700420089006E000200649087027
:103650000520089000E000BF00BF089809B0BDE851
:10366000F08F00001C030020210300203303002002
:10367000500300202003002004200020C403002069
:10368000540300202DE9F0470222104801681B3145
:103690001B2000F0EDFF0D490968097F0B4A1268F5
:1036A000D27E41EA0220FCF79CFF8046FCF7D0FF67
:1036B0008246FCF796FF06460022054BFCF7A2FE69
:1036C0000446FCF7C5FFBDE8F08700001C0300209E
:1036D000A8CB484070B50A4801681131112000F0AC
:1036E000BDFF07490968487CFCF78CFF04460022AF
:1036F0004FF08043FCF7F8FE81F0004170BD000000
:103700001C03002010B5054801680C310C2000F0A6
:10371000A5FF02480068007B400910BD1C03002083
:1037200070B50446002514480068407820F0F80081
:10373000124908700846007884421CD0032C01D13D
:10374000012500E000250E480078854204D00C4891
:103750000570284601F0CFF807480068407800F06F
:10376000F80020430449096848700348006841781C
:10377000012001F08FF870BD1C03002058030020C9
:103780005903002001490870704700002103002000
:1037900070B504460D460548058002882146044858
:1037A000FCF70AFD07200349087070BD5003002094
:1037B000042000202103002070B504460D46064871
:1037C000007820B929462046FFF760FC03E029462F
:1037D000204600F097F870BDF90200201CB517488C
:1037E000174908601749086000F042F800F099FF97
:1037F00001A9062000F032FF6946422000F02EFFAA
:103800000EE011A001F03EFFFEF7B3FD022312A26D
:1038100003210020FEF714FF4FF4FA6002F0B6FB1C
:103820009DF804006C28ECD101201049087008466E
:10383000007800F085FF00F079F81CBD941F00208F
:103840001C03002078030020486172642053504913
:1038500020457272210D0A005246204D6F64756C2E
:1038600065204572726F722100000000F90200208D
:1038700008B501211D20FFF73DF910208DF8030048
:1038800003208DF8020001F059FA04208DF803009E
:10389000C002ADF8000069461448FEF739F94FF44C
:1038A0008040ADF8000069461048FEF731F94FF44A
:1038B0000040ADF8000069460C48FEF729F90120E8
:1038C000ADF8000069460A48FEF722F90220ADF87B
:1038D000000069460648FEF71BF91020ADF800000D
:1038E00069460448FEF714F908BD000000100140C5
:1038F00000080140000C01400148007870470000BA
:103900007C03002070B505460C46064800882080E0
:10391000002004490880228803492846FCF74CFC13
:1039200070BD00007E0300200421002010B500209F
:103930002D49087000F0F8FB6F222C49012000F09F
:1039400097FE20202A49096808736F222749012021
:1039500000F0A8FF2749086800F032FD2549887962
:1039600000F000FE2349C87900F0E8FB2149087AFD
:1039700000F0D6FC1F49487900F0D6FD1D49487A71
:1039800000F0FCFB40F2FF3000F01AFE1949087EFF
:1039900000F0E6FC012000F00FFC342000F0F4FC05
:1039A00014480068144988420DD9802000F072FC48
:1039B000012000F089FC14200E49087191F90400DF
:1039C00000F02AFD0CE0002000F064FC002000F074
:1039D0007BFC0E200749087191F9040000F01CFDE2
:1039E000012000F025FC10BD7C030020951F002065
:1039F000780300205C0300200057A6162DE9F04F45
:103A000085B001200490FE4800780B2874D2DFE8CE
:103A100000F0060774CCFEFDFCFB73FAF90047E3E7
:103A2000012000F005FC9D20F64909684874F5481E
:103A30000068417C112000F02DFFF348C07A012876
:103A400016D1F148007BEF49096881F82400ED4860
:103A500001681C311C2000F001FEEA490968097F59
:103A600001F03F01E94A52F8210000F0A9FC04E00E
:103A7000FF20E449096881F82400E248006890F8D2
:103A80002410242000F006FF0020DE49096881F898
:103A90003F00DC49096881F840000222D9480168EA
:103AA0003F31402000F0FEFED748807A012803D144
:103AB000062000F0BDFB0EE0D2480068C07BD14973
:103AC00009684873CF480068417B0D2000F0E2FE92
:103AD000052000F0ADFB4FF48071CD48FCF785FB6D
:103AE000C9484069CB490860CB480068CB490860A9
:103AF0000220C3490870DBE2D9E200F0DBFD0128B7
:103B00001ED1C5480068C5490860BF48C07A012871
:103B10000FD1BC4801681C311C2000F09FFDB94941
:103B20000968097F01F03F01B84A52F8210000F00E
:103B300047FC4021122000F0ADFE0320B049087080
:103B400000F0CCFD01281FD1B3480068B3490860DC
:103B5000AD48C07A01280FD1AA4801681C311C2049
:103B600000F07CFDA7490968097F01F03F01A74AE1
:103B700052F8210000F024FC0221122000F08AFEFD
:103B800000F0C4FAA64908709F48807A01280BD13A
:103B9000A1480068A1490968401A9E4909688842FD
:103BA00002D904209649087082E2964801681231D1
:103BB000122000F053FD93480068807C00F0200044
:103BC00020280ED12021122000F064FE8E48807A39
:103BD000012802D18A49087002E002208849087051
:103BE00066E203A9192000F039FD9DF80C0000F0F1
:103BF0008000A0B19DF80C00C043401CC0F38500BC
:103C0000884905E031E20CE202E2D9E15EE157E1E8
:103C1000087008460078404240B2087004E09DF801
:103C20000C0080087F490870774800687E49884208
:103C30004ED27C4890F9000000282ADA794890F9A1
:103C40000000FCF7CEFC82468B466F4840797749EE
:103C500001EBC00003C802460B46CDE9000100207D
:103C60007349FCF7CFFB0022724BCDE90201FCF750
:103C700022FB06460022704BFCF71DFB0446524611
:103C80005B46FCF718FB8046FCF746FD6B49086075
:103C90006BE05C4801681A311A2000F0DFFC5949DA
:103CA0000968887EFCF7AEFC804689465648407914
:103CB000634901EBC000D0E9006332464046494603
:103CC000FCF7F9FA0446FCF727FD5C4908604CE074
:103CD000544890F90000002829DA524890F9000071
:103CE000FCF77FFC80468946474840794F4901EB05
:103CF000C001D1E90063324600204D49FCF782FB48
:103D0000044600224B4BFCF7D6FA00224D4BCDE97E
:103D10000001FCF7D0FA42464B46CDE90201FCF720
:103D2000CAFA8246FCF7F8FC444908601DE03548B1
:103D300001681A311A2000F091FC32490968887E26
:103D4000FCF760FC804689462F4840793E4901EBEC
:103D5000C000D0E90063324640464946FCF7ABFA62
:103D60000446FCF7D9FC354908602748807A0128C9
:103D70002FD124480068C07B224909684873214834
:103D80000068417B0D2000F085FD1F48407A012826
:103D90000DD11C48006890F822002C490880194871
:103DA000006890F822101A4800F0B2FC7BE0154839
:103DB00001681331132000F051FC12480068C07CE8
:103DC000224908800F480068C17C114800F0A0FC1F
:103DD00069E00C4801681031102000F03FFC0A48EF
:103DE000407A012842D10748006890F8220017491C
:103DF000088004480068007C02490968487327E08D
:103E00007C030020780300205C030020B08E0008B3
:103E10000421002090030020C40300208C03002014
:103E20008803002080030020008F4233C08D0008EB
:103E30000000244000C065C0000010408403002042
:103E4000108E000800001840608E00087E030020DD
:103E50009A480068417B0D2000F01CFD97480068DF
:103E600090F82210964800F053FC1CE0934801683B
:103E70001331132000F0F2FB90480068C07C914998
:103E800008808E480068007C8C49096848738B481C
:103E90000068417B0D2000F0FDFC88480068C17C73
:103EA000874800F035FC8848807A012802D187498C
:103EB000087002E002208549087002200490F7E0B3
:103EC00001208249087003200490F1E0012000F0F5
:103ED000AFF97D48C07A01281AD1F52077490968E1
:103EE00048747948007B7549096881F82400734853
:103EF00001681C311C2000F0B1FB70490968097F82
:103F000001F03F01724A52F8210000F059FA08E02E
:103F1000F7206A490968487400206849096881F8EF
:103F200024006648006890F82410242000F0B2FCB9
:103F300062480068417C112000F0ACFC65480078C4
:103F40005E49096881F822005C48006890F82210F8
:103F5000222000F09FFC00205849096888735748C8
:103F60000068817B0E2000F095FC54480068807B3F
:103F700052490968487351480068417B0D2000F0A0
:103F800089FC4E48006890F822104D4800F0AAFCC9
:103F900041204A49096881F83F00402047490968A3
:103FA00081F840000222454801683F31402000F07E
:103FB00079FC032000F03CF906204449087077E0C2
:103FC00000F078FB012806D10821122000F062FCE5
:103FD00007203E49087000F081FB012817D13A48BC
:103FE000C07A01280FD1354801681C311C2000F02F
:103FF00035FB32490968097F01F03F01344A52F824
:10400000210000F0DDF90221122000F043FC4FE016
:10401000012000F00DF900202C49087004200490C4
:1040200046E0012000F004F9FA20244909684874A8
:1040300022480068417C112000F02CFC00201F4920
:10404000096881F83F001D49096881F84000022293
:104050001A4801683F31402000F024FC072000F09E
:10406000E7F80A201949087022E000F041FB012816
:104070001CD10421122000F00DFC00F041FB0128AE
:104080000CD10121122000F005FC09200F49087015
:104090000820049010A001F0F5FA07E009200B4970
:1040A00008700720049014A001F0ECFA00E000BFB3
:1040B00000BF049805B0BDE8F08F00007803002031
:1040C000042100207E0300205C0300207C030020EC
:1040D000B08E00089403002052465F4348414E4E84
:1040E000454C5F41435449564954595F44455445F2
:1040F000435445440D0A000052465F4348414E4E2A
:10410000454C5F454D5054590D0A000010B5054807
:1041100001680C310C2000F0A1FA02480068007B15
:10412000400910BD7803002010B5034801684131F3
:10413000422000F093FA10BD7803002010B5044629
:104140000C4801681D311D2000F088FA09480068FC
:10415000407F00F0F10040EA4400064909684877D2
:1041600004480068417F1D2000F094FB0248C471A0
:1041700010BD0000780300205C03002010B5044649
:104180000B4801681D311D2000F068FA08480068DE
:10419000407F00F0FE002043054909684877044845
:1041A0000068417F1D2000F075FB0248447210BD7D
:1041B000780300205C03002010B504460C48016819
:1041C0002631262000F04AFA0948006890F82600B7
:1041D00000F0F70040EAC4000549096881F82600AC
:1041E0000348006890F82610262000F053FB10BD0D
:1041F0007803002010B504460C48016830313120A6
:1042000000F02CFA0948006890F8300000F0F8003F
:1042100020430649096881F830000448006890F896
:104220003010312000F036FB10BD00007803002074
:1042300070B50446002514480068407820F0F80066
:10424000124908700846007884421CD0032C01D122
:10425000012500E000250E480078854204D00C4876
:104260000570284600F047FB07480068407800F0DA
:10427000F800204304490968487003480068417801
:10428000012000F007FB70BD78030020960300209A
:104290009703002010B504460A4801680931092037
:1042A00000F0DCF907480068407A00F07F00204306
:1042B00004490968487203480068417A092000F0FF
:1042C000E9FA10BD7803002010B5044613480168D0
:1042D0004C314D2000F0C2F9104801680931092025
:1042E00000F0BCF90D480068407A00F0800080289A
:1042F00007D1012C0AD187200849096881F84C00B0
:1043000004E084200549096881F84C0003480068EE
:1043100090F84C104D2000F0BDFA10BD780300203D
:1043200010B504460C4801681E311E2000F096F9B5
:1043300009480068807F00F0FB0040EA84000649DD
:104340000968887704480068817F1E2000F0A2FA7F
:104350000248047210BD0000780300205C030020B6
:1043600010B504460648006880F8224004480068FA
:1043700090F82210222000F08DFA0248047610BD39
:10438000780300205C03002010B5044602220B488D
:1043900001682031202000F06BF9200A07490968E4
:1043A00081F820000549096881F82140022203486C
:1043B00001682031202000F075FA10BD780300203C
:1043C0002DE9F0410446114804602046FCF71AF933
:1043D000054600220E4BFCF787F80746FCF757F915
:1043E0000446200C0B4909688871200A09490968AC
:1043F000C871084909680C72032206480168891DC2
:10440000062000F04FFABDE8F08100005C030020B8
:1044100080844E407803002010B504463D48016872
:104420000931092000F01AF93A4801684C314D2051
:1044300000F014F937480068407A00F080008028C6
:1044400041D13448006890F84C0000F0870087287C
:104450001CD1052C00DA0524142C00DD14242D4871
:104460000068407A00F08F0040F070002949096828
:10447000487228480068407A00F0F000611F01F09F
:104480000F0108432349096848723AE0022C00DA18
:104490000224112C00DD11241E480068407A00F02F
:1044A0008F0040F070001B49096848721948006885
:1044B000407A00F0F000A11E01F00F0108431549F9
:1044C000096848721DE0B4F1FF3F01DA4FF0FF3494
:1044D0000E2C00DD0E240F480068407A00F08F009B
:1044E00040F070000B49096848720A480068407A39
:1044F00000F0F000611C01F00F0108430549096854
:10450000487204480068417A092000F0C3F9024863
:10451000047110BD780300205C030020014908707D
:10452000704700007C03002010B504460B4801686A
:104530001D311D2000F092F808480068407F64F3A8
:104540001F1006490968487704480068417F1D200C
:1045500000F0A0F90248447110BD0000780300206B
:104560005C03002010B504460C2C01DD0C2402E095
:10457000062C00DA0624062C03D10520FFF73AFEAC
:1045800002E00320FFF736FE0B4801681E311E20B3
:1045900000F064F808480068807F64F31F10064943
:1045A0000968887704480068817F1E2000F072F94E
:1045B0000248847110BD0000780300205C030020D5
:1045C00010B5044602220F4801681E311E2000F07B
:1045D0004FF80C480068807F00F0FC006FF0FC0191
:1045E00001EA2421084307490968887705490968D1
:1045F000CC770222034801681E311E2000F052F9D8
:1046000010BD00007803002070B504460D4609482F
:10461000C07A10B90848058002E0FF2006490880EA
:104620000548028821460548FBF7C6FD05200449D8
:10463000087070BD5C03002094030020042100205A
:104640007C03002010B50448007810B9FEF732FD55
:1046500010BDFFF7D3F9FBE7F902002070B504465F
:104660000D4601222946204600F002F870BD0000E8
:104670002DE9F04105460E461746002210210C4850
:10468000FDF727FB05F07F0000F026FC002405E085
:10469000002000F021FC3055601CC4B2BC42F7DBA6
:1046A000012210210248FDF714FBBDE8F081000053
:1046B0000008014010B54FF400510248FDF7FCFA24
:1046C00010BD00000010014010B54FF480410248B9
:1046D000FDF7F2FA10BD00000010014010B54FF4D4
:1046E00000410248FDF7E8FA10BD0000001001404B
:1046F00010B501210148FDF7DFFA10BD00080140A7
:1047000010B502210148FDF7D7FA10BD000801409D
:1047100070B504460D462A4621460020FFF7A8FF43
:1047200070BD10B5012000F069F80A2001F02EFCE0
:10473000002000F063F80A2001F028FC10BD000002
:1047400010B5044629480078A04200D110BD274882
:10475000047027480470007801282BD10020FFF74F
:1047600067FD24480068407800F07F0040F080003A
:104770002049096848701F4800684178012000F00E
:1047800089F80120FFF754FD00201A49096881F8D3
:104790003F001849096881F8400002221548016865
:1047A0003F31402000F07EF86F2213490120FFF7CF
:1047B0005FFF18E00020FFF73BFD0E4800684078DF
:1047C00000F07F000B49096848700A48006841788A
:1047D000012000F05FF80120FFF72AFD6F22064953
:1047E0000120FFF745FF00BFB0E70000FA020020FC
:1047F000F902002078030020951F002038B50446F8
:10480000012C12D12020ADF8000003208DF8020009
:1048100010208DF8030069460D48FDF779F9002254
:1048200020210B48FDF755FA11E02020ADF80000DB
:1048300003208DF8020010208DF80300694604481B
:10484000FDF766F9012220210148FDF742FA38BD43
:10485000000C014070B504460D460648007820B9AA
:1048600029462046FEF794FF03E029462046FFF73D
:10487000CBFE70BDF902002010B50548007818B9CC
:104880000120FEF77FFF02E00120FFF747FE10BD89
:10489000F902002013B50446012201A9204600F0C8
:1048A00001F81CBD2DE9F04105460E4617460022D1
:1048B00010210B48FDF70DFA45F0800000F00CFBCD
:1048C000002404E0305D00F007FB601CC4B2BC4271
:1048D000F8DB012210210248FDF7FBF9BDE8F08169
:1048E0000008014070B504460D462A4621460020C6
:1048F000FFF7D8FF70BD10B5044614B100F02CFAD4
:1049000001E000F01BFA10BD10B5044601200B4970
:1049100008702078012807D10948007808B90120DB
:1049200000E00020064908700548007818B9FF200B
:10493000FDF7C3FD01E0FDF717FD10BD5400002099
:10494000F80200202DE9FF4F8BB092461A9C5820A8
:1049500003904FF0000904A80290FF208DF810008A
:104960001C9850B90B980168CDF811104168CDF82A
:104970001510007A8DF819001AE01C9801280ED144
:104980000B980068CDF81100042505E030210DF1E9
:1049900011004155681CC5B2092DF7DB08E0002560
:1049A00004E00DF111004555681CC5B2092DF8DB76
:1049B0000C98CDF81A00CDF81EA0DDE91801FBF720
:1049C00047FE00B2ADF823000E988DF82200ADF836
:1049D00025401B98ADF82700002506E00298401CF2
:1049E000405D80EA0909681CC5B2182DF6D38DF820
:1049F0002990F0208DF82A001B220120029903F053
:104A000093F9012003F034F91B220020029903F0EE
:104A10008BF9002003F02CF92046E11704EBD1615B
:104A20004911A4EB41118E4A02EB41118DA213886A
:104A30000B8092788A70E11704EBD1614911A4EBE5
:104A40004111874A02EB4111DDF8112041F8032F93
:104A5000DDF815204A609DF819200A72E21704EB70
:104A6000D2625211A4EB42127D4B03EB42120C991D
:104A7000D160E11704EBD1614911A4EB41111A4651
:104A800002EB4111C1F810A0E21704EBD2625211FF
:104A9000A4EB421203EB42120E991175DDE91801E5
:104AA000FBF7D6FD00B2A346E11704EBD161491133
:104AB000A4EB41116A4A02EB4111A1F8150020460E
:104AC000E11704EBD1614911A4EB411102EB411153
:104AD000A1F81740E21704EBD2625211A4EB421284
:104AE0005F4B03EB42121B99A2F819105E4909684B
:104AF000E21704EBD2625211A4EB421203EB421212
:104B0000C2F81B104FF00009E11704EBD161491105
:104B1000A4EB41111A4602EB41110191002505E079
:104B20000198405D80EA0909681CC5B21F2DF7D3C2
:104B30002046E11704EBD1614911A4EB4111484A29
:104B400002EB411181F81F9048480078002840D1BD
:104B5000022003F0D9F98046012003F0D5F906467A
:104B6000A346E01704EBD0604011A4EB40103C4B8F
:104B700003EB4011D8F809202023012003F0CCF9E1
:104B800007463FBBC82001F001FAE01704EBD060F4
:104B90004011A4EB4010324B03EB4011D8F8092030
:104BA0002023012003F0B8F90746002F54D14FF419
:104BB00000612F48FDF78BF8C82001F0E7F94FF4AA
:104BC00000612B48FDF781F82A480088401C2949DC
:104BD000088041E0D8F809002030C8F80900D6F86C
:104BE0000920012303A9184603F096F90746FFB9E7
:104BF000C82001F0CBF9D6F80920012303A91846F3
:104C000003F08AF907463FBB4FF400611848FDF7EF
:104C10005EF84FF47A7001F0B9F94FF4006114486E
:104C2000FDF753F813480088401C1249088013E030
:104C3000761CB068401CB060B16856F8010900F5F8
:104C40008050814208D102230BA204210020FDF7ED
:104C5000F7FC0120054908700FB0BDE8F08F000097
:104C6000D00A0020465148000800002034000020EF
:104C70000008014032000020466C617368205374C4
:104C80006F726167652046756C6C210010B500F08D
:104C900001F810BD0CB50020019000902548006877
:104CA00040F480302349086000BF2248006800F4C7
:104CB000003000900198401C0190009818B90198AC
:104CC000B0F5A06FF1D11B48006800F4003010B1BE
:104CD0000120009001E0002000900098012828D1D8
:104CE0001548006840F01000134908600846006845
:104CF00020F0030008600846006808600D4840681E
:104D00000C4948600846406848600846406848606A
:104D10000846406820F0030048600846406840F0BC
:104D20000100486000BF0348406800F00C00042800
:104D3000F9D10CBD001002400020024010B5012145
:104D40000448FCF7C4FF4FF400710248FCF7BDFFB4
:104D500010BD0000000C014010B501210448FCF713
:104D6000B4FF4FF400710248FCF7B1FF10BD000022
:104D7000000C014070B5002450480068007850498C
:104D8000087050480078504908704D480078032852
:104D900048DB00BF43E04C49097801EB8101474AF9
:104DA000126802EB81010122486848A1FBF72FFA43
:104DB00028B34548007800EB8000404B1B6803EBAC
:104DC00080004268601C4006010E02231220FDF79D
:104DD00037FC3D4800783E49097888420FD13C486D
:104DE0000078032190FBF1F201FB1200401C400609
:104DF000050E022337A229460020FDF721FC324888
:104E00000078401C30490870084600782C49097821
:104E1000884202D100202C490870601CC4B2032CC7
:104E2000B9DB49E0002443E02749097801EB81011F
:104E3000224A126802EB81010122486823A1FBF794
:104E4000E6F928B32048007800EB80001B4B1B6874
:104E500003EB80004268601C4006010E0223122012
:104E6000FDF7EEFB184800781949097888420FD100
:104E700017480078032190FBF1F201FB1200401C5F
:104E80004006050E022313A229460020FDF7D8FB99
:104E90000D480078401C0C49087008460078084905
:104EA0000978884202D1002007490870601CC4B20A
:104EB000034800788442B7DB70BD0000E8020020A0
:104EC000EF020020EC020020EE0200202000000093
:104ED000ED0200202D3E000010B5044600BF022167
:104EE0000A48FEF775F80028F9D021460748FEF772
:104EF0007BF800BF01210548FEF76AF80028F9D0C9
:104F00000248FEF76EF8C0B210BD0000003001404C
:104F100000B587B0012141F20500FDF7EBFD03204C
:104F20008DF8060018208DF80700E020ADF8040089
:104F300001A91D48FCF7ECFD10208DF807000320A7
:104F40008DF806001020ADF8040001A91648FCF702
:104F5000DFFD012210211448FCF7BBFE0020ADF854
:104F600008004FF48270ADF80A000020ADF80C0084
:104F7000ADF80E00ADF810004FF40070ADF812005F
:104F80001020ADF814000020ADF816000720ADF891
:104F9000180002A90548FEF729F801210348FEF789
:104FA0000BF807B000BD00000008014000300140D0
:104FB00010B500F009F803480068401C014908607A
:104FC00010BD0000C403002010B5002406E01749FE
:104FD00001EBC40001F034F8601CC4B2042CF6DB11
:104FE00013480068401C12490860084600686FF0CA
:104FF0000041884202D100200D4908600D48006838
:10500000401C0C490860B0F57A7F0BD30020086083
:1050100009480068401C0849086008480068401CAE
:1050200006490860FBF768FE10BD0000F80E00207E
:1050300068000020700000202C00002008000020E4
:1050400010B51348006840F0010011490860084697
:105050004068104908400E494860084600680E49FB
:1050600008400B4908600846006820F4802008606A
:105070000846406820F4FE0048604FF41F00886036
:10508000FFF704FE4FF000600449086010BD000007
:10509000001002400000FFF8FFFFF6FE08ED00E000
:1050A0003EB5044601210846FDF704FD0120ADF898
:1050B000040024B941F61F40ADF8000016E0012CB1
:1050C00004D140F2CF20ADF800000FE0022C09D14E
:1050D0000C4800680C49B0FBF1F0401E80B2ADF8FE
:1050E000000003E041F61F40ADF800000020ADF8DD
:1050F00006001020ADF802006946800600F032F884
:105100003EBD0000D003002040420F0070B50446B1
:10511000A5B20121880700F013F829464FF080401E
:1051200000F01DF804E04FF0804000F015F805464F
:10513000012DF8DC00214FF0804000F001F870BD37
:1051400021B1028842F00102028004E002884FF699
:10515000FE731A40028070470146888C7047818434
:1051600070470000002202881D4B98420ED01D4B54
:1051700098420BD0B0F1804F08D01B4B984205D01D
:105180001A4B984202D01A4B984204D14FF68F73B3
:105190001A404B881A43174B984207D0164B984237
:1051A00004D04FF6FF431A40CB881A4302808B8805
:1051B00083850B8803850A4B98420BD0094B984294
:1051C00008D00E4B984205D00D4B984202D00D4BA3
:1051D000984201D10B7A0386012383827047000035
:1051E000002C014000340140000400400008004051
:1051F000000C00400010004000140040004001403E
:10520000004401400048014070B504460D460BE0E3
:105210002178084800F021FA00BF4021054800F03D
:105220004EF90028F9D0641C2800A5F10101CDB287
:10523000EED170BD0038014000B587B0012144F2C5
:105240000400FDF757FC4FF40070ADF8180018206B
:105250008DF81B0003208DF81A0006A92048FCF7E2
:1052600057FC4FF48060ADF8180004208DF81B0047
:1052700006A91B48FCF74CFC25208DF814000020E3
:105280008DF815008DF8160001208DF8170005A87F
:10529000FDF728F84FF4E13001900020ADF8080048
:1052A000ADF80A00ADF80C00ADF810000C20ADF818
:1052B0000E0001A90B4800F05FF9012240F22551D0
:1052C000084800F033F90121064800F0ECF81420FA
:1052D00000F05CFE4021034800F0DCF807B000BDA0
:1052E000000801400038014010B540F2255119482E
:1052F00000F0F2F868B3174800F0AAF9C4B22146EA
:10530000002002F037FC14480078002804DD124821
:105310000078401C104908700D2C06D10F4804700D
:105320000D480078401C0C4908700B480078022892
:105330000FD10A48447000200749087007480078D8
:105340000D2806D1054840780A2802D101200449D9
:10535000087010BD00380140660000206400002085
:10536000DE00002000B587B001210420FDF7C2FB5C
:1053700001214804FDF79EFB0420ADF81800182019
:105380008DF81B0003208DF81A0006A92348FCF7AE
:10539000BFFB0820ADF8180004208DF81B0006A9FB
:1053A0001E48FCF7B5FB26208DF8140000208DF870
:1053B000150001208DF816008DF8170005A8FCF7E0
:1053C00091FF4FF4E13001900020ADF80800ADF8F6
:1053D0000A00ADF80C00ADF810000C20ADF80E007E
:1053E00001A90F4800F0C8F8012240F225510C48ED
:1053F00000F09CF8012240F22441094800F096F8A0
:105400000121074800F04FF8142000F0BFFD4021B3
:10541000034800F03FF807B000BD0000000801405D
:105420000044004070B540F225510F4800F054F898
:1054300040B10D4800F00CF9C4B22146012002F041
:1054400099FB0FE040F22441074800F045F848B1CD
:1054500005480088C5B20448001D0088C5B2012077
:105460000249087070BD0000004400405500002053
:1054700010B540F22551064800F02EF838B1044826
:1054800000F0E6F8C4B22146022002F073FB10BD22
:105490000048004001F40072B2F5007F00D100BF67
:1054A000CA430280704721B1828942F4005282814E
:1054B00004E082894DF6FF731A40828170470246EC
:1054C0000020B1F5007F00D100BF13880B400BB165
:1054D000012000E00020704770B502460024002340
:1054E0000025002040F66A16B14200D100BFC1F38A
:1054F000421501F01F03012606FA03F3012D02D124
:105500009689334006E0022D02D1168A334001E02D
:10551000968A33400C12012606FA04F416883440A9
:1055200013B10CB1012000E0002070BDF0B50346BE
:10553000002400260025002040F66A17B94200D159
:1055400000BF1846C1F3421401F01F06012707FAF5
:1055500006F5012C01D10C3004E0022C01D11030F1
:1055600000E014301AB107682F43076002E00768B3
:10557000AF430760F0BD00002DE9F04786B0054657
:105580000E460024A24600BFA1460027B08900B104
:1055900000BF2F462C8A4CF6FF700440F08804436D
:1055A0002C82AC894EF6F3100440B0883189084350
:1055B000718908430443AC81AC8A4FF6FF40044034
:1055C000B0890443AC8201A8FDF7A4FA1F488742C2
:1055D00002D1DDF810A001E0DDF80CA0A88900F4EC
:1055E000004040B10AEBCA0000EB0A1031684900E4
:1055F000B0FBF1F807E00AEBCA0000EB0A103168D3
:105600008900B0FBF1F86420B8FBF0F00401200938
:10561000642101FB1089A88900F4004040B13220C8
:1056200000EBC900B0FBF1F000F00700044308E014
:10563000322000EB09106421B0FBF1F000F00F0004
:1056400004432C8106B0BDE8F0870000003801401B
:1056500001468888C0F308007047C1F308028280C1
:10566000704700BFFEE710B5044621460020FCF756
:1056700015FD10BD10B5044621464020FCF70EFD77
:1056800010BD00000FB4054B10B503A9044A0298E1
:1056900000F0E0F810BC5DF814FB00005960000851
:1056A000F80300200FB4084B10B504A902AA039810
:1056B00000F0D0F8044602A9002000F062FC204669
:1056C00010BC5DF814FB0000835F000802E008C80E
:1056D000121F08C1002AFAD170477047002001E06C
:1056E00001C1121F002AFBD1704780F31088704758
:1056F0002DE9FF5FDDE90220010DDDF838B002433E
:1057000018D044F61050A1F2FF3141430D140F9808
:10571000012820D0A5EB0B00401C5FEA000A4FF0E7
:105720000004474EDFF81C91A046504616D5CAF13A
:10573000000728E00F98012443A2012808D0002187
:1057400000980F9BC0E90021C0E90243BDE8FF9F1C
:105750006FEA0B01F4E7CBF10000DEE7074612E049
:10576000F80707D02246334640464946FAF74AFE34
:10577000804689462246334610461946FAF742FECD
:1057800004460E467F10002FEAD1DDE90201BAF18E
:10579000000F42464B4602DAFAF734FE01E0FAF710
:1057A000A3FE04460E460022284BFBF739F903D826
:1057B0004FF0FF30014607E00022254B20463146DE
:1057C000FAF779FDFBF714F9102409E0002C0ADB45
:1057D0000A220023FAF7D2FF019B30321A55641EC9
:1057E00050EA0102F2D1641C019AC4F1110314447D
:1057F0000F9A012A03D0012208430DD10AE0084381
:1058000004D000204FF0110B0F9080E7A3EB0B05A5
:105810006D1E0DE05B4504DD4FF0000205F1010552
:1058200004E003DA4FF00002A5F10105002AECD0F4
:1058300000980F99C0E90231C0E9004586E70000F1
:10584000000024400000F03F300000000000F04362
:105850000000E03F2DE9FF4F95B09B468946064684
:1058600000250FE2252877D100242746F84A012198
:10587000059400E0044316F8013F203B01FA03F0D1
:105880001042F7D130782A2811D06FF02F033078EA
:10589000A0F13002092A16D8059A44F0020402EB5E
:1058A000820203EB42021044761C0590EFE759F8A0
:1058B000042B0592002A03DA504244F40054059068
:1058C00044F00204761C30782E2816D116F8010F09
:1058D00044F004042A280DD06FF02F023078A0F194
:1058E0003003092B09D807EB870302EB4303C718E2
:1058F000761CF3E759F8047B761C30786C280FD0BF
:1059000006DC4C2817D068280DD06A2814D104E092
:10591000742810D07A280FD10DE044F400140AE066
:1059200044F4801401E044F440147278824202D1BD
:1059300004F58014761C761C307866280BD013DCB6
:10594000582877D009DC002875D04528F6D046289D
:10595000F4D047281AD19DE118E0632835D0642897
:1059600079D0652812D195E1702873D008DC6728BA
:10597000F1D069286FD06E280DD06F2806D1B5E020
:1059800073282CD0752875D0782874D05A4617996A
:1059900090476D1C75E1C4F30250022809D003281A
:1059A0000DD0D9F8001004280DD00D6009F10409BC
:1059B00067E1D9F80010EA17C1E90052F6E7D9F813
:1059C00000100D80F2E70D70F0E719F8041B8DF858
:1059D000001000208DF80100EA46012003E059F88C
:1059E00004AB4FF0FF3061074FF0000102D40DE02F
:1059F00008F101018846B9420FDA8045F8DB1AF850
:105A000008100029F4D108E008F10101884681421C
:105A1000FADB1AF808100029F6D105985B46A0EBCE
:105A2000080721463846179A00F094FA284400EBFC
:105A3000080507E04DE029E10DE01AF8010B5A4690
:105A400017999047B8F10108F7D25B4621463846CE
:105A5000179A13E142E00A220092C4F302524FF077
:105A6000000A022A08D059F804CB032A4FEAEC7145
:105A70000AD00DE029E02AE009F1070121F0070230
:105A8000F2E802C1914609E00FFA8CFC4FEAEC7192
:105A9000042A03D14FFA8CFC4FEAEC71002907DA93
:105AA0000A460021DCF1000C61EB02012D2202E02C
:105AB000220504D52B228DF80420012203E0E20701
:105AC00001D02022F7E7904659E00A2102E0102297
:105AD0000DE010214FF0000A00910BE010224FF072
