:020000040800F2
:10000000104200200101000865210008211D0008A0
:1000100019200008CB1100087F53000800000000E1
:10002000000000000000000000000000F52D0008A6
:10003000A5140008000000006D260008314D0008DE
:100040001B0100081B0100081B0100081B01000820
:100050001B0100081B0100081B0100081B01000810
:100060001B0100081B0100081B0100081B01000800
:100070001B0100081B0100081B0100081B010008F0
:100080001B0100081B0100081B0100081B010008E0
:100090001B0100081B0100081B0100081B010008D0
:1000A0001B0100081B0100081B0100081B010008C0
:1000B0001B0100081B0100081B0100081B010008B0
:1000C0001B0100081B0100081B0100081B010008A0
:1000D0001B01000839500008695100088D510008C3
:1000E0001B0100081B0100081B010008DFF80CD0F1
:1000F00000F0DAFC00480047E162000810420020EE
:100100000648804706480047FEE7FEE7FEE7FEE7B1
:10011000FEE7FEE7FEE7FEE7FEE7FEE7C14D00086B
:10012000ED000008014610B509683C22B1FBF2F36E
:1001300002FB1313B1FBF2F11D480360B1FBF2F3B4
:1001400002FB1313B1FBF2F118224360B1FBF2F38F
:1001500002FB1313B1FBF2F183600A1D0723B2FB0C
:10016000F3F403FB142282618A0040F2B55102F6D7
:100170006C32B2FBF1F344334361B2FBF1F301FBA8
:1001800013218908C1613B2903D3027D920700D066
:10019000491C0022074C13460261E25C8A4203D8E4
:1001A000891A5B1C0361F8E7491CC16010BD00009F
:1001B000E41D0020DC85000840EA01039B0703D012
:1001C00009E008C9121F08C0042AFAD203E011F896
:1001D000013B00F8013B521EF9D27047D2B201E058
:1001E00000F8012B491EFBD270470022F6E710B53C
:1001F00013460A4604461946FFF7F0FF204610BD95
:10020000421C10F8011B0029FBD1801A704730B541
:1002100004460020034600E05B1C934203D2E05CEE
:10022000CD5C401BF8D030BD034611F8012B00F81F
:10023000012B002AF9D11846704770B5064605F023
:10024000D3F8046805460A220021304600F0ECFA93
:100250002C6070BD30B480EA010202F0004530F03D
:10026000004221F0004013D090B1C30DD40DC2F371
:100270001601C0F31600E41A41F4000140F4000234
:100280007D34914201D3641C00E04900002C02DA65
:1002900030BC002070474FF400000023914201D38E
:1002A000891A034340084FEA4101F7D151B1914205
:1002B00002D14FF0004105E002D24FF0010101E010
:1002C0006FF0010103EBC450284430BC00F0E4BAE5
:1002D0002DE9FE4F804681EA0300C00F0C460090D6
:1002E00021F0004123F00045B8EB0200A94105D2FE
:1002F0004046214690461C460B46024623F00040ED
:10030000104347D0270DC7F30A00C3F30A510290E8
:10031000401A019040286BDAC3F3130040F4801BAD
:100320000098924620B10023D2EB030A63EB0B0B3B
:1003300001985946C0F14002504600F044FA064682
:100340000D4650465946019A00F05CFA10EB080041
:100350006141002487EA115284EAE7731A4340D0CE
:10036000009A62B3019A012A4FEA075215DC001B7A
:1003700061EB02014FF0004202EA0752CDE9004270
:10038000001C41F5801132462B4600F0CBFA03B039
:10039000BDE8F08F40462146F9E7001B61EB020102
:1003A000001C41F5801300185B412018A2F50017CE
:1003B00047EB030140EAD570B6196D4111E06D08B5
:1003C0004FEA360645EAC0754FEA0752001B61EB5B
:1003D0000201001C41F5801149084FEA3000001964
:1003E000514132462B4603B0BDE8F04F00F08BBAC6
:1003F0000098012240000023D0EB020263EBE0737F
:10040000009821464FEAE074B8EB000061EB04016C
:10041000E9E783F000435BE781F0004158E72DE90D
:10042000FE4F81EA030404F0004421F000410094EF
:100430004FF0000B23F0004350EA01045ED052EA73
:1004400003045BD0C3F30A54C1F30A552C44A4F24D
:10045000F3340194A0FB0254C1F3130141F4801161
:10046000C3F3130343F4801301FB024400FB034E68
:10047000840A970A44EA815447EA8357A4FB076831
:1004800002958D0A05FB07854FEA932C04FB0C545B
:100490002705029D4FEA065847EA1637B5EB0805CF
:1004A0006EEB070C870E920E47EA811742EA831221
:1004B000A7FB0201B6EB0B0164EB00042B0D43EA32
:1004C0000C335E1844EB1C50DA465146E7FB020140
:1004D000C5F313044FEA0B3343EA14534FEA0432D3
:1004E000019C43EA0603A4F10C040294009CCDE9AC
:1004F00000B400F017FA03B0BDE8F08F0020014609
:10050000F9E72DE9F04D81EA030404F0004B21F0F6
:10051000004514464FF0000A23F0004150EA05025E
:1005200020D054EA01021DD0C5F30A570246C5F394
:100530001303C1F31300C1F30A5640F4801543F4CA
:100540008013A7EB0608101BD64608F2FD3873EBA4
:10055000050002D308F1010801E092185B41B8F1EF
:10056000000F03DA00200146BDE8F08D00204FF4B3
:100570008011064684460EE0171B73EB050705D372
:10058000121B63EB050306434CEA010C49084FEAD2
:10059000300092185B4150EA0107EDD152EA0300A6
:1005A00012D082EA040083EA0501084305D0101B3B
:1005B000AB4106D20122002306E000224FF00043A7
:1005C00002E06FF0010253101AEB06004CEB0851E9
:1005D00010EB0A0041EB0B01BDE8F04D00F093B9C0
:1005E000C10F80EAE0700844CA079623002100F09A
:1005F0005CB996230022114600F057B90EB5C10F21
:1006000080EAE0700844CA07002140F233438DE8D5
:100610000E000A460B4600F085F903B000BD0EB58A
:1006200040F2334102910021CDE900110A460B4608
:1006300000F078F903B000BD70B5C1F30A5201F0C3
:1006400000450024C1F3130140F2FF3341F480114F
:100650009A4201DA002070BD40F233439A42A2F27E
:10066000334203DC524200F0BDF800E090402C43DE
:10067000F1D0404270BDC1F30A5210B5C1F313016D
:1006800040F2FF3341F480119A4201DA002010BD9C
:1006900040F233439A42A2F2334203DC524200F06A
:1006A000A1F810BD904010BD00F0004230F00040B5
:1006B0000AD0C10D01F56071C0F3160042EA015184
:1006C000C2084007114370470020014670470000F0
:1006D00030B5041E71F1000404DB4FF000444042C9
:1006E00064EB0101141E73F1000405DB1C464FF09E
:1006F0000043524263EB04038B4208BF824230BD89
:1007000001F0004330B421F0004150EA010206D06C
:100710000A0DA2F56072C1F31301002A02DC30BC9D
:1007200000207047440F44EAC104C100E01830BC07
:1007300000EBC25000F0B0B830B50B4601460020C7
:100740002022012409E021FA02F59D4205D303FA93
:1007500002F5491B04FA02F52844151EA2F1010214
:10076000F1DC30BD2DE9F05F0546002092469B4646
:1007700088460646814640241BE0284641464746B7
:10078000224600F02FF853465A46C01A914110D322
:1007900011461846224600F016F82D1A67EB01089C
:1007A0004F4622460120002100F00DF817EB00090A
:1007B0004E41201EA4F10104DFDC484631462A46A2
:1007C0004346BDE8F09F202A04DB203A00FA02F1FC
:1007D000002070479140C2F1200320FA03F319432F
:1007E00090407047202A04DB203A21FA02F00021D1
:1007F000704721FA02F3D040C2F120029140084331
:1008000019467047202A06DBCB17203A41FA02F03E
:1008100043EAE07306E041FA02F3D040C2F120025D
:1008200091400843194670472DE9F04791460F461D
:1008300080460446002614F8015B2DB100F046F90D
:100840000068405DC007F6D12B2D02D02D2D18D0A9
:10085000641E4A463946204600F03CF927B1396803
:10086000A14201D1C7F8008071054FF002040BD5F9
:100870004042002803DD04F0B7FD0460A007BDE896
:10088000F08746F48066E4E70028F8DA04F0ACFD6F
:1008900004606FF00040F2E70029A8BF7047401CD9
:1008A000490008BF20F00100704710B4B0FA80FC86
:1008B00000FA0CF050EA010404BF10BC704749B1C3
:1008C000CCF1200421FA04F411FA0CF118BF012133
:1008D00021430843A3EB0C01CB1D4FEA00614FEA13
:1008E000102042BF002010BC704700EBC3501044E2
:1008F0000029A4BF10BC7047401C490008BF20F06D
:10090000010010BC704710B5141E73F1000408DA22
:10091000401C41F1000192185B411A4301D120F0C3
:10092000010010BD2DE9F04D92469B4611B1B1FA80
:1009300081F202E0B0FA80F220329046FFF743FFE6
:1009400004460F4640EA0A0041EA0B0153465A4664
:10095000084313D0114653EA010019D0C8F14002F0
:100960005046FFF73FFF05460E4650465946424661
:10097000FFF729FF084305D0012004E0204639464F
:10098000BDE8F08D0020054346EAE0762C4337436E
:100990000A986305E40AA0EB08000022FD0A44EA75
:1009A00047540A3002D500200146E9E70105101935
:1009B0006941DDE9084500196941BDE8F04DA2E74C
:1009C0002DE9F041054621F000400C46284309D0AE
:1009D000C4F30A5040F23341884205DD28462146DF
:1009E000BDE8F0812846FBE740F2FE31884210DC8A
:1009F0000CDB4FEA043040EA155050EA053105D0CF
:100A0000104804F0004101430020E9E700200146BE
:100A1000E6E7A0F233404642C6F1400228462146AE
:100A2000FFF7D1FE07468846284621463246FFF7A3
:100A3000D9FE43463A46FFF766FF3246BDE8F0412D
:100A4000FFF7C1BE0000F03FC1F30A52C1F313012A
:100A500040F2FF3341F480119A4202DA002001464D
:100A6000704740F233439A42A2F2334202DC5242D0
:100A7000FFF7B8BEFFF7A7BE30B5041E71F1000442
:100A800004DB4FF00044404264EB0101141E73F19B
:100A9000000405DB1C464FF00043524263EB0403A5
:100AA000994208BF904230BD064C074D06E0E06811
:100AB00040F0010394E8070098471034AC42F6D3A5
:100AC000FFF718FB048700082487000800487047D8
:100AD0006C8600082DE9F05F8246007800271546F5
:100AE0008B460AF10104B946302801D09DB113E0CC
:100AF00014F8010B0127782803D0582801D045B1FC
:100B00000AE00DB1102D07D10027102514F8010BB4
:100B100002E0082500E00A250026B0460EE005FBAD
:100B2000080005FB06F1012701EB10461FFA80F8CB
:100B3000B6F5803F00D3B94614F8010B294600F002
:100B400018F80028EBDABBF1000F05D00FB1641ED6
:100B500000E05446CBF80040B9F1000F06D004F095
:100B600043FC02210160C81EBDE8F09F48EA064030
:100B7000FAE73A2800D2303820F02002412A01D387
:100B8000A2F13700884201D34FF0FF30704770B5B3
:100B90008C1810F8015B15F0070301D110F8013B28
:100BA0002A1106D110F8012B03E010F8016B01F8AF
:100BB000016B5B1EF9D12B0705D40023521E0DD407
:100BC00001F8013BFAE710F8013BCB1A921C03E055
:100BD00013F8015B01F8015B521EF9D5A142D8D38D
:100BE000002070BD21B1826842F00102826003E002
:100BF000826822F0010282607047000000B587B071
:100C000001214FF4047001F0ADFE0220ADF8180090
:100C100000208DF81B0006A91D4800F079FE002079
:100C2000019001208DF808008DF809004FF4602034
:100C300003900020049001208DF8140001A91548AC
:100C400000F04EF8052301220921124800F070F847
:100C50000121104800F020F801210E48FFF7C2FFE3
:100C60000C4800F0C1F800BF0A4800F02EF8002838
:100C7000FAD1084800F0C8F800BF064800F017F89D
:100C80000028FAD10121034800F0B3F807B000BDF5
:100C9000000C01400024014021B1826842F48072BE
:100CA000826003E0826822F48072826070470146AD
:100CB00000208A6802F004020AB1012000E000204E
:100CC00070470146C86C80B27047014600208A68B0
:100CD00002F008020AB1012000E000207047000085
:100CE00030B502460020002350680F4C20400D799B
:100CF0000C6844EA05242043506090680B4C204067
:100D0000D1E902542C434D7944EA450420439060D4
:100D1000D06A20F470000C7C641EE4B2234340EAE5
:100D20000350D06230BD0000FFFEF0FFFDF7F1FF81
:100D3000F0B504460D4600200021092D11DDE068C4
:100D4000A5F10A0606EB4607072606FA07F18843CF
:100D5000A5F10A0606EB460603FA06F10843E06031
:100D60000CE0206905EB4507072606FA07F18843E2
:100D700005EB450603FA06F108432061072A0FDA5E
:100D8000606B561E06EB86071F2606FA07F188439E
:100D9000561E06EB860605FA06F10843606322E05C
:100DA0000D2A0FDA206BD61F06EB86071F2606FAE0
:100DB00007F18843D61F06EB860605FA06F10843BD
:100DC000206310E0E06AA2F10D0606EB86071F26FD
:100DD00006FA07F18843A2F10D0606EB860605FA2E
:100DE00006F10843E062F0BD816841F008018160CE
:100DF000704721B1826842F4A002826003E08268F9
:100E000022F4A00282607047816841F00401816091
:100E10007047000070B51348FFF753FF1249134A9B
:100E2000128821F8120011480088401C80B20F4936
:100E30000880142801DB002008800025002405E03C
:100E4000094830F814000544601C84B2142CF7DB08
:100E50001420B5FBF0F00649088001210148FFF796
:100E6000C8FF70BD00240140580A00205000002037
:100E70001800002010B50E48FFF7C2F984B22246D0
:100E80000B49012006F002FC012006F0A3FB02231F
:100E900008A20021084601F049FB02235F2200213D
:100EA000572001F012FA00200449087010BD00001C
:100EB000680500204254204F464600004E000020A6
:100EC00070B58EB000250DE01D48FFF799F986B288
:100ED00032461B49012006F0D9FB012006F07AFBBF
:100EE000681CC5B23C2DEFDB4FF4FA7004F0E0FE55
:100EF000012006F0D3FAC4B2022C1EDB224601A95F
:100F0000012006F001FB601F01A9085C4F2814D1E5
:100F1000201F085C4B2810D102230AA2002108469A
:100F200001F004FB094802235F22002100905720B2
:100F300001F0FFF90120064908700EB070BD0000F5
:100F4000730500204254204F4E0000001003002083
:100F50004E00002038B5044606A0006800908DF8C9
:100F6000014003226946012006F090FB012006F0B3
:100F700031FB38BDFF00F00030B58DB0012006F028
:100F80008DFAC5B2062D15DB2A466946012006F00A
:100F9000BBFA6C462078FF280CD16079F02809D183
:100FA000D4F8010000BA00F5E140034908600020D0
:100FB000FFF7D0FF0DB030BD0800002010B50020B5
:100FC0000A49087002230AA20021084601F0AEFA7D
:100FD0004FF40061094800F07AFD642004F068FED7
:100FE0004FF40061054800F070FD10BD4D00002079
:100FF00042555A5A204F4646000000000008014062
:1010000010B501200A49087002230AA200210846EF
:1010100001F08CFA4FF40061084800F058FD64209C
:1010200004F046FE4FF40061044800F04EFD10BD90
:101030004D00002042555A5A204F4E0000080140F2
:1010400038B500F04BFD05B240F6E4406843C0EB14
:10105000C000400040F6FF71B0FBF1F00B21B0FB87
:10106000F1F004B23D48B0F90000201A32280DDA40
:101070003A48B0F90000001B3849B1F90010401A95
:10108000322803DA36480078012865D10020344937
:10109000087040F6EC60844208DB324802237F226D
:1010A00000210090622001F044F953E040F67460A2
:1010B000844208DB2C4802237F220021009062201A
:1010C00001F037F946E040F6AC50844208DB27488F
:1010D00002237F2200210090622001F02AF939E0EA
:1010E00040F64850844208DB214802237F22002139
:1010F0000090622001F01DF92CE040F61650844269
:1011000008DB1C4802237F2200210090622001F0AE
:1011100010F91FE040F6EE4084420EDB1548022332
:101120007F2200210090622001F003F9022312A225
:101130000421182001F0FAF90CE001F0AEF94FF4A7
:101140008051144800F0C1FC002003F0ABF80020EF
:1011500002F032FF0148048038BD000090050020F5
:101160004F000020B4010020EE01002028020020E2
:10117000620200209C0200204C6F7720506F776540
:10118000722C506C656173652043686172676521DC
:10119000000000000008014010B500F069FB04F0F9
:1011A000A1FD03F0F1FE03F085FF03F071FD05F0F2
:1011B000A7FD00F0D9FD01F013F9FFF71FFD022094
:1011C00003F02EFE00F0CFFF10BD00BFFEE70000D1
:1011D00038B500200090002425E04FF480711C48B1
:1011E00000F06AFC9DF800100844C0B28DF80000C1
:1011F0004FF40061174800F05FFC9DF801100844AF
:10120000C0B28DF801004FF48061124800F054FC28
:101210009DF802100844C0B28DF80200142004F0BA
:1012200047FD601CC4B2072CD7DB00200CE01DF882
:101230000010022903DC0121074A115402E00021B9
:10124000054A1154411CC8B20328F0DB38BD000028
:1012500000080140000C01408305002010B54FF448
:101260000041024800F028FC044610BD000801407F
:101270000548006820F4807003490860084600684B
:1012800040F4807008607047140C01400548006805
:1012900020F00F00034908600846006840F0040091
:1012A00008607047040C01400548006820F00F00FA
:1012B000034908600846006840F003000860704772
:1012C000040C01400548006820F480700349086060
:1012D0000846006840F4807008607047100C0140B8
:1012E0002DE9F04F91B082468B46342103A8FEF7DA
:1012F0007CFF00266AE00AEB4614711C36A004F05D
:101300004FF841A004F04CF84FF0000909E0E01C50
:1013100010F809103DA004F043F809F1010000F0B5
:10132000FF09B9F1090FF2DB36A004F039F8E068E3
:10133000FFF75FF937490190FEF78CFF0290FFF746
:10134000B3F907463A460B4633A004F029F8206962
:10135000FFF74FF92F490190FEF77CFF0290FFF74E
:10136000A3F907463A460B462DA004F019F894F964
:1013700014102DA004F014F8B4F915102DA004F0E9
:101380000FF8B4F817102FA004F00AF8B4F81910E9
:101390002FA004F005F8D4F81B00109010A8FEF759
:1013A000C1FE0546D5E901212868CDE90012029069
:1013B000D5E90330421C686900F26C7128A003F083
:1013C000EFFF30A003F0ECFF701C86B25E4592DBAD
:1013D00011B0BDE8F08F00002A2A2A2A2A2A2A2AD8
:1013E0002A2A2A2A2A2A2A2A2A2A2A2A2A2A2A2A5D
:1013F0002A2A2A0D0A486973746F72795258436E0B
:10140000743A25640D0A000049443A0025303258E8
:10141000000000008096184B453A2025660D0A0012
:101420004E3A2025660D0A00534E523A2025646438
:10143000420D0A00525353493A256464426D0D0A25
:10144000000000005278436E743A25640D0A0000D3
:10145000546F74616C5278436E743A25640D0A00BF
:1014600054696D653A25642D253032642D2530325E
:101470006420253032643A253032643A25303264B3
:101480000D0A00002A2A2A2A2A2A2A2A2A2A2A2A4D
:101490002A2A2A2A2A2A2A2A2A2A2A2A2A2A2A0DC9
:1014A0000A000000704700002DE9F0438FB00446A9
:1014B000342102A8FEF799FE4FF00408A078012815
:1014C00007D12B48007808B9012000E00020284906
:1014D000087027480078002834D126480068FFF7B4
:1014E0007FF881462449FEF7B5FE0546FFF7DCF894
:1014F000064632460B4621A102A803F061FF0223F3
:1015000002AA1946002001F011F81F4800683C218A
:10151000B0FBF1F52A461DA102A803F051FF0223FA
:1015200002AA0421002001F001F81C4802881CA135
:1015300002A803F045FF022302AA0621002000F0C2
:10154000F5FF12E01A48C07819498978CDE90010F2
:1015500017484378027817A102A803F031FF02234D
:1015600002AA1946002000F0E1FF0FB0BDE8F083A9
:10157000C40400208C00002000401C4654656D709F
:101580003A25302E326627002C00002052756E540A
:10159000696D653A25646D696E00000044000020A5
:1015A000566F6C746167653A25646D5600000000E3
:1015B0000C0000204657205265763A25642E25649B
:1015C0002E25642E2564000010B58AB0202102A8C3
:1015D000FEF70BFE002409E0102101EB0411C8B254
:1015E0002246002100F078FF601CC4B2062CF3DB19
:1015F000012317A20321002000F098FF1A48C078A9
:1016000019498978CDE9001017484378027817A165
:1016100002A803F0D5FE012302AA0421002000F055
:1016200085FF202102A8FEF7E0FD16A218A102A85E
:1016300003F0C6FE012302AA0521002000F076FF78
:10164000012303A20621002000F070FF0AB010BDA4
:101650002A2A2A2A2A2A2A2A2A2A2A2A2A2A2A2AEA
:101660002A2A2A2A2A0000000C0000202A20465795
:10167000205265763A2025642E25642E25642E2579
:10168000640000004175672033302032303137006C
:101690002A205265446174653A20257300000000D9
:1016A00010B50821014800F010FA10BD000C0140EF
:1016B00010B50821014800F00AFA10BD000C0140E5
:1016C00030B5044604254FF4302000F0A1F805465B
:1016D000042D17D10C48006940F002000A49086146
:1016E00008464461006940F0400008614FF4302032
:1016F00000F08EF805460448006941F6FD71084087
:1017000001490861284630BD0020024004200B49F1
:10171000C96801F0010109B101200EE00749C9685B
:1017200001F0040109B1022007E00449C96801F091
:10173000100109B1032000E004207047002002409E
:101740000348006940F080000149086170470000CB
:101750000020024001B500200099C1F309021AB12E
:10176000012202EB912000E0880A08BD10B5FFF7C6
:10177000E7FF10BD70B504460D460426F00200F0E8
:1017800047F80646042E11D10948006940F00100CF
:10179000074908612580F00200F03AF8064604483F
:1017A000006941F6FE71084001490861304670BD8C
:1017B0000020024073B582B00446042500260020B4
:1017C000019000F019F80398FFF7C4FF06460AE0FD
:1017D0004FF48062019902FB0140FFF771FF05465B
:1017E0000198401C01900198B04201D2042DEFD025
:1017F000284604B070BD0000024803494860034811
:10180000486070472301674500200240AB89EFCD57
:1018100000B502460423FFF779FF034603E0FFF714
:1018200075FF0346521E012B01D1002AF7D102B9E0
:101830000523184600BDF8B506460C461746354642
:1018400000940EE029880098FFF794FF28880099FB
:101850000988884201D00020F8BDAD1C0098801C8A
:101860000090E01900998842ECD80120F4E70000CC
:1018700008B50121042001F075F80121082001F0CC
:1018800071F80121102001F06DF80121084601F0E6
:1018900069F801211B4800F0C7F84FF4C050ADF8BB
:1018A000000003208DF8020010208DF80300694627
:1018B000154800F02DF84FF40140ADF8000003206A
:1018C0008DF8020004208DF8030069460E4800F0F0
:1018D0001FF84FF44060ADF8000003208DF80200BF
:1018E00004208DF803006946084800F011F84FF411
:1018F0008051054800F0E9F84FF40061024800F01B
:10190000E4F808BD0002300000080140000C01406E
:101910002DE9F04102460025002600200023002486
:10192000002791F803C00CF00F0591F803C00CF0EC
:10193000100CBCF1000F03D091F802C04CEA050571
:1019400091F800C0BCF1000F31D0146800202BE0EA
:101950004FF0010C0CFA00F3B1F800C00CEA0306DA
:101960009E4220D183004FF00F0C0CFA03F7BC43CA
:1019700005FA03FC4CEA040491F803C0BCF1280FFB
:1019800006D14FF0010C0CFA00FCC2F814C00AE0BA
:1019900091F803C0BCF1480F05D14FF0010C0CFACF
:1019A00000FCC2F810C0401C0828D1D31460B1F864
:1019B00000C0BCF1FF0F34DD546800202EE000F1C0
:1019C000080C4FF0010808FA0CF3B1F800C00CEA5B
:1019D00003069E4221D183004FF00F0C0CFA03F74F
:1019E000BC4305FA03FC4CEA040491F803C0BCF1C3
:1019F000280F05D100F1080C08FA0CF8C2F8148081
:101A000091F803C0BCF1480F07D100F1080C4FF06A
:101A1000010808FA0CF8C2F81080401C0828CED340
:101A20005460BDE8F0810000F0B50A4600230024B0
:101A30000021002500F00046B6F1004F02D11D4EF6
:101A4000F16901E01B4E7168C0F3034583B200F4F5
:101A50004016B6F5401F08D121F07061154E76682A
:101A600026F07066134F7E6012E000F48016B6F523
:101A7000801F06D1032606FA05F4A14341F07061E8
:101A800006E0460D360103FA06F6B14341F07061F7
:101A900022B1460D360103FA06F6314300F0004646
:101AA000B6F1004F02D1034EF16101E0014E7160C9
:101AB000F0BD0000000001400246002093680B408A
:101AC0000BB1012000E000207047416170470161C7
:101AD00070470AB1016100E041617047012080F365
:101AE000108800BF03480188002080F3108800BFE1
:101AF000084670471800002000B5FFF7C7FB0648EE
:101B0000006882B202F48070B0F5807F01D10120BC
:101B100000BD0020FCE70000080C014005490968F1
:101B2000016004490831096841600249091D0968DA
:101B300081607047E8F7FF1F70B5002065490860B5
:101B400004F0ACFBCC2005F0C1FEBE2005F0BEFECB
:101B500004F068FF054604F065FF044604F062FFE8
:101B60005D49086004F05EFF5C49086004F05AFFBC
:101B70005B49086004F056FF5A49086004F052FFC0
:101B80005949086004F04EFF5849086004F04AFFC4
:101B900057490860072C19DD01205649087045EAAD
:101BA00004204C49086008460068C043401C086097
:101BB0000846006840F271214843464908600846DB
:101BC0000068A0F543405038086013E00020494900
:101BD000087045EA04203F4908600846006840F262
:101BE000712148433B49086008460068A0F543401E
:101BF00050380860374800683F4990FBF1F03F4992
:101C00000860344800683C4990FBF1F201FB120087
:101C10003B4990FBF1F0394948602E48006842F298
:101C2000107190FBF1F0642190FBF1F201FB1200C6
:101C30000A2190FBF1F201FB12003049886025482F
:101C4000006842F2107190FBF1F201FB12004FF4B8
:101C50007A7190FBF1F0294908611E4800684FF441
:101C60007A7190FBF1F201FB1200642190FBF1F01C
:101C70002249486108460068642148431F49496871
:101C800001EB810100EB41001C49896808441B49B4
:101C9000C860084600694FF47A714843174949699A
:101CA00001EBC10202EB011100EB810013498969CC
:101CB00001EB810100EB41001049C96908440F495B
:101CC00008620846007B0F4908700C48008C0E49DA
:101CD000088070BD8C0000206C0000207000002087
:101CE00074000020780000207C000020800000208C
:101CF000840000209000002040420F00F00A0020E5
:101D0000A0860100910000209200002010B504F090
:101D1000C5FACC2005F0DAFD442005F0D7FD10BD52
:101D200000BFFEE770B50246002400250023002016
:101D3000958A138B1B0445EA030626F07F4404EAC8
:101D400001068E4201D1012000E0002070BD21B1CA
:101D5000028842F00102028004E002884FF6FE731E
:101D60001A4002807047000000B585B00121480587
:101D700000F0D8FD0121082000F0F4FDC020ADF8EE
:101D8000000003208DF802001C208DF80300694636
:101D90001148FFF7BDFD114800F024F80020ADF810
:101DA00008004BF6FF70ADF80A003020ADF80C00CB
:101DB0004FF48060ADF80E000001ADF81000084847
:101DC000019001210548FFF7C2FF01A9034800F077
:101DD0005BF805B000BD0000000C0140005400405D
:101DE000801A060010B504460B48844209D101212F
:101DF000480500F0A7FD00214FF4001000F0A2FDFF
:101E000008E00121880500F09DFD00214FF48000CD
:101E100000F098FD10BD00000054004021B1028880
:101E200042F48072028004E002884FF6FF631A4099
:101E30000280704721B1028842F40072028004E0FF
:101E400002884FF6FF531A40028070470CB50246D5
:101E5000002000230193009300920B0F019321F0C7
:101E60007F41019B1BB1009B1433009303E0090CDD
:101E7000009B18330093009B1B680B400BB10120A3
:101E800000E000200CBD00002DE9F04385B00446C1
:101E90000D460026B1460427DFF8CC80A6884FF611
:101EA000C0700640684600F06DFDDDF808802F48E0
:101EB000B8FBF0F01FFA80F946EA0906A6802088F0
:101EC0004FF6FE7108402080002629492868884284
:101ED0000CD828684000B8FBF0F087B2042F00DA75
:101EE00004273E4309F10100208427E0E8884BF6EF
:101EF000FF71884206D1286800EB4000B8FBF0F083
:101F000087B209E0286800EBC00101EB0010B8FBC4
:101F1000F0F087B247F48047C7F30B0008B947F0E9
:101F2000010747F4004006434FF4967009FB00F0A8
:101F30004FF47A7190FBF1F0401C2084A683208836
:101F400040F00100208026884FF6F5300640A88832
:101F50006989084306432680A88929890843208186
:101F600005B0BDE8F083000000127A0040420F0087
:101F7000A086010012B141F0010102E04FF6FE73AC
:101F800019400182704701827047000070B5044615
:101F90000D4600BF4FF400311C48FFF757FF0028E3
:101FA000F8D101211948FFF739FF00BF1849174838
:101FB000FFF7B8FE0028F9D0002278211348FFF778
:101FC000D9FF00BF13491148FFF7ACFE0028F9D034
:101FD00021460E48FFF7D7FF00BF0E49891C0B486A
:101FE000FFF7A0FE0028F8D029460848FFF7CBFFEE
:101FF00000BF0849891C0548FFF794FE0028F8D067
:1020000001210248FFF716FF70BD00000054004098
:10201000010003008200070000BFFEE710B5044680
:10202000207801280FD100F01AF9474800680069AC
:1020300048B14548006800694349086000204349A9
:102040000870434908706078012834D100F007F91E
:102050003E48007800EB80003B49096801EB8000B6
:1020600080683C4988420AD03849097801EB8101EF
:10207000354A126802EB8101886880471BE03348CB
:10208000007800EB80003049096801EB8000C068EF
:1020900088B12E48007800EB80002B49096801EBDD
:1020A0008000C06828490860002028490870284935
:1020B000087029490870A07801280FD100F0CFF8E6
:1020C00022480078401C21490870084600782349BE
:1020D0000978884202D100201C4908701B4800780A
:1020E0001B490978884206DB19480078801C17498B
:1020F0000978884203DA15480078154908701649AE
:10210000097801EB8101104A126802EB810101227A
:10211000486813A1FEF77BF850B90C48007800EB33
:102120008000094A126802EB8000816820468847D7
:102130002078012805D06078012802D0A0780128F5
:1021400001D102F0D7FC10BDBC040020C104002066
:10215000C0040020AD600008C2040020C3040020B9
:1021600020000000704708B54FF4E06000F056F81A
:1021700025208DF8000001208DF801008DF8020067
:102180008DF80300684600F011F826208DF8000055
:1021900001208DF8010002208DF8020001208DF849
:1021A0000300684600F002F808BD000070B5002189
:1021B00000230F22C47804B3154C246804F4E064AF
:1021C000C4F5E064210AC1F10403CA40447804FA6A
:1021D00003F184781440214309010E4C0678A1557F
:1021E000047804F01F050124AC4005786D11AD00A2
:1021F00005F1E025C5F8004109E0047804F01F0569
:102200000124AC40044D0678761145F8264070BD97
:102210000CED00E000E400E080E100E00249014351
:10222000024A1160704700000000FA050CED00E062
:102230000648006800F4E06005490843001D0349B2
:102240000860BFF3408F00BFFEE700000CED00E028
:102250000000FA0510B5002000F0A5F810BD70B51B
:10226000002415E004F1B001C8B203F08AF80020A0
:1022700003F087F8102003F084F8002504E0002024
:1022800003F086F8681CC5B2432DF8DB601CC4B2AD
:10229000022CE7DB022415E004F1B001C8B203F020
:1022A00070F8002003F06DF8102003F06AF80025A4
:1022B00004E0002003F06CF8681CC5B2802DF8DB48
:1022C000601CC4B2082CE7DB70BD2DE9F047064660
:1022D0000F4690461C464FF0000AE11704EB51717F
:1022E000C910A4EBC10131B92046E11704EB5171CB
:1022F000C1F3C70506E02046E11704EB5171C91090
:10230000491CCDB23D4610E02946304600F0D0F8D9
:10231000B14606E0002003F03BF809F1010000F0AF
:10232000FF09C145F6DB681CC5B2A542ECDBBDE880
:10233000F0872DE9F05F06460F4690461C46DDF813
:1023400028A04FF0000BE11704EB5171C910A4EB6A
:10235000C10131B92046E11704EB5171C1F3C70542
:1023600006E02046E11704EB5171C910491CCDB2BB
:102370003D4614E02946304600F09AF8B1460AE09E
:1023800059460BF1010B1AF8010003F001F809F1AD
:10239000010000F0FF09C145F2DB681CC5B2A5428F
:1023A000E8DBBDE8F09F70B50646002415E004F1B7
:1023B000B001C8B202F0E5FF002002F0E2FF1020F9
:1023C00002F0DFFF002504E0304602F0E1FF681C68
:1023D000C5B2802DF8DB601CC4B2082CE7DB70BDF1
:1023E00010B54FF47A7003F063FCAE2002F0C9FF21
:1023F000202002F0C6FF102002F0C3FFB02002F040
:10240000C0FFC82002F0BDFF002002F0BAFF10207C
:1024100002F0B7FF402002F0B4FF812002F0B1FFCC
:102420007F2002F0AEFFA12002F0ABFFA62002F059
:10243000A8FFA82002F0A5FF3F2002F0A2FFA420E1
:1024400002F09FFFD32002F09CFF002002F099FFD2
:10245000D52002F096FFF02002F093FFD92002F081
:1024600090FF222002F08DFFDA2002F08AFF122076
:1024700002F087FFDB2002F084FF202002F081FFC2
:102480008D2002F07EFF142002F07BFFAF2002F0CF
:1024900078FF2E2002F075FF10BD10B58D2002F0E0
:1024A00070FF102002F06DFFAE2002F06AFF10BD39
:1024B00070B504460D4605F1B001C8B202F061FFE7
:1024C000102141EA141002F05CFF04F00F0141F00A
:1024D000010002F056FF70BD2DE9F04180460E4626
:1024E000174600247D0131464046FFF7E1FF00BF5B
:1024F00006E00D49485D02F04BFF6D1C601CC4B244
:10250000102CF6DB701CC1B24046FFF7D1FF00244F
:1025100006E00549485D02F03BFF6D1C601CC4B23B
:10252000102CF6DBBDE8F081940000202DE9F04787
:102530000646894617469A464FF0000800240025B3
:10254000BAF1010F06D0BAF1020F29D0BAF1030F88
:1025500025D15DE020E0785D203800F0FF087E2E78
:1025600004DD002609F1010000F0FF09494630466C
:10257000FFF79EFF002409E008EB4801384A02EB10
:102580004101085D02F004FF601CC4B2062CF3DBBD
:10259000B01DC6B2681CC5B2785D0028DBD15CE016
:1025A00032E0785D203800F0FF08782E04DD002648
:1025B00009F1020000F0FF0949463046FFF778FFB5
:1025C000002407E004EB0811264A505C02F0E0FE0C
:1025D000601CC4B2082CF5DB09F10100C1B2304621
:1025E000FFF766FF002408E004EB081108311D4ADC
:1025F000505C02F0CDFE601CC4B2082CF4DB06F186
:102600000800C6B2681CC5B2785D0028C9D124E0B4
:102610001FE0785D203800F0FF08782E04DD0026EA
:1026200009F1010000F0FF0949463046FFF740FF7D
:10263000002407E00C4901EBC801085D02F0A8FE88
:10264000601CC4B2082CF5DB06F10800C6B2681C99
:10265000C5B2785D0028DCD100BF00BFBDE8F087BF
:10266000027900082A7E00082A7B000870470000D3
:102670002DE9F041ADF5825D4FF480510FA8FDF7D3
:10268000B4FD0027444D05F1110404F11106D5F8FD
:102690000120042341F23C016944012005F0D7F8F0
:1026A00004223E4941F23C006844FDF7B0FD002899
:1026B00027D03B480768012005F0BEF8384800687D
:1026C000C11B38A002F06CFE344801680DF5805043
:1026D000C163D5F80120042300F13C01012005F07D
:1026E000CDF837A002F05CFE02233CA21946192067
:1026F000FFF71CFF02233CA204211920FFF716FF5D
:1027000046E0D4F801204FF480530FA9012005F0D2
:102710009EF800200AE00FA9095C582904D1364927
:102720000988491C344A1180411C88B2B0F5805F89
:10273000F1D3641CA068304909880844A060D6F829
:1027400009102D48008801EB4010C6F809002A48FE
:1027500001882AA002F024FE274802882CA102A8A2
:1027600002F02EFE022302AA04210020FFF7DEFE63
:10277000A16854F8010900F58050814208D1022374
:1027800026A206210020FFF7D1FE0120284908706B
:102790000DF5825DBDE8F081470300204003002075
:1027A00088050020457261736520666C617368203E
:1027B00074696D653A25646D732E0D0A0000000082
:1027C000496E697420666C6173682073746F7261FE
:1027D00067652073706163652E0D0A00496E697428
:1027E00020466C617368000053746F7261676520E6
:1027F00053706163652E00003000002048697374D7
:102800006F72795258436E743A25640D0A000000C5
:10281000485F5258436E743A25640000466C6173F9
:10282000682053746F726167652046756C6C210077
:102830003400002008B511A002F0B2FD1DA220A1B5
:1028400022A002F0ADFD2848C07800902648837889
:102850004278017825A002F0A3FD2A48806803BAD7
:102860002848406802BA2748006801BA26A002F04A
:1028700097FD02A002F094FD08BD00002A2A2A2A32
:102880002A2A2A2A2A2A2A2A2A2A2A2A2A2A2A2AA8
:102890002A2A2A2A2A2A2A2A2A2A2A2A2A2A2A2A98
:1028A0002A2A2A2A2A2A2A2A2A2A2A2A2A2A0D0AC5
:1028B0000000000031303A35363A30350000000073
:1028C0004175672033302032303137002A2052657D
:1028D0006C656173652044617465203A202573201E
:1028E00025730D0A000000000C0000202A20465726
:1028F000205265763A2025642E25642E25642E25E7
:10290000640D0A004C0600202A2048572049443A0A
:102910002025303858202530385820253038580D9B
:102920000A00000029B1064AD2690243044BDA6169
:1029300004E0034AD2698243014BDA617047000028
:102940000010024029B1064A12690243044B1A6181
:1029500004E0034A12698243014B1A617047000088
:102960000010024029B1064A92690243044B9A6161
:1029700004E0034A92698243014B9A617047000068
:102980000010024030B500210022002400232D4D0C
:102990006D6805F00C0121B1042905D0082923D167
:1029A00005E0294D056022E0274D05601FE0254D1B
:1029B0006D6805F47012234D6D6805F480340225AE
:1029C00005EB92421CB9214D554305600BE01D4DAE
:1029D0006D6805F400351DB11C4D5543056002E0DE
:1029E000194D5543056002E0174D056000BF00BF5B
:1029F000144D6D6805F0F0010909154D6B5C056813
:102A0000DD4045600F4D6D6805F4E061090A104D29
:102A10006B5C4568DD4085600A4D6D6805F460516A
:102A2000C90A0B4D6B5C4568DD40C560054D6D689E
:102A300005F44041890B074D6B5CC568B5FBF3F5A8
:102A4000056130BD0010024000127A0000093D000F
:102A5000A8050020B805002010B5002001F022FCD8
:102A6000022306A200210846FFF760FD022354223C
:102A700000214420FFF729FC10BD00005246204FE2
:102A80004646000008B5012001F00CFC022307A215
:102A900000210846FFF74AFD064802235422002180
:102AA00000904420FFF745FC08BD00005246204F2F
:102AB0004E0000002003002007480849086008482D
:102AC0004860084888600848C860084808610848A5
:102AD0004861084670470000A93500085C1B0020CB
:102AE000AB4400080146000885350008DD450008B4
:102AF000CD4300082DE9F04FABB00546802103A877
:102B0000FDF773FB0026022004F0B0FE81466878D2
:102B1000012805D1D9F8090020385849086007E094
:102B2000A878012804D15548006820385349086026
:102B30002023524823A90268012004F088FEDDF812
:102B4000A700029002A8FDF7EDFA0446E0680090A5
:102B50002069431C606900F26C7249A103A802F06D
:102B60002FFC012303AA00210846FFF7DFFC2068A1
:102B7000009047A103A8D4E9013202F021FC01230F
:102B800003AA19460020FFF7D1FC802103A8FDF716
:102B90002CFB00270BE00DF18F01CA5D03A98819FA
:102BA0003FA102F00DFCB01CC6B2781CC7B2092FC1
:102BB000F1DB01233CA202210020FFF7B7FC012337
:102BC00003AA02211220FFF7B1FCBDF8A32037A110
:102BD00003A802F0F5FB012303AA03210020FFF75D
:102BE000A5FC9DF9A02034A103A802F0E9FB012374
:102BF00003AA04210020FFF799FCBDF9A12031A10F
:102C000003A802F0DDFB012303AA05210020FFF742
:102C10008DFC802103A8FDF7E8FA2698FDF7E9FC72
:102C200083462B49FDF716FB8246FDF73DFD07461F
:102C30003A460B4627A103A802F0C2FB012303AAD0
:102C400006210020FFF772FC2798FDF7D2FC83468F
:102C50001F49FDF7FFFA8246FDF726FD07463A4673
:102C60000B461EA103A802F0ABFB012303AA072118
:102C70000020FFF75BFC2BB0BDE8F08FC8040020FC
:102C800025642D253032642D25303264000000008B
:102C900020253032643A253032643A2530326400DF
:102CA000253032580000000049443A005278436E03
:102CB000743A202564000000534E523A2025646483
:102CC00042000000525353493A256464426D0000AB
:102CD0008096184B453A2025660000004E3A202584
:102CE0006600000010B58EB00446342101A8FDF73F
:102CF0007CFA1748028817A101A802F061FB0223A1
:102D000001AA19460020FFF711FC342101A8FDF7A4
:102D10006CFA1348028813A101A802F051FB0223A8
:102D200001AA04210020FFF701FC342101A8FDF7CE
:102D30005CFA0F4802880FA101A802F041FB0223B0
:102D400001AA06210020FFF7F1FB0EB010BD000024
:102D500030000020485F5258436E743A25640000EA
:102D600036000020435F5258436E743A25640000D9
:102D700032000020466C617368457272436E743A8B
:102D80002564000021B1028842F04002028004E084
:102D900002884FF6BF731A40028070470246002037
:102DA00013890B400BB1012000E000207047014661
:102DB000888970478181704710B50022028802F42B
:102DC00041520B884C8823438C882343CC8823436F
:102DD0000C8923434C8923438C892343CC89234387
:102DE0001A430280838B4FF2FF74234083830B8A44
:102DF000038210BD7047000030B51648006890F897
:102E0000270000F00700421C1248006890F83000CC
:102E1000C3091048006890F8300000F0060008B1BF
:102E2000012000E0002004460A48006890F83210B3
:102E30000848006890F8300000F01000102801D118
:102E4000022000E000200546D01820440844284411
:102E500080B230BDEC04002070B505460C46064833
:102E600000882080002004490880228803492846E1
:102E7000FDF7A2F970BD000000050020E41B002052
:102E80002DE9F04F89B001200890F84800780C280F
:102E90007ED2DFE800F0060784EFEDECEBEAE9E82C
:102EA000E7E6BFE2F248006890F8300000F010005A
:102EB000102805D14C20EE49096881F8400004E053
:102EC0000C20EB49096881F84000E120E8490968D5
:102ED00081F841000222E64801684031402001F0BB
:102EE000A5FB052000F002FB4FF48071E148FDF7DF
:102EF0007CF9E1494868FDF792FBCDE90201FFF753
:102F00007BFF0190FDF78BFB80460022DB4BFDF73A
:102F100086FA0646DDE90223FDF7F3FA0022D84BD4
:102F2000CDE90401FDF77BFACDE9060103F09AFD36
:102F300004460022D34BFDF7CBF98246FDF79BFBFD
:102F400080B2D14908600846006800EB5000086074
:102F500008460068CD490860CD480068CD49086042
:102F6000CD490860A020C249096881F83500C048F1
:102F7000006890F83510352001F050FB0020C7495B
:102F80000870C7490870C7490870C749087000E051
:102F900047E2C64908800220B449087042E201F0C5
:102FA00073FA012809D1BD48007830B90120BB4926
:102FB0000870B7480068B849086001F053FA012862
:102FC0001ED1B648007801281AD1B5480078B8B9A2
:102FD0000120B349087000F063FAB54A03C200F05B
:102FE00037FAB449086000F073FAB3490870A8488A
:102FF0000068A8490860A849086003209B49087038
:10300000A7480078B8B9A5480078012813D1A0488E
:103010000068A1490968401A9C49096888420AD990
:1030200001209249087092480068407B40F02001DE
:103030000D2001F0F3FA9A48007888B99748007893
:1030400070B99848007858B9914800689149096862
:10305000401A8D490968884202D9052083490870C1
:10306000E0E1D8E1D1E184E14FE127E1EAE0D6E017
:10307000CCE0FFE78D480088B0F5807F03DD0620B7
:103080007A490870CEE101F0E3F9012853D187486D
:103090000088A8B98448007890B97548006890F80D
:1030A000300000F08000802804D101217F4801F029
:1030B000F3F905E06E48006890F832007B4908801B
:1030C0007A48008878490978401A6949096891F86E
:1030D000351001F03F01884217DD654A126892F809
:1030E000352002F03F01634A6F4B1B78D01801F086
:1030F000D3F95F48006890F8350000F03F006A4956
:10310000097808446849087015E0684A1278664BE7
:103110001B78D21AD1B2574A634B1B78D01801F0F2
:10312000BBF96248007860490978401A5E4909781D
:1031300008445D49087001F081F9012856D15448CE
:103140000068544908605948008890BB5648007888
:1031500078BB4748006890F8300000F08000802875
:1031600004D10121514801F097F905E04048006879
:1031700090F832004D4908804C4A12784A4B1B782F
:10318000D21AD1B23B4A484B1B78D01801F084F9CF
:103190004648007844490978401A43490978084468
:1031A0004149087001203F49087004202F490870E8
:1031B0001CE0FFE73D4A12783B4B1B78D21AD1B294
:1031C0002C4A394B1B78D01801F066F93748007843
:1031D00035490978401A3449097808443249087059
:1031E0000120304908700420204908702D480078DB
:1031F00058B92748006827490968401A22490968D0
:10320000884202D90520194908700BE1002026499F
:1032100008700120154908700220089002E1002082
:10322000214908702149088011480068407B40F01E
:1032300020010D2001F0F2F901200C490870032053
:103240000890EFE0002018490870184908800848E5
:103250000068407B40F020010D2001F0DFF90120E3
:103260000249087006200890DCE00000F10400200C
:10327000EC040020E41B0020D004002000002040CB
:1032800000408F400000F03FF4040020F8040020CC
:1032900088050020180500201C050020FC040020E3
:1032A000FD040020FE04002002050020000500208F
:1032B00008050020100500201405002001205C49AD
:1032C000096881F8400020205949096881F84100C7
:1032D0000222574801684031402001F0A7F99820A8
:1032E0005349096881F835005148006890F8351055
:1032F000352001F093F9032000F0F8F808204D493B
:10330000087000204C4908708CE001F0B5F80128E5
:103310002ED14748006890F8300000F080008028E7
:1033200003D10121454801F0A1F944480088002853
:1033300008DD42480088402804DC404800784049C5
:10334000087002E020203E4908703D4801783D4861
:1033500001F08CF938480078394909780844364931
:1033600008703948006839490860092031490870F7
:1033700058E001F06DF870BB304800882E4909789C
:10338000401A2F49097888420FDD2E492A4A1278BF
:1033900088182B49097801F069F9274800782849ED
:1033A000097808442449087015E0244A1278224B11
:1033B0001B78D21AD1B2234A1F4B1B78D01801F0C8
:1033C00055F91E4800781C490978401A1A490978AD
:1033D00008441949087001F031F8012809D11A4848
:1033E00000681A4908600A2012490870012000F09C
:1033F0007DF81548006815490968401AB0F57A7FCC
:1034000002D90B200B4908700CE000200949087014
:103410000420089006E00020064908700520089066
:1034200000E000BF00BF089809B0BDE8F08F0000C1
:10343000EC040020F10400200305002020050020FA
:10344000F0040020E41B0020880500202405002053
:103450002DE9F0470222104801681B311B2000F0C3
:10346000CBFF0D490968097F0B4A1268D27E41EAF9
:103470000220FDF7C3F88046FDF7DEF88246FDF72F
:10348000BDF806460022054BFCF7C9FF0446FDF7D0
:10349000D3F8BDE8F0870000EC040020A8CB48403A
:1034A00070B50A4801681131112000F09BFF0749EF
:1034B0000968487CFDF7B3F8044600224FF08043CA
:1034C000FDF71FF881F0004170BD0000EC04002002
:1034D00010B5054801680C310C2000F083FF02484C
:1034E0000068007B400910BDEC04002070B5044664
:1034F000002514480068407820F0F8001249087050
:103500000846007884421CD0032C01D1012500E03C
:1035100000250E480078854204D00C4805702846E6
:1035200001F0ADF807480068407800F0F80020434B
:10353000044909684870034800684178012001F097
:103540006DF870BDEC04002028050020290500203E
:103550000149087070470000F104002070B504466E
:103560000D4605480580028821460448FCF724FEE4
:1035700007200349087070BD20050020E41B0020CF
:10358000F104002070B504460D460648007820B9C5
:1035900029462046FFF760FC03E02946204600F05C
:1035A00095F870BDCC0400201CB51648164908607B
:1035B0001649086000F040F800F077FF01A90620E6
:1035C00000F010FF6946422000F00CFF0CE010A054
:1035D00001F0E6FE022312A203210020FEF7A6FF5F
:1035E0004FF4FA6002F064FB9DF804006C28EED101
:1035F0000120104908700846007800F065FF00F0CF
:1036000079F81CBD741B0020EC0400204805002044
:10361000486172642053504920457272210D0A009E
:103620005246204D6F64756C65204572726F722131
:1036300000000000CC04002008B501211D20FFF788
:1036400091F910208DF8030003208DF8020001F09D
:1036500035FA04208DF80300C002ADF80000694679
:103660001448FEF755F94FF48040ADF80000694664
:103670001048FEF74DF94FF40040ADF800006946E0
:103680000C48FEF745F90120ADF8000069460A48EC
:10369000FEF73EF90220ADF8000069460648FEF745
:1036A00037F91020ADF8000069460448FEF730F9FC
:1036B00008BD00000010014000080140000C01405E
:1036C00001480078704700004C05002070B50546A1
:1036D0000C46064800882080002004490880228883
:1036E00003492846FCF768FD70BD00004E05002028
:1036F000E41C002010B500202D49087000F0D8FB14
:103700006F222C49012000F077FE20202A49096809
:1037100008736F222749012000F088FF27490868B5
:1037200000F012FD2549887900F0E0FD2349C879B1
:1037300000F0C8FB2149087A00F0B6FC1F4948791F
:1037400000F0B6FD1D49487A00F0DCFB40F2FF3086
:1037500000F0FAFD1949087E00F0C6FC012000F0D7
:10376000EFFB102000F0D4FC144800681449884294
:103770000DD9802000F052FC012000F069FC1420DB
:103780000E49087191F9040000F00AFD0CE00020D8
:1037900000F044FC002000F05BFC0E20074908719B
:1037A00091F9040000F0FCFC012000F005FC10BDC4
:1037B0004C050020751B0020480500202C0500202A
:1037C0000057A6162DE9F04F85B001200490FE4861
:1037D00000780B2874D2DFE800F0060774CCFEFDF9
:1037E000FCFB73FAF90041E3012000F0E5FB9D20AA
:1037F000F64909684874F5480068417C112000F0DA
:103800000DFFF348C07A012816D1F148007BEF493B
:10381000096881F82400ED4801681C311C2000F083
:10382000E1FDEA490968097F01F03F01E94A52F8E0
:10383000210000F089FC04E0FF20E449096881F8D8
:103840002400E248006890F82410242000F0E6FEEE
:103850000020DE49096881F83F00DC49096881F8E9
:1038600040000222D94801683F31402000F0DEFECE
:10387000D748807A012803D1062000F09DFB0EE096
:10388000D2480068C07BD14909684873CF480068B6
:10389000417B0D2000F0C2FE052000F08DFB4FF4AF
:1038A0008071CD48FCF7A1FCC9484069CB4908604C
:1038B000CB480068CB4908600220C3490870D5E2B4
:1038C000D3E200F0BBFD01281ED1C5480068C54900
:1038D0000860BF48C07A01280FD1BC4801681C317C
:1038E0001C2000F07FFDB9490968097F01F03F0104
:1038F000B84A52F8210000F027FC4021122000F0C5
:103900008DFE0320B049087000F0ACFD01281FD1E6
:10391000B3480068B3490860AD48C07A01280FD1A8
:10392000AA4801681C311C2000F05CFDA749096809
:10393000097F01F03F01A74A52F8210000F004FC82
:103940000221122000F06AFE00F0A4FAA6490870D5
:103950009F48807A01280BD1A1480068A1490968D5
:10396000401A9E490968884202D904209649087085
:103970007CE2964801681231122000F033FD934832
:103980000068807C00F0200020280ED12021122029
:1039900000F044FE8E48807A012802D18A490870DE
:1039A00002E002208849087060E203A9192000F0B3
:1039B00019FD9DF80C0000F08000A0B19DF80C00EE
:1039C000C043401CC0F38500884905E031E20CE2A9
:1039D00002E2D9E15EE157E1087008460078404212
:1039E00040B2087004E09DF80C0080087F49087020
:1039F000774800687E4988424ED27C4890F90000A2
:103A000000282ADA794890F90000FCF7F7FD824691
:103A10008B466F484079774901EBC00003C80246E6
:103A20000B46CDE9000100207349FCF7F8FC0022A9
:103A3000724BCDE90201FCF74BFC06460022704BAD
:103A4000FCF746FC044652465B46FCF741FC8046C8
:103A5000FCF756FE6B4908606BE05C4801681A3160
:103A60001A2000F0BFFC59490968887EFCF7D7FD91
:103A70008046894656484079634901EBC000D0E949
:103A80000063324640464946FCF722FC0446FCF7F8
:103A900037FE5C4908604CE0544890F9000000286B
:103AA00029DA524890F90000FCF7A8FD80468946C3
:103AB000474840794F4901EBC001D1E900633246E4
:103AC00000204D49FCF7ABFC044600224B4BFCF7B1
:103AD000FFFB00224D4BCDE90001FCF7F9FB42460C
:103AE0004B46CDE90201FCF7F3FB8246FCF708FEEA
:103AF000444908601DE0354801681A311A2000F079
:103B000071FC32490968887EFCF789FD8046894648
:103B10002F4840793E4901EBC000D0E900633246AE
:103B200040464946FCF7D4FB0446FCF7E9FD35491D
:103B300008602748807A01282FD124480068C07B7C
:103B400022490968487321480068417B0D2000F034
:103B500065FD1F48407A01280DD11C48006890F887
:103B600022002C4908801948006890F822101A4851
:103B700000F092FC7BE0154801681331132000F03F
:103B800031FC12480068C07C224908800F48006858
:103B9000C17C114800F080FC69E00C4801681031DC
:103BA000102000F01FFC0A48407A012842D1074843
:103BB000006890F822001749088004480068007CDB
:103BC00002490968487327E04C0500204805002099
:103BD0002C05002010850008E41C00206005002052
:103BE000880500205C0500205805002050050020B5
:103BF000008F4233208400080000244000C065C0CC
:103C00000000104054050020708400080000184097
:103C1000C08400084E05002097480068417B0D20B5
:103C200000F0FCFC9448006890F82210934800F0E3
:103C300033FC1CE0904801681331132000F0D2FBE4
:103C40008D480068C07C8E4908808B480068007CE5
:103C500089490968487388480068417B0D2000F055
:103C6000DDFC85480068C17C844800F015FC85486F
:103C7000807A012802D18449087002E0022082493A
:103C8000087002200490F1E001207F4908700320B1
:103C90000490EBE0012000F08FF97A48C07A012807
:103CA0001AD1F5207449096848747648007B724936
:103CB000096881F82400704801681C311C2000F05C
:103CC00091FB6D490968097F01F03F016F4A52F885
:103CD000210000F039FA08E0F720674909684874C4
:103CE00000206549096881F824006348006890F85D
:103CF0002410242000F092FC5F480068417C1120D1
:103D000000F08CFC624800785B49096881F8220069
:103D10005948006890F82210222000F07FFC002013
:103D200055490968887354480068817B0E2000F06B
:103D300075FC51480068807B4F49096848734E48BC
:103D40000068417B0D2000F069FC4B48006890F84A
:103D500022104A4800F08AFC41204749096881F84E
:103D60003F0040204449096881F84000022242484F
:103D700001683F31402000F059FC032000F01CF99D
:103D800006204149087071E000F058FB012806D177
:103D90000821122000F042FC07203B49087000F087
:103DA00061FB012817D13748C07A01280FD132486A
:103DB00001681C311C2000F015FB2F490968097FA0
:103DC00001F03F01314A52F8210000F0BDF9022113
:103DD000122000F023FC49E0012000F0EDF8002063
:103DE000294908700420049040E0012000F0E4F824
:103DF000FA202149096848741F480068417C112055
:103E000000F00CFC00201C49096881F83F001A49A9
:103E1000096881F840000222174801683F314020BC
:103E200000F004FC072000F0C7F80A2016490870CB
:103E30001CE000F021FB012816D10421122000F023
:103E4000EDFB00F021FB012809D10121122000F037
:103E5000E5FB01200C4908700820049004E00020D4
:103E6000094908700720049000E000BF00BF0498D3
:103E700005B0BDE8F08F000048050020E41C0020DC
:103E80004E0500202C0500204C0500201085000860
:103E90006405002010B5054801680C310C2000F0C5
:103EA000A1FA02480068007B400910BD48050020C7
:103EB00010B5034801684131422000F093FA10BD6B
:103EC0004805002010B504460C4801681D311D202E
:103ED00000F088FA09480068407F00F0F10040EAED
:103EE000440006490968487704480068417F1D205E
:103EF00000F094FB0248C47110BD0000480500208A
:103F00002C05002010B504460B4801681D311D200A
:103F100000F068FA08480068407F00F0FE00204387
:103F200005490968487704480068417F1D2000F072
:103F300075FB0248447210BD480500202C05002086
:103F400010B504460C4801682631262000F04AFAD4
:103F50000948006890F8260000F0F70040EAC40025
:103F60000549096881F826000348006890F8261082
:103F7000262000F053FB10BD4805002010B5044674
:103F80000C4801683031312000F02CFA09480068F3
:103F900090F8300000F0F80020430649096881F8E5
:103FA00030000448006890F83010312000F036FBF3
:103FB00010BD00004805002070B5044600251448D7
:103FC0000068407820F0F800124908700846007830
:103FD00084421CD0032C01D1012500E000250E48AD
:103FE0000078854204D00C480570284600F047FB55
:103FF00007480068407800F0F80020430449096849
:104000004870034800684178012000F007FB70BD4C
:1040100048050020660500206705002010B504460D
:104020000A4801680931092000F0DCF907480068F6
:10403000407A00F07F002043044909684872034831
:104040000068417A092000F0E9FA10BD4805002017
:1040500010B50446134801684C314D2000F0C2F9F8
:10406000104801680931092000F0BCF90D480068CA
:10407000407A00F08000802807D1012C0AD18720E7
:104080000849096881F84C0004E084200549096862
:1040900081F84C000348006890F84C104D2000F067
:1040A000BDFA10BD4805002010B504460C48016853
:1040B0001E311E2000F096F909480068807F00F04C
:1040C000FB0040EA840006490968887704480068D4
:1040D000817F1E2000F0A2FA0248047210BD000089
:1040E000480500202C05002010B50446064800684D
:1040F00080F822400448006890F82210222000F046
:104100008DFA0248047610BD480500202C050020D9
:1041100010B5044602220B4801682031202000F02F
:104120006BF9200A0749096881F8200005490968E8
:1041300081F821400222034801682031202000F04C
:1041400075FA10BD480500202DE9F04104461148DC
:1041500004602046FCF763FA054600220E4BFCF78C
:10416000D0F90746FCF787FA0446200C0B4909688A
:104170008871200A09490968C871084909680C72E0
:10418000032206480168891D062000F04FFABDE8A9
:10419000F08100002C05002080844E40480500205E
:1041A00010B504463D4801680931092000F01AF9AC
:1041B0003A4801684C314D2000F014F93748006846
:1041C000407A00F08000802841D13448006890F89F
:1041D0004C0000F0870087281CD1052C00DA05244C
:1041E000142C00DD14242D480068407A00F08F0064
:1041F00040F0700029490968487228480068407AF0
:1042000000F0F000611F01F00F0108432349096825
:1042100048723AE0022C00DA0224112C00DD11244D
:104220001E480068407A00F08F0040F070001B4983
:104230000968487219480068407A00F0F000A11E31
:1042400001F00F0108431549096848721DE0B4F1F7
:10425000FF3F01DA4FF0FF340E2C00DD0E240F4833
:104260000068407A00F08F0040F070000B49096848
:1042700048720A480068407A00F0F000611C01F0C2
:104280000F01084305490968487204480068417AEB
:10429000092000F0C3F90248047110BD4805002050
:1042A0002C05002001490870704700004C050020D3
:1042B00010B504460B4801681D311D2000F092F82E
:1042C00008480068407F64F31F1006490968487772
:1042D00004480068417F1D2000F0A0F902484471A5
:1042E00010BD0000480500202C05002010B5044634
:1042F0000C2C01DD0C2402E0062C00DA0624062C2E
:1043000003D10520FFF73AFE02E00320FFF736FE57
:104310000B4801681E311E2000F064F80848006850
:10432000807F64F31F100649096888770448006895
:10433000817F1E2000F072F90248847110BD0000D8
:10434000480500202C05002010B5044602220F4825
:1043500001681E311E2000F04FF80C480068807F75
:1043600000F0FC006FF0FC0101EA2421084307493A
:104370000968887705490968CC77022203480168F3
:104380001E311E2000F052F910BD0000480500202B
:1043900070B504460D460948C07A10B90848058032
:1043A00002E0FF20064908800548028821460548AA
:1043B000FBF702FF05200449087070BD2C050020A2
:1043C00064050020E41C00204C05002010B50448C2
:1043D000007810B9FEF754FD10BDFFF7F3F9FBE7C5
:1043E000CC04002070B504460D4601222946204623
:1043F00000F002F870BD00002DE9F04105460E46C0
:104400001746002210210C48FDF763FB05F07F00E2
:1044100000F022FC002405E0002000F01DFC3055D7
:10442000601CC4B2BC42F7DB012210210248FDF738
:1044300050FBBDE8F08100000008014010B54FF4CA
:1044400000510248FDF738FB10BD0000001001408C
:1044500010B54FF480410248FDF72EFB10BD00005F
:104460000010014010B54FF400410248FDF724FB55
:1044700010BD00000010014010B501210148FDF7FA
:104480001BFB10BD0008014010B502210148FDF7DB
:1044900013FB10BD0008014070B504460D462A46C6
:1044A00021460020FFF7A8FF70BD10B5012000F0E5
:1044B00069F80A2001F0FCFB002000F063F80A20F4
:1044C00001F0F6FB10BD000010B504462948007845
:1044D000A04200D110BD274804702748047000781E
:1044E00001282BD10020FFF767FD244800684078A1
:1044F00000F07F0040F080002049096848701F48A4
:1045000000684178012000F089F80120FFF754FD90
:1045100000201A49096881F83F001849096881F8A4
:1045200040000222154801683F31402000F07EF82B
:104530006F2213490120FFF75FFF18E00020FFF70B
:104540003BFD0E480068407800F07F000B49096889
:1045500048700A4800684178012000F05FF80120A7
:10456000FFF72AFD6F2206490120FFF745FF00BF34
:10457000B0E70000CD040020CC0400204805002056
:10458000751B002038B50446012C12D12020ADF84F
:10459000000003208DF8020010208DF8030069460A
:1045A0000D48FDF7B5F9002220210B48FDF791FADF
:1045B00011E02020ADF8000003208DF8020010204B
:1045C0008DF8030069460448FDF7A2F90122202175
:1045D0000148FDF77EFA38BD000C014070B5044675
:1045E0000D460648007820B929462046FEF7B6FF5A
:1045F00003E029462046FFF7CBFE70BDCC04002027
:1046000010B50548007818B90120FEF7A1FF02E0B7
:104610000120FFF747FE10BDCC04002013B504466F
:10462000012201A9204600F001F81CBD2DE9F0414E
:1046300005460E461746002210210B48FDF749FAA1
:1046400045F0800000F008FB002404E0305D00F03D
:1046500003FB601CC4B2BC42F8DB012210210248FB
:10466000FDF737FABDE8F0810008014070B5044657
:104670000D462A4621460020FFF7D8FF70BD10B531
:10468000044614B100F028FA01E000F017FA10BD5A
:104690002DE9FF4F8BB092461A9C582003904FF0A3
:1046A000000904A80290FF208DF810001C9850B952
:1046B0000B980168CDF811104168CDF81510007AFB
:1046C0008DF819001AE01C9801280ED10B9800688B
:1046D000CDF81100042505E030210DF11100415500
:1046E000681CC5B2092DF7DB08E0002504E00DF1D8
:1046F00011004555681CC5B2092DF8DB0C98CDF8A2
:104700001A00CDF81EA0DDE91801FBF795FF00B2F5
:10471000ADF823000E988DF82200ADF825401B98C7
:10472000ADF82700002506E00298401C405D80EAB5
:104730000909681CC5B2182DF6D38DF82990F02010
:104740008DF82A001B220120029902F09FFF012010
:1047500002F040FF1B220020029902F097FF002088
:1047600002F038FF2046E11704EBD1614911A4EBB8
:1047700041118E4A02EB41118DA213880B80927871
:104780008A70E11704EBD1614911A4EB4111874A0A
:1047900002EB4111DDF8112041F8032FDDF815205F
:1047A0004A609DF819200A72E21704EBD262521196
:1047B000A4EB42127D4B03EB42120C99D160E1173E
:1047C00004EBD1614911A4EB41111A4602EB4111EE
:1047D000C1F810A0E21704EBD2625211A4EB42120E
:1047E00003EB42120E991175DDE91801FBF724FF66
:1047F00000B2A346E11704EBD1614911A4EB4111CA
:104800006A4A02EB4111A1F815002046E11704EBBA
:10481000D1614911A4EB411102EB4111A1F81740FC
:10482000E21704EBD2625211A4EB42125F4B03EB8E
:1048300042121B99A2F819105E490968E21704EBAD
:10484000D2625211A4EB421203EB4212C2F81B10C7
:104850004FF00009E11704EBD1614911A4EB4111BC
:104860001A4602EB41110191002505E00198405DD7
:1048700080EA0909681CC5B21F2DF7D32046E1174D
:1048800004EBD1614911A4EB4111484A02EB4111FB
:1048900081F81F9048480078002840D1022002F09B
:1048A000E5FF8046012002F0E1FF0646A346E0173F
:1048B00004EBD0604011A4EB40103C4B03EB4011E3
:1048C000D8F809202023012002F0D8FF07463FBB7B
:1048D000C82001F0EDF9E01704EBD0604011A4EB23
:1048E0004010324B03EB4011D8F80920202301205F
:1048F00002F0C4FF0746002F54D14FF400612F4847
:10490000FDF7E5F8C82001F0D3F94FF400612B481A
:10491000FDF7DBF82A480088401C2949088041E05F
:10492000D8F809002030C8F80900D6F8092001237A
:1049300003A9184602F0A2FF0746FFB9C82001F0FC
:10494000B7F9D6F80920012303A9184602F096FF0B
:1049500007463FBB4FF400611848FDF7B8F84FF425
:104960007A7001F0A5F94FF400611448FDF7ADF835
:1049700013480088401C1249088013E0761CB06878
:10498000401CB060B16856F8010900F580508142C2
:1049900008D102230BA204210020FDF7C7FD01204E
:1049A000054908700FB0BDE8F08F000058060020E0
:1049B0004651480008000020340000200008014053
:1049C00032000020466C6173682053746F72616717
:1049D000652046756C6C210010B500F001F810BD23
:1049E0000CB50020019000903248006840F48030FF
:1049F0003049086000BF2F48006800F40030009084
:104A00000198401C0190009818B90198B0F5A06F6A
:104A1000F1D12848006800F4003010B10120009066
:104A200001E0002000900098012841D12248006850
:104A300040F01000204908600846006820F003009C
:104A400008600846006840F00100086019484068A6
:104A50001849486008464068486008464068486011
:104A60000846406820F47C1048600846406840F4DE
:104A7000F81048600846006840F08070086000BF89
:104A80000C48006800F000700028F9D00948406820
:104A900020F00300074948600846406840F00200E3
:104AA000486000BF0348406800F00C000828F9D1B6
:104AB0000CBD0000001002400020024010B5012192
:104AC0000448FDF704F84FF400710248FCF7FDFFBD
:104AD00010BD0000000C014010B501210448FCF796
:104AE000F4FF4FF400710248FCF7F1FF10BD000025
:104AF000000C014070B5002450480068007850490F
:104B0000087050480078504908704D4800780328D4
:104B100048DB00BF43E04C49097801EB8101474A7B
:104B2000126802EB81010122486848A1FBF76FFB84
:104B300028B34548007800EB8000404B1B6803EB2E
:104B400080004268601C4006010E02231220FDF71F
:104B5000EDFC3D4800783E49097888420FD13C4839
:104B60000078032190FBF1F201FB1200401C40068B
:104B7000050E022337A229460020FDF7D7FC324854
:104B80000078401C30490870084600782C490978A4
:104B9000884202D100202C490870601CC4B2032C4A
:104BA000B9DB49E0002443E02749097801EB8101A2
:104BB000224A126802EB81010122486823A1FBF717
:104BC00026FB28B32048007800EB80001B4B1B68B5
:104BD00003EB80004268601C4006010E0223122095
:104BE000FDF7A4FC184800781949097888420FD1CC
:104BF00017480078032190FBF1F201FB1200401CE2
:104C00004006050E022313A229460020FDF78EFC64
:104C10000D480078401C0C49087008460078084987
:104C20000978884202D1002007490870601CC4B28C
:104C3000034800788442B7DB70BD0000BC0400204C
:104C4000C3040020C0040020C20400202000000093
:104C5000C10400202D3E000010B5044600BF022113
:104C60000A48FEF79BF80028F9D021460748FEF7CE
:104C7000A1F800BF01210548FEF790F80028F9D0FF
:104C80000248FEF794F8C0B210BD000000300140A9
:104C900000B587B0012141F20500FDF763FE032056
:104CA0008DF8060018208DF80700E020ADF804000C
:104CB00001A91D48FCF72CFE10208DF807000320E9
:104CC0008DF806001020ADF8040001A91648FCF785
:104CD0001FFE012210211448FCF7FBFE0020ADF856
:104CE00008004FF48270ADF80A000020ADF80C0007
:104CF000ADF80E00ADF810004FF40070ADF81200E2
:104D00001020ADF814000020ADF816000720ADF813
:104D1000180002A90548FEF74FF801210348FEF7E5
:104D200031F807B000BD000000080140003001402C
:104D300010B500F009F803480068401C01490860FC
:104D400010BD00008805002010B5002406E01749BA
:104D500001EBC40001F006F8601CC4B2042CF6DBC1
:104D600013480068401C12490860084600686FF04C
:104D70000041884202D100200D4908600D480068BA
:104D8000401C0C490860B0F57A7F0BD30020086006
:104D900009480068401C0849086008480068401C31
:104DA00006490860FCF736F810BD0000800A0020B4
:104DB00058000020600000202C0000200800002087
:104DC00010B51348006840F001001149086008461A
:104DD0004068104908400E494860084600680E497E
:104DE00008400B4908600846006820F480200860ED
:104DF0000846406820F4FE0048604FF41F008860B9
:104E0000FFF7EAFD4FF000600449086010BD0000A4
:104E1000001002400000FFF8FFFFF6FE08ED00E082
:104E20003EB5044601210846FDF77CFD0120ADF8A2
:104E3000040024B941F61F40ADF8000016E0012C33
:104E400004D140F2CF20ADF800000FE0022C09D1D0
:104E50000C4800680C49B0FBF1F0401E80B2ADF880
:104E6000000003E041F61F40ADF800000020ADF85F
:104E700006001020ADF802006946800600F032F806
:104E80003EBD00009405002040420F0070B504466E
:104E9000A5B20121880700F013F829464FF08040A1
:104EA00000F01DF804E04FF0804000F015F80546D2
:104EB000012DF8DC00214FF0804000F001F870BDBA
:104EC00021B1028842F00102028004E002884FF61C
:104ED000FE731A40028070470146888C70478184B7
:104EE00070470000002202881D4B98420ED01D4BD7
:104EF00098420BD0B0F1804F08D01B4B984205D0A0
:104F00001A4B984202D01A4B984204D14FF68F7335
:104F10001A404B881A43174B984207D0164B9842B9
:104F200004D04FF6FF431A40CB881A4302808B8887
:104F300083850B8803850A4B98420BD0094B984216
:104F400008D00E4B984205D00D4B984202D00D4B25
:104F5000984201D10B7A03860123838270470000B7
:104F6000002C0140003401400004004000080040D3
:104F7000000C0040001000400014004000400140C0
:104F8000004401400048014000B587B0012144F2CF
:104F90000400FDF7E7FC4FF40070ADF8180018208E
:104FA0008DF81B0003208DF81A0006A92048FCF795
:104FB000AFFC4FF48060ADF8180004208DF81B00A2
:104FC00006A91B48FCF7A4FC25208DF8140000203E
:104FD0008DF815008DF8160001208DF8170005A832
:104FE000FDF7E4F84FF4E12001900020ADF808004F
:104FF000ADF80A00ADF80C00ADF810000C20ADF8CB
:105000000E0001A90B4800F045F9012240F225519C
:10501000084800F019F90121064800F0D2F81420E0
:1050200000F046FE4021034800F0C2F807B000BD82
:10503000000801400038014010B540F225511948E0
:1050400000F0D8F868B3174800F090F9C4B22146D0
:10505000002002F041FA14480078002804DD1248CC
:105060000078401C104908700D2C06D10F480470C0
:105070000D480078401C0C4908700B480078022845
:105080000FD10A484470002007490870074800788B
:105090000D2806D1054840780A2802D1012004498C
:1050A000087010BD0038014054000020520000205C
:1050B0007A03002000B587B001210420FDF752FCDF
:1050C00001214804FDF72EFC0420ADF8180018203B
:1050D0008DF81B0003208DF81A0006A92048FCF764
:1050E00017FC0820ADF8180004208DF81B0006A955
:1050F0001B48FCF70DFC26208DF8140000208DF8CD
:10510000150001208DF816008DF8170005A8FDF791
:105110004DF84FF4E13001900020ADF80800ADF8F3
:105120000A00ADF80C00ADF810000C20ADF80E0030
:1051300001A90C4800F0AEF8012240F225510948BF
:1051400000F082F80121074800F03BF8142000F03D
:10515000AFFD4021034800F02BF807B000BD000070
:10516000000801400044004010B540F225510648B7
:1051700000F040F838B1044800F0F8F8C4B2214615
:10518000012002F0A9F910BD0044004010B540F222
:105190002551064800F02EF838B1044800F0E6F832
:1051A000C4B22146022002F097F910BD0048004029
:1051B00001F40072B2F5007F00D100BFCA43028043
:1051C000704721B1828942F40052828104E08289D1
:1051D0004DF6FF731A408281704702460020B1F5F8
:1051E000007F00D100BF13880B400BB1012000E00D
:1051F0000020704770B502460024002300250020DF
:1052000040F66A16B14200D100BFC1F3421501F069
:105210001F03012606FA03F3012D02D196893340BC
:1052200006E0022D02D1168A334001E0968A33400F
:105230000C12012606FA04F41688344013B10CB19E
:10524000012000E0002070BDF0B5034600240026D8
:105250000025002040F66A17B94200D100BF184669
:10526000C1F3421401F01F06012707FA06F5012CCD
:1052700001D10C3004E0022C01D1103000E01430D8
:105280001AB107682F43076002E00768AF43076061
:10529000F0BD00002DE9F04786B005460E4600241B
:1052A000A24600BFA1460027B08900B100BF2F462B
:1052B0002C8A4CF6FF700440F08804432C82AC89A1
:1052C0004EF6F3100440B0883189084371890843D1
:1052D0000443AC81AC8A4FF6FF400440B0890443DC
:1052E000AC8201A8FDF74EFB1F48874202D1DDF8D2
:1052F00010A001E0DDF80CA0A88900F4004040B146
:105300000AEBCA0000EB0A1031684900B0FBF1F863
:1053100007E00AEBCA0000EB0A1031688900B0FB15
:10532000F1F86420B8FBF0F004012009642101FBCE
:105330001089A88900F4004040B1322000EBC90078
:10534000B0FBF1F000F00700044308E0322000EB6E
:1053500009106421B0FBF1F000F00F0004432C8130
:1053600006B0BDE8F087000000380140014688889B
:10537000C0F308007047C1F308028280704700BF85
:10538000FEE710B5044621460020FCF7FFFD10BDE6
:1053900010B5044621464020FCF7F8FD10BD000082
:1053A0000FB4054B10B503A9044A029800F0E4F8C5
:1053B00010BC5DF814FB000089600008BC050020EB
:1053C0000FB4084B10B504A902AA039800F0D4F852
:1053D000044602A9002000F066FC204610BC5DF8DF
:1053E00014FB0000A75C000800487047C8050020B7
:1053F00002E008C8121F08C1002AFAD1704770479E
:10540000002001E001C1121F002AFBD1704780F388
:10541000108870472DE9FF5FDDE90220010DDDF8FE
:1054200038B0024318D044F61050A1F2FF31414386
:105430000D140F98012820D0A5EB0B00401C5FEA4B
:10544000000A4FF00004474EDFF81C91A04650467A
:1054500016D5CAF1000728E00F98012443A20128BD
:1054600008D0002100980F9BC0E90021C0E9024349
:10547000BDE8FF9F6FEA0B01F4E7CBF10000DEE728
:10548000074612E0F80707D0224633464046494611
:10549000FAF7C5FF8046894622463346104619462C
:1054A000FAF7BDFF04460E467F10002FEAD1DDE972
:1054B0000201BAF1000F42464B4602DAFAF7AFFF9B
:1054C00001E0FBF71EF804460E460022284BFBF7CE
:1054D000D3FA03D84FF0FF30014607E00022254BF6
:1054E00020463146FAF7F4FEFBF7AEFA102409E045
:1054F000002C0ADB0A220023FBF734F9019B30322F
:105500001A55641E50EA0102F2D1641C019AC4F1DA
:10551000110314440F9A012A03D0012208430DD12C
:105520000AE0084304D000204FF0110B0F9080E7F1
:10553000A3EB0B056D1E0DE05B4504DD4FF0000293
:1055400005F1010504E003DA4FF00002A5F10105C1
:10555000002AECD000980F99C0E90231C0E900455B
:1055600086E70000000024400000F03F300000000B
:105570000000F0430000E03F2DE9FF4F95B09B464F
:105580008946064600250FE2252877D100242746C4
:10559000F84A0121059400E0044316F8013F203B3E
:1055A00001FA03F01042F7D130782A2811D06FF0B9
:1055B0002F033078A0F13002092A16D8059A44F05A
:1055C000020402EB820203EB42021044761C0590B7
:1055D000EFE759F8042B0592002A03DA504244F40D
:1055E0000054059044F00204761C30782E2816D121
:1055F00016F8010F44F004042A280DD06FF02F0292
:105600003078A0F13003092B09D807EB870302EBB0
:105610004303C718761CF3E759F8047B761C3078EF
:105620006C280FD006DC4C2817D068280DD06A28CB
:1056300014D104E0742810D07A280FD10DE044F47E
:1056400000140AE044F4801401E044F44014727839
:10565000824202D104F58014761C761C30786628CC
:105660000BD013DC582877D009DC002875D04528EA
:10567000F6D04628F4D047281AD19DE118E06328D7
:1056800035D0642879D0652812D195E1702873D07F
:1056900008DC6728F1D069286FD06E280DD06F28FC
:1056A00006D1B5E073282CD0752875D0782874D031
:1056B0005A46179990476D1C75E1C4F302500228B1
:1056C00009D003280DD0D9F8001004280DD00D60A2
:1056D00009F1040967E1D9F80010EA17C1E900529D
:1056E000F6E7D9F800100D80F2E70D70F0E719F831
:1056F000041B8DF8001000208DF80100EA460120FF
:1057000003E059F804AB4FF0FF3061074FF00001A0
:1057100002D40DE008F101018846B9420FDA804554
:10572000F8DB1AF808100029F4D108E008F10101AB
:1057300088468142FADB1AF808100029F6D105984C
:105740005B46A0EB080721463846179A00F094FA0A
:10575000284400EB080507E04DE029E10DE01AF8C8
:10576000010B5A4617999047B8F10108F7D25B46EA
:1057700021463846179A13E142E00A220092C4F308
:1057800002524FF0000A022A08D059F804CB032A2B
:105790004FEAEC710AD00DE029E02AE009F1070197
:1057A00021F00702F2E802C1914609E00FFA8CFCF1
:1057B0004FEAEC71042A03D14FFA8CFC4FEAEC71EA
:1057C000002907DA0A460021DCF1000C61EB020136
:1057D0002D2202E0220504D52B228DF8042001227F
:1057E00003E0E20701D02022F7E7904659E00A21C2
:1057F00002E010220DE010214FF0000A00910BE0B2
:1058000010224FF0000A44F004040827009203E03D
:1058100008224FF0000A0092C4F30252022A05D077
:1058200059F804CB0021032A08D009E009F1070147
:1058300021F00702F2E802C1914605E01FFA8CFC54
:10584000042A01D10CF0FF0C4FF00008220728D5E4
:10585000702806D0009B83F0100353EA0A0305D09A
:105860000EE040228DF80420012208E05CEA0102EB
:1058700006D030228DF804208DF8050002229046D3
:10588000009B83F0080353EA0A030AD15CEA010291
:1058900001D1620705D530228DF804204FF00108B0
:1058A0007F1E582804D034A003900EA802900DE06B
:1058B00036A0F9E753466046009AFAF753FF84464C
:1058C0000398825C0298401E029002705CEA01001C
:1058D000F0D1029806A9081A00F1200A600702D543
:1058E00024F4803400E00127574502DDA7EB0A00CD
:1058F00000E0002000EB0A01009005984144401AA6
:105900000590E00306D45B462146179A059800F0FF
:10591000B3F90544002706E001A85A46C05D17996F
:1059200090476D1C7F1C4745F6DBE0030CD55B46BA
:105930002146179A059800F09FF9054404E03020AD
:105940005A46179990476D1C0099481E00900029EF
:10595000F5DC08E0029802995A460078491C029149
:10596000179990476D1CBAF10001AAF1010AF1DC08
:1059700065E1000009280100303132333435363713
:10598000383961626364656600000000303132338B
:10599000343536373839414243444546000000002B
:1059A00000F058F90544761C307800287FF4ECADFF
:1059B00019B02846BDE8F08F620700D4062709F128
:1059C000070222F0070CFCE80223E14603F000483E
:1059D0005FEA080C02D00FF2702C0DE05FEA045C65
:1059E00002D50FF2682C07E05FEAC47C02D00FF208
:1059F000602C01E0AFF2700C4FF0FF3823F0004351
:105A0000CDF850C065280CD006DC452809D04628C2
:105A10001DD047283DD13DE0662818D067287ED1AB
:105A200038E00021112F01DB112000E0781CCDE9C6
:105A3000000106A90EA8FFF7EDFCDDE90F010E9AA3
:105A400003910021009207F1010A04914DE04FF00B
:105A500000400097CDE9011006A90EA8FFF7DAFC77
:105A6000DDE90F0203920E9B11990022DDF80CA0D4
:105A70000093049211B9791C00EB010AB7EB0A00FC
:105A800004D4C0F1FF3007F1010A0490AAEB07002B
:105A9000019044E0012F00DA01270021112F01DDE0
:105AA000112000E03846CDE9000106A90EA8FFF755
:105AB000B1FCDDE90F010E9A0391002104910092DF
:105AC000BA4621070CD40399514500DA8A46BAF147
:105AD000010F05DD009AAAF10101515C302908D0BF
