:020000040800F2
:10000000A826002001010008911600089513000899
:100010008D160008CB0D0008EF400008000000001E
:10002000000000000000000000000000991E000811
:10003000D90E0008000000001D1B0008153B000839
:100040001B0100081B0100081B0100081B01000820
:100050001B0100081B0100081B0100081B01000810
:100060001B0100081B0100081B0100081B01000800
:100070001B0100081B0100081B0100081B010008F0
:100080001B0100081B0100081B0100081B010008E0
:100090001B0100081B0100081B0100081B010008D0
:1000A0001B0100081B0100081B0100081B010008C0
:1000B0001B0100081B0100081B0100081B010008B0
:1000C0001B0100081B0100081B0100081B010008A0
:1000D0001B010008F13D0008D13E0008F93E000870
:1000E0001B0100081B0100081B010008DFF80CD0F1
:1000F00000F042FC004800476D4F0008A826002091
:100100000648804706480047FEE7FEE7FEE7FEE7B1
:10011000FEE7FEE7FEE7FEE7FEE7FEE7953B0008A9
:10012000ED00000840EA01039B0703D009E008C97D
:10013000121F08C0042AFAD203E011F8013B00F8AC
:10014000013B521EF9D27047D2B201E000F8012BF8
:10015000491EFBD270470022F6E710B513460A4647
:1001600004461946FFF7F0FF204610BD421E12F864
:10017000013F002BFBD111F8013B02F8013B002BA2
:10018000F9D17047034611F8012B00F8012B002A22
:10019000F9D11846704730B480EA010202F00045F8
:1001A00030F0004221F0004013D090B1C30DD40DC7
:1001B000C2F31601C0F31600E41A41F4000140F442
:1001C00000027D34914201D3641C00E04900002C00
:1001D00002DA30BC002070474FF400000023914247
:1001E00001D3891A034340084FEA4101F7D151B1C5
:1001F000914202D14FF0004105E002D24FF00101DF
:1002000001E06FF0010103EBC450284430BC00F062
:10021000ABBA2DE9FE4F804681EA0300C00F0C46C1
:10022000009021F0004123F00045B8EB0200A94105
:1002300005D24046214690461C460B46024623F016
:100240000040104347D0270DC7F30A00C3F30A51FB
:100250000290401A019040286BDAC3F3130040F477
:10026000801B0098924620B10023D2EB030A63EB77
:100270000B0B01985946C0F14002504600F043FA7A
:1002800006460D4650465946019A00F05BFA10EBBF
:1002900008006141002487EA115284EAE7731A4397
:1002A00040D0009A62B3019A012A4FEA075215DC46
:1002B000001B61EB02014FF0004202EA0752CDE958
:1002C0000042001C41F5801132462B4600F092FAA4
:1002D00003B0BDE8F08F40462146F9E7001B61EB13
:1002E0000201001C41F5801300185B412018A2F5A3
:1002F000001747EB030140EAD570B6196D4111E0D4
:100300006D084FEA360645EAC0754FEA0752001BF2
:1003100061EB0201001C41F5801149084FEA3000F1
:100320000019514132462B4603B0BDE8F04F00F0B2
:1003300052BA0098012240000023D0EB020263EB86
:10034000E073009821464FEAE074B8EB000061EBDF
:100350000401E9E783F000435BE781F0004158E7DF
:100360002DE9FE4F81EA030404F0004421F000412E
:1003700000944FF0000B23F0004350EA01045ED0DC
:1003800052EA03045BD0C3F30A54C1F30A552C4468
:10039000A4F2F3340194A0FB0254C1F3130141F41D
:1003A0008011C3F3130343F4801301FB024400FBE9
:1003B000034E840A970A44EA815447EA8357A4FB10
:1003C000076802958D0A05FB07854FEA932C04FB0D
:1003D0000C542705029D4FEA065847EA1637B5EB3D
:1003E00008056EEB070C870E920E47EA811742EA6A
:1003F0008312A7FB0201B6EB0B0164EB00042B0D8B
:1004000043EA0C335E1844EB1C50DA465146E7FBD6
:100410000201C5F313044FEA0B3343EA14534FEAC6
:100420000432019C43EA0603A4F10C040294009CEC
:10043000CDE900B400F0DEF903B0BDE8F08F002094
:100440000146F9E72DE9F04D81EA030404F0004B81
:1004500021F0004514464FF0000A23F0004150EA15
:10046000050220D054EA01021DD0C5F30A57024606
:10047000C5F31303C1F31300C1F30A5640F480150A
:1004800043F48013A7EB0608101BD64608F2FD388C
:1004900073EB050002D308F1010801E092185B41FB
:1004A000B8F1000F03DA00200146BDE8F08D00200E
:1004B0004FF48011064684460EE0171B73EB0507C8
:1004C00005D3121B63EB050306434CEA010C4908F4
:1004D0004FEA300092185B4150EA0107EDD152EA31
:1004E000030012D082EA040083EA0501084305D024
:1004F000101BAB4106D20122002306E000224FF080
:10050000004302E06FF0010253101AEB06004CEBBF
:10051000085110EB0A0041EB0B01BDE8F04D00F073
:100520005AB9C10F80EAE0700844CA079623002137
:1005300000F023B996230022114600F01EB90EB533
:10054000C10F80EAE0700844CA07002140F233433B
:100550008DE80E000A460B4600F04CF903B000BDD2
:100560000EB540F2334102910021CDE900110A4657
:100570000B4600F03FF903B000BD70B5C1F30A525D
:1005800001F000450024C1F3130140F2FF3341F4B0
:1005900080119A4201DA002070BD40F233439A4242
:1005A000A2F2334203DC524200F0BCF800E090407B
:1005B0002C43F1D0404270BDC1F30A5210B5C1F3D3
:1005C000130140F2FF3341F480119A4201DA002016
:1005D00010BD40F233439A42A2F2334203DC52424E
:1005E00000F0A0F810BD904010BD00F0004230F0C7
:1005F00000400AD0C10D01F56071C0F3160042EA57
:100600000151C2084007114370470020014670475E
:1006100030B5041E71F1000404DB4FF00044404289
:1006200064EB0101141E73F1000405DB1C464FF05E
:100630000043524263EB04038B4208BF824230BD49
:1006400001F0004330B421F0004150EA010206D02D
:100650000A0DA2F56072C1F31301002A02DC30BC5E
:1006600000207047440F44EAC104C100E01830BCC8
:1006700000EBC25000F078B830B50B4601460020C0
:100680002022012409E021FA02F59D4205D303FA54
:1006900002F5491B04FA02F52844151EA2F10102D5
:1006A000F1DC30BD2DE9F05F0546002092469B4607
:1006B00088460646814640241BE028464146474678
:1006C000224600F02FF853465A46C01A914110D3E3
:1006D00011461846224600F016F82D1A67EB01085D
:1006E0004F4622460120002100F00DF817EB0009CB
:1006F0004E41201EA4F10104DFDC484631462A4663
:100700004346BDE8F09F202A04DB203A00FA02F1BC
:10071000002070479140C2F1200320FA03F31943EF
:1007200090407047202A04DB203A21FA02F0002191
:10073000704721FA02F3D040C2F1200291400843F1
:1007400019467047202A06DBCB17203A41FA02F0FF
:1007500043EAE07306E041FA02F3D040C2F120021E
:1007600091400843194670470029A8BF7047401CB4
:10077000490008BF20F00100704710B4B0FA80FCB7
:1007800000FA0CF050EA010404BF10BC704749B1F4
:10079000CCF1200421FA04F411FA0CF118BF012164
:1007A00021430843A3EB0C01CB1D4FEA00614FEA44
:1007B000102042BF002010BC704700EBC350104413
:1007C0000029A4BF10BC7047401C490008BF20F09E
:1007D000010010BC704710B5141E73F1000408DA54
:1007E000401C41F1000192185B411A4301D120F0F5
:1007F000010010BD2DE9F04D92469B4611B1B1FAB2
:1008000081F202E0B0FA80F220329046FFF77BFFDF
:1008100004460F4640EA0A0041EA0B0153465A4695
:10082000084313D0114653EA010019D0C8F1400221
:100830005046FFF777FF05460E465046594642465A
:10084000FFF761FF084305D0012004E02046394648
:10085000BDE8F08D0020054346EAE0762C4337439F
:100860000A986305E40AA0EB08000022FD0A44EAA6
:1008700047540A3002D500200146E9E70105101966
:100880006941DDE9084500196941BDE8F04DA2E77D
:100890002DE9F041054621F000400C46284309D0DF
:1008A000C4F30A5040F23341884205DD2846214610
:1008B000BDE8F0812846FBE740F2FE31884210DCBB
:1008C0000CDB4FEA043040EA155050EA053105D000
:1008D000104804F0004101430020E9E700200146F0
:1008E000E6E7A0F233404642C6F1400228462146E0
:1008F000FFF709FF07468846284621463246FFF79C
:1009000011FF43463A46FFF766FF3246BDE8F04125
:10091000FFF7F9BE0000F03FC1F30A52C1F3130123
:1009200040F2FF3341F480119A4202DA002001467E
:10093000704740F233439A42A2F2334202DC524201
:10094000FFF7F0BEFFF7DFBE30B5041E71F1000403
:1009500004DB4FF00044404264EB0101141E73F1CC
:10096000000405DB1C464FF00043524263EB0403D6
:10097000994208BF904230BD064C074D06E0E06842
:1009800040F0010394E8070098471034AC42F6D3D6
:10099000FFF7B0FB4C6B00086C6B000870B58C184F
:1009A00010F8015B15F0070301D110F8013B2A1183
:1009B00006D110F8012B03E010F8016B01F8016B70
:1009C0005B1EF9D12B0705D40023521E0DD401F86C
:1009D000013BFAE710F8013BCB1A921C03E013F835
:1009E000015B01F8015B521EF9D5A142D8D300206A
:1009F00070BD21B1826842F00102826003E082682A
:100A000022F001028260704700B587B001214FF4E7
:100A1000047001F071F90220ADF8180000208DF883
:100A20001B0006A91D4800F0A9FA00200190012032
:100A30008DF808008DF809004FF460200390002025
:100A4000049001208DF8140001A9154800F04EF81B
:100A5000052301220921124800F070F801211048F5
:100A600000F020F801210E48FFF7C3FF0C4800F00A
:100A7000C1F800BF0A4800F02EF80028FAD1084853
:100A800000F0C8F800BF064800F017F80028FAD1B7
:100A90000121034800F0B3F807B000BD000C01408D
:100AA0000024014021B1826842F48072826003E038
:100AB000826822F4807282607047014600208A6852
:100AC00002F004020AB1012000E000207047014654
:100AD000C86C80B27047014600208A6802F00802A4
:100AE0000AB1012000E000207047000030B5024646
:100AF0000020002350680F4C20400D790C6844EA18
:100B000005242043506090680B4C2040D1E90254EA
:100B10002C434D7944EA450420439060D06A20F488
:100B200070000C7C641EE4B2234340EA0350D062A0
:100B300030BD0000FFFEF0FFFDF7F1FFF0B5044609
:100B40000D4600200021092D11DDE068A5F10A06FF
:100B500006EB4607072606FA07F18843A5F10A06C1
:100B600006EB460603FA06F10843E0600CE0206954
:100B700005EB4507072606FA07F1884305EB45060E
:100B800003FA06F108432061072A0FDA606B561E4C
:100B900006EB86071F2606FA07F18843561E06EB6A
:100BA000860605FA06F10843606322E00D2A0FDA93
:100BB000206BD61F06EB86071F2606FA07F188432F
:100BC000D61F06EB860605FA06F10843206310E0FF
:100BD000E06AA2F10D0606EB86071F2606FA07F16A
:100BE0008843A2F10D0606EB860605FA06F10843D6
:100BF000E062F0BD816841F008018160704721B179
:100C0000826842F4A002826003E0826822F4A002BB
:100C100082607047816841F0040181607047000084
:100C200070B51348FFF753FF1249134A128821F891
:100C3000120011480088401C80B20F490880142817
:100C400001DB002008800025002405E0094830F879
:100C500014000544601C84B2142CF7DB1420B5FB8F
:100C6000F0F00649088001210148FFF7C8FF70BD78
:100C7000002401401C0B0020340000201400002040
:100C800038B500F065FA85B240F6E4406843C0EB41
:100C9000C000400040F6FF71B0FBF1F00B21B0FB4B
:100CA000F1F084B240F6EC60844208DB2E48022367
:100CB0007F22002100905F2000F05FFD53E040F6AE
:100CC0007460844208DB294802237F2200210090BF
:100CD0005F2000F052FD46E040F6AC50844208DB55
:100CE000234802237F22002100905F2000F045FD71
:100CF00039E040F64850844208DB1E4802237F2238
:100D0000002100905F2000F038FD2CE040F61650E6
:100D1000844208DB184802237F22002100905F20D4
:100D200000F02BFD1FE040F6EE4084420EDB12483F
:100D300002237F22002100905F2000F01EFD02238D
:100D40000EA20421182000F049FE0CE000F0C9FDBD
:100D50004FF48051104800F0F2F9002002F0F4FA4C
:100D6000002002F07BF938BD94050020D405002056
:100D70001406002054060020940600204C6F7720B3
:100D8000506F7765722C506C6561736520436861A4
:100D900072676521000000000008014010B500F0F6
:100DA0009DF802F0CFFF03F03DF802F063FE03F080
:100DB0004FFF04F01DFD00F011FB00F035FDFFF7C3
:100DC00023FE022002F016FF10BD00BFFEE7000068
:100DD00038B5044600200090002525E04FF48071CE
:100DE0001A4800F0A3F99DF800100844C0B28DF82D
:100DF00000004FF40061164800F098F99DF80110CA
:100E00000844C0B28DF801004FF48061104800F032
:100E10008DF99DF802100844C0B28DF8020014202C
:100E200003F0FCFE681CC5B2072DD7DB00200AE0EA
:100E30001DF80010022902DC0121215401E00021EB
:100E40002154411CC8B20328F2DB38BD0008014020
:100E5000000C014010B54FF40041024800F066F963
:100E6000044610BD000801400548006820F4807069
:100E7000034908600846006840F4807008607047C5
:100E8000140C01400548006820F00F000349086079
:100E90000846006840F0040008607047040C0140F8
:100EA0000548006820F00F00034908600846006804
:100EB00040F0030008607047040C014005480068DA
:100EC00020F48070034908600846006840F4807090
:100ED00008607047100C01407047000008B5012100
:100EE000042000F009FF0121082000F005FF012186
:100EF000102000F001FF0121084600F0FDFE012155
:100F00001B4800F0C7F84FF4C050ADF800000320B4
:100F10008DF8020010208DF803006946154800F096
:100F20002DF84FF40140ADF8000003208DF80200C9
:100F300004208DF8030069460E4800F01FF84FF4B6
:100F40004060ADF8000003208DF8020004208DF809
:100F500003006946084800F011F84FF48051054835
:100F600000F0EDF84FF40061024800F0E8F808BD29
:100F70000002300000080140000C01402DE9F04162
:100F8000024600250026002000230024002791F8B7
:100F900003C00CF00F0591F803C00CF0100CBCF16D
:100FA000000F03D091F802C04CEA050591F800C08B
:100FB000BCF1000F31D0146800202BE04FF0010C81
:100FC0000CFA00F3B1F800C00CEA03069E4220D1EF
:100FD00083004FF00F0C0CFA03F7BC4305FA03FC37
:100FE0004CEA040491F803C0BCF1280F06D14FF07D
:100FF000010C0CFA00FCC2F814C00AE091F803C01E
:10100000BCF1480F05D14FF0010C0CFA00FCC2F8FE
:1010100010C0401C0828D1D31460B1F800C0BCF146
:10102000FF0F34DD546800202EE000F1080C4FF073
:10103000010808FA0CF3B1F800C00CEA03069E425E
:1010400021D183004FF00F0C0CFA03F7BC4305FAD3
:1010500003FC4CEA040491F803C0BCF1280F05D14D
:1010600000F1080C08FA0CF8C2F8148091F803C0DB
:10107000BCF1480F07D100F1080C4FF0010808FA45
:101080000CF8C2F81080401C0828CED35460BDE88C
:10109000F0810000F0B50A4600230024002100255D
:1010A00000F00046B6F1004F02D11D4EF16901E09B
:1010B0001B4E7168C0F3034583B200F44016B6F5C9
:1010C000401F08D121F07061154E766826F07066D9
:1010D000134F7E6012E000F48016B6F5801F06D133
:1010E000032606FA05F4A14341F0706106E0460DBF
:1010F000360103FA06F6B14341F0706122B1460DA4
:10110000360103FA06F6314300F00046B6F1004F0F
:1011100002D1034EF16101E0014E7160F0BD0000AB
:1011200000000140C2684A40C26070470246002089
:1011300093680B400BB1012000E000207047416133
:101140007047016170470AB1016100E04161704779
:10115000012080F3108800BF03480188002080F33D
:10116000108800BF084670471400002000B5FFF744
:1011700089FE0648006882B202F48070B0F5807F74
:1011800001D1012000BD0020FCE70000080C014057
:10119000054909680160044908310968416002494C
:1011A000091D096881607047E8F7FF1F70B50020CE
:1011B0006549086003F0B8FECC2004F041FEBE2073
:1011C00004F03EFE04F0AAFA054604F0A7FA04462D
:1011D00004F0A4FA5D49086004F0A0FA5C490860D4
:1011E00004F09CFA5B49086004F098FA5A490860D8
:1011F00004F094FA5949086004F090FA58490860DC
:1012000004F08CFA57490860072C19DD0120564973
:10121000087045EA04204C49086008460068C0434D
:10122000401C08600846006840F271214843464966
:10123000086008460068A0F543405038086013E095
:1012400000204949087045EA04203F4908600846E3
:10125000006840F2712148433B4908600846006835
:10126000A0F5434050380860374800683F4990FB7C
:10127000F1F03F490860344800683C4990FBF1F2C6
:1012800001FB12003B4990FBF1F0394948602E48C0
:10129000006842F2107190FBF1F0642190FBF1F2D2
:1012A00001FB12000A2190FBF1F201FB1200304910
:1012B00088602548006842F2107190FBF1F201FB52
:1012C00012004FF47A7190FBF1F0294908611E4831
:1012D00000684FF47A7190FBF1F201FB1200642177
:1012E00090FBF1F0224948610846006864214843B8
:1012F0001F49496801EB810100EB41001C498968E5
:1013000008441B49C860084600694FF47A71484395
:101310001749496901EBC10202EB011100EB8100A1
:101320001349896901EB810100EB41001049C9694A
:1013300008440F4908620846007B0F4908700C48B2
:10134000008C0E49088070BD6C0000204C0000200D
:101350005000002054000020580000205C000020B5
:1013600060000020640000207000002040420F0058
:10137000B40B0020A0860100710000207200002044
:1013800010B503F0D1FDCC2004F05AFD442004F048
:1013900057FD10BD00BFFEE770B5024600240025D2
:1013A00000230020958A138B1B0445EA030626F0D0
:1013B0007F4404EA01068E4201D1012000E00020B2
:1013C00070BD21B1028842F00102028004E002886F
:1013D0004FF6FE731A4002807047000000B585B0DA
:1013E0000121480500F068FC0121082000F084FC80
:1013F000C020ADF8000003208DF802001C208DF8FD
:10140000030069461148FFF7B9FD114800F024F8C0
:101410000020ADF808004BF6FF70ADF80A00302050
:10142000ADF80C004FF48060ADF80E000001ADF88F
:1014300010000848019001210548FFF7C2FF01A9EB
:10144000034800F05BF805B000BD0000000C01404F
:1014500000540040801A060010B504460B48844230
:1014600009D10121480500F037FC00214FF400109C
:1014700000F032FC08E00121880500F02DFC00217D
:101480004FF4800000F028FC10BD00000054004024
:1014900021B1028842F48072028004E002884FF693
:1014A000FF631A400280704721B1028842F4007243
:1014B000028004E002884FF6FF531A400280704712
:1014C0000CB50246002000230193009300920B0FFD
:1014D000019321F07F41019B1BB1009B14330093CA
:1014E00003E0090C009B18330093009B1B680B4022
:1014F0000BB1012000E000200CBD00002DE9F043FD
:1015000085B004460D460026B1460427DFF8CC809E
:10151000A6884FF6C0700640684600F0FDFBDDF877
:1015200008802F48B8FBF0F01FFA80F946EA090658
:10153000A68020884FF6FE710840208000262949A9
:10154000286888420CD828684000B8FBF0F087B2C1
:10155000042F00DA04273E4309F10100208427E02C
:10156000E8884BF6FF71884206D1286800EB4000FE
:10157000B8FBF0F087B209E0286800EBC00101EB8E
:101580000010B8FBF0F087B247F48047C7F30B00B8
:1015900008B947F0010747F4004006434FF496703E
:1015A00009FB00F04FF47A7190FBF1F0401C2084AD
:1015B000A683208840F00100208026884FF6F53071
:1015C0000640A8886989084306432680A889298996
:1015D0000843208105B0BDE8F083000000127A00C6
:1015E00040420F00A086010012B141F0010102E06B
:1015F0004FF6FE7319400182704701827047000068
:1016000070B504460D4600BF4FF400311C48FFF78B
:1016100057FF0028F8D101211948FFF739FF00BF13
:1016200018491748FFF7B8FE0028F9D000227821A2
:101630001348FFF7D9FF00BF13491148FFF7ACFE6D
:101640000028F9D021460E48FFF7D7FF00BF0E490A
:10165000891C0B48FFF7A0FE0028F8D0294608484F
:10166000FFF7CBFF00BF0849891C0548FFF794FE30
:101670000028F8D001210248FFF716FF70BD0000D6
:1016800000540040010003008200070000BFFEE795
:101690007047000070B5002100230F22C47804B306
:1016A000154C246804F4E064C4F5E064210AC1F137
:1016B0000403CA40447804FA03F1847814402143B7
:1016C00009010E4C0678A155047804F01F05012489
:1016D000AC4005786D11AD0005F1E025C5F800417D
:1016E00009E0047804F01F050124AC40044D06789D
:1016F000761145F8264070BD0CED00E000E400E0F6
:1017000080E100E010B5002000F071F810BD70B568
:10171000002415E004F1B001C8B202F0D7FD0020AA
:1017200002F0D4FD102002F0D1FD002504E00020DD
:1017300002F0D3FD681CC5B25F2DF8DB601CC4B29B
:10174000022CE7DB022415E004F1B001C8B202F07C
:10175000BDFD002002F0BAFD102002F0B7FD00250B
:1017600004E0002002F0B9FD681CC5B2802DF8DB52
:10177000601CC4B2082CE7DB70BD2DE9F05F0646A3
:101780000F4690461C46DDF828A04FF0000BE117ED
:1017900004EB5171C910A4EBC10131B92046E11726
:1017A00004EB5171C1F3C70506E02046E11704EBD5
:1017B0005171C910491CCDB23D4614E0294630464E
:1017C00000F0CEF8B1460AE059460BF1010B1AF8C9
:1017D000010002F082FD09F1010000F0FF09C1459E
:1017E000F2DB681CC5B2A542E8DBBDE8F09F70B52E
:1017F0000646002415E004F1B001C8B202F066FD0F
:10180000002002F063FD102002F060FD002504E0DE
:10181000304602F062FD681CC5B2802DF8DB601C0A
:10182000C4B2082CE7DB70BD10B54FF47A7003F03A
:10183000F5F9AE2002F04AFD202002F047FD10200D
:1018400002F044FDB02002F041FDC82002F03EFD50
:10185000002002F03BFD102002F038FD402002F095
:1018600035FD812002F032FDFF2002F02FFDA12086
:1018700002F02CFDA62002F029FDA82002F026FD92
:101880003F2002F023FDA42002F020FDD32002F02F
:101890001DFD002002F01AFDD52002F017FDF020FA
:1018A00002F014FDD92002F011FD222002F00EFDFD
:1018B000DA2002F00BFD122002F008FDDB2002F01E
:1018C00005FD202002F002FD8D2002F0FFFC142017
:1018D00002F0FCFCAF2002F0F9FC2E2002F0F6FC36
:1018E00010BD10B58D2002F0F1FC102002F0EEFCCE
:1018F000AE2002F0EBFC10BD10B50446022C00D265
:1019000002242146012003F0EFF900F012F80DE067
:10191000012003F06DF948B12E2002F0D7FC4FF4FE
:10192000FA7003F07BF9FFF7EDFE00E0F0E700BF8F
:1019300010BD10B5292002F0C9FC002002F0C6FC41
:10194000002002F0C3FC002002F0C0FC022002F0E4
:10195000BDFC002002F0BAFC2F2002F0B7FC10BD45
:1019600070B504460D4605F1B001C8B202F0AEFCF8
:10197000102141EA141002F0A9FC04F00F0141F01B
:10198000010002F0A3FC70BD2DE9F04180460E4637
:10199000174600247D0131464046FFF7E1FF00BFB6
:1019A00006E00D49485D02F098FC6D1C601CC4B255
:1019B000102CF6DB701CC1B24046FFF7D1FF0024AB
:1019C00006E00549485D02F088FC6D1C601CC4B24D
:1019D000102CF6DBBDE8F081740000202DE9F04703
:1019E0000646894617469A464FF00008002400250F
:1019F000BAF1010F06D0BAF1020F29D0BAF1030FE4
:101A000025D15DE020E0785D203800F0FF087E2ED3
:101A100004DD002609F1010000F0FF0949463046C7
:101A2000FFF79EFF002409E008EB4801384A02EB6B
:101A30004101085D02F051FC601CC4B2062CF3DBCE
:101A4000B01DC6B2681CC5B2785D0028DBD15CE071
:101A500032E0785D203800F0FF08782E04DD0026A3
:101A600009F1020000F0FF0949463046FFF778FF10
:101A7000002407E004EB0811264A505C02F02DFC1C
:101A8000601CC4B2082CF5DB09F10100C1B230467C
:101A9000FFF766FF002408E004EB081108311D4A37
:101AA000505C02F01AFC601CC4B2082CF4DB06F196
:101AB0000800C6B2681CC5B2785D0028C9D124E010
:101AC0001FE0785D203800F0FF08782E04DD002646
:101AD00009F1010000F0FF0949463046FFF740FFD9
:101AE000002407E00C4901EBC801085D02F0F5FB9A
:101AF000601CC4B2082CF5DB06F10800C6B2681CF5
:101B0000C5B2785D0028DCD100BF00BFBDE8F0871A
:101B1000765E00089E6300089E6000087047000023
:101B200000B58BB0202103A8FEF715FB28A002F01A
:101B3000DBFB35A237A13AA002F0D6FB3F48C078C4
:101B400000903E488378427801783DA002F0CCFBBB
:101B50004148806803BA4048406802BA3E4800687D
:101B600001BA3EA002F0C0FB19A002F0BDFB0123A8
:101B700041A203210020FFF731FF3048C0782F49F0
:101B80008978CDE900102D484378027840A103A858
:101B900002F0BAFB012303AA04210020FFF71EFF75
:101BA000202103A8FEF7D7FA1AA23FA103A802F04A
:101BB000ABFB012303AA05210020FFF70FFF012340
:101BC0002DA206210020FFF709FF0BB000BD000089
:101BD0002A2A2A2A2A2A2A2A2A2A2A2A2A2A2A2A65
:101BE0002A2A2A2A2A2A2A2A2A2A2A2A2A2A2A2A55
:101BF0002A2A2A2A2A2A2A2A2A2A2A2A2A2A2A2A45
:101C00002A2A0D0A0000000031373A30393A3431BF
:101C10000000000041756720313320323031370039
:101C20002A2052656C656173652044617465203AB1
:101C30002025732025730D0A0000000008000020F5
:101C40002A204657205265763A2025642E25642E98
:101C500025642E25640D0A00680800202A204857B4
:101C60002049443A2025303858202530385820253E
:101C70003038580D0A0000002A2A2A2A2A2A2A2A3D
:101C80002A2A2A2A2A2A2A2A2A2A2A2A2A00000032
:101C90002A204657205265763A2025642E25642E48
:101CA00025642E25640000002A2052654461746575
:101CB0003A2025730000000029B1064AD269024388
:101CC000044BDA6104E0034AD2698243014BDA61D2
:101CD000704700000010024029B1064A1269024311
:101CE000044B1A6104E0034A12698243014B1A61F2
:101CF000704700000010024029B1064A9269024371
:101D0000044B9A6104E0034A92698243014B9A6151
:101D1000704700000010024030B50021002200246E
:101D200000232D4D6D6805F00C0121B1042905D06B
:101D3000082923D105E0294D056022E0274D0560E3
:101D40001FE0254D6D6805F47012234D6D6805F494
:101D50008034022505EB92421CB9214D55430560A4
:101D60000BE01D4D6D6805F400351DB11C4D55434C
:101D7000056002E0194D5543056002E0174D05600E
:101D800000BF00BF144D6D6805F0F0010909154D45
:101D90006B5C0568DD4045600F4D6D6805F4E061E2
:101DA000090A104D6B5C4568DD4085600A4D6D6821
:101DB00005F46051C90A0B4D6B5C4568DD40C56098
:101DC000054D6D6805F44041890B074D6B5CC56896
:101DD000B5FBF3F5056130BD0010024000127A003A
:101DE00000093D00C8070020D8070020074808491F
:101DF000086008484860084888600848C860084883
:101E00000861084848610846704700004D260008F0
:101E1000201C00204F350008A536000829260008A0
:101E2000813600087134000821B1028842F0400276
:101E3000028004E002884FF6BF731A4002807047A8
:101E40000246002013890B400BB1012000E0002066
:101E500070470146888970478181704710B500221C
:101E6000028802F441520B884C8823438C88234318
:101E7000CC8823430C8923434C8923438C892343F7
:101E8000CC8923431A430280838B4FF2FF74234093
:101E900083830B8A038210BD7047000030B516485B
:101EA000006890F8270000F00700421C1248006804
:101EB00090F83000C3091048006890F8300000F036
:101EC000060008B1012000E0002004460A4800682E
:101ED00090F832100848006890F8300000F01000C8
:101EE000102801D1022000E000200546D01820442F
:101EF0000844284480B230BD3407002070B5054640
:101F00000C4606480088208000200449088022886A
:101F100003492846FEF706F970BD00004807002077
:101F2000A81C00202DE9F04F89B001200890F84846
:101F300000780C287ED2DFE800F0060784EFEDEC95
:101F4000EBEAE9E8E7E6BFE2F248006890F8300023
:101F500000F01000102805D14C20EE49096881F8E6
:101F6000400004E00C20EB49096881F84000E120C2
:101F7000E849096881F841000222E64801684031D9
:101F8000402001F0A5FB052000F002FB4FF480711A
:101F9000E148FEF7E0F8E1494868FEF7E1FACDE9EB
:101FA0000201FFF77BFF0190FEF7DAFA804600227C
:101FB000DB4BFEF7D5F90646DDE90223FEF742FAD0
:101FC0000022D84BCDE90401FEF7CAF9CDE906019C
:101FD00003F0C4FB04460022D34BFEF71AF98246F5
:101FE000FEF7EAFA80B2D14908600846006800EBC3
:101FF0005000086008460068CD490860CD48006878
:10200000CD490860CD490860A020C249096881F81F
:102010003500C048006890F83510352001F050FBBD
:102020000020C7490870C7490870C7490870C749E8
:10203000087000E047E2C64908800220B4490870F1
:1020400042E201F073FA012809D1BD48007830B9A5
:102050000120BB490870B7480068B849086001F022
:1020600053FA01281ED1B648007801281AD1B54884
:102070000078B8B90120B349087000F063FAB54A96
:1020800003C200F037FAB449086000F073FAB349AC
:102090000870A8480068A8490860A849086003209B
:1020A0009B490870A7480078B8B9A548007801286E
:1020B00013D1A0480068A1490968401A9C490968E1
:1020C00088420AD901209249087092480068407BF2
:1020D00040F020010D2001F0F3FA9A48007888B909
:1020E0009748007870B99848007858B991480068C6
:1020F00091490968401A8D490968884202D905202A
:1021000083490870E0E1D8E1D1E184E14FE127E1C2
:10211000EAE0D6E0CCE0FFE78D480088B0F5807FAC
:1021200003DD06207A490870CEE101F0E3F90128C9
:1021300053D187480088A8B98448007890B9754879
:10214000006890F8300000F08000802804D1012160
:102150007F4801F0F3F905E06E48006890F832001E
:102160007B4908807A48008878490978401A69498B
:10217000096891F8351001F03F01884217DD654A82
:10218000126892F8352002F03F01634A6F4B1B78CA
:10219000D01801F0D3F95F48006890F8350000F0DE
:1021A0003F006A49097808446849087015E0684AA0
:1021B0001278664B1B78D21AD1B2574A634B1B7800
:1021C000D01801F0BBF96248007860490978401ADC
:1021D0005E49097808445D49087001F081F90128D9
:1021E00056D154480068544908605948008890BB4B
:1021F0005648007878BB4748006890F8300000F0F7
:102200008000802804D10121514801F097F905E0B0
:102210004048006890F832004D4908804C4A1278D6
:102220004A4B1B78D21AD1B23B4A484B1B78D01884
:1022300001F084F94648007844490978401A434936
:10224000097808444149087001203F49087004207A
:102250002F4908701CE0FFE73D4A12783B4B1B7882
:10226000D21AD1B22C4A394B1B78D01801F066F93A
:102270003748007835490978401A344909780844C4
:102280003249087001203049087004202049087044
:102290002D48007858B92748006827490968401A2E
:1022A00022490968884202D90520194908700BE1C2
:1022B0000020264908700120154908700220089066
:1022C00002E1002021490870214908801148006876
:1022D000407B40F020010D2001F0F2F901200C4973
:1022E000087003200890EFE0002018490870184992
:1022F000088008480068407B40F020010D2001F074
:10230000DFF901200249087006200890DCE0000097
:102310003907002034070020A81C002018070020DF
:102320000000204000408F400000F03F3C070020AC
:1023300040070020B007002060070020640700204D
:102340004407002045070020460700204A070020D8
:102350004807002050070020580700205C07002095
:1023600001205C49096881F840002020594909682A
:1023700081F841000222574801684031402001F0B5
:10238000A7F998205349096881F835005148006839
:1023900090F83510352001F093F9032000F0F8F89B
:1023A00008204D49087000204C4908708CE001F06D
:1023B000B5F801282ED14748006890F8300000F0A9
:1023C0008000802803D10121454801F0A1F944484B
:1023D0000088002808DD42480088402804DC404886
:1023E00000784049087002E020203E4908703D48CE
:1023F00001783D4801F08CF938480078394909786E
:10240000084436490870394800683949086009208D
:102410003149087058E001F06DF870BB3048008811
:102420002E490978401A2F49097888420FDD2E4934
:102430002A4A127888182B49097801F069F9274847
:1024400000782849097808442449087015E0244A8E
:102450001278224B1B78D21AD1B2234A1F4B1B7819
:10246000D01801F055F91E4800781C490978401A27
:102470001A49097808441949087001F031F801280F
:1024800009D11A4800681A4908600A2012490870E0
:10249000012000F07DF81548006815490968401AC8
:1024A000B0F57A7F02D90B200B4908700CE00020B0
:1024B000094908700420089006E0002006490870C9
:1024C0000520089000E000BF00BF089809B0BDE8F3
:1024D000F08F000034070020390700204B07002050
:1024E0006807002038070020A81C0020B007002043
:1024F0006C0700202DE9F0470222104801681B31CB
:102500001B2000F0CBFF0D490968097F0B4A1268B8
:10251000D27E41EA0220FEF712F88046FEF72DF83F
:102520008246FEF70CF806460022054BFDF718FF21
:102530000446FEF722F8BDE8F087000034070020CB
:10254000A8CB484070B50A4801681131112000F04D
:102550009BFF07490968487CFEF702F80446002201
:102560004FF08043FDF76EFF81F0004170BD000029
:102570003407002010B5054801680C310C2000F02C
:1025800083FF02480068007B400910BD340700202B
:1025900070B50446002514480068407820F0F80023
:1025A000124908700846007884421CD0032C01D1DF
:1025B000012500E000250E480078854204D00C4833
:1025C0000570284601F0ADF807480068407800F033
:1025D000F8002043044909684870034800684178BE
:1025E000012001F06DF870BD340700207007002055
:1025F000710700200149087070470000390700206A
:1026000070B504460D4605480580028821460448F9
:10261000FDF788FD07200349087070BD680700209A
:10262000A81C00203907002070B504460D46064856
:10263000007820B929462046FFF760FC03E02946D0
:10264000204600F095F870BD140700201CB5164810
:10265000164908601649086000F040F800F077FF5E
:1026600001A9062000F010FF6946422000F00CFF8F
:102670000CE010A001F038FE022312A2032100207A
:10268000FFF7ACF94FF4FA6002F0C8FA9DF80400C5
:102690006C28EED10120104908700846007800F03F
:1026A00065FF00F079F81CBD381C002034070020BD
:1026B000900700204861726420535049204572728F
:1026C000210D0A005246204D6F64756C65204572DD
:1026D000726F7221000000001407002008B501216C
:1026E0001D20FFF709FB10208DF8030003208DF853
:1026F000020001F087F904208DF80300C002ADF854
:10270000000069461448FEF739FC4FF48040ADF8EC
:10271000000069461048FEF731FC4FF40040ADF868
:10272000000069460C48FEF729FC0120ADF80000C6
:1027300069460A48FEF722FC0220ADF8000069460F
:102740000648FEF71BFC1020ADF80000694604485F
:10275000FEF714FC08BD0000001001400008014015
:10276000000C0140014800787047000094070020E9
:1027700070B505460C4606480088208000200449B4
:102780000880228803492846FDF7CCFC70BD000074
:1027900096070020A81D002010B500202D490870C4
:1027A00000F0D8FB6F222C49012000F077FE20209A
:1027B0002A49096808736F222749012000F088FF21
:1027C0002749086800F012FD2549887900F0E0FDEE
:1027D0002349C87900F0C8FB2149087A00F0B6FC0B
:1027E0001F49487900F0B6FD1D49487A00F0DCFB2E
:1027F00040F2FF3000F0FAFD1949087E00F0C6FCF7
:10280000012000F0EFFB102000F0D4FC1448006819
:10281000144988420DD9802000F052FC012000F0BC
:1028200069FC14200E49087191F9040000F00AFDBA
:102830000CE0002000F044FC002000F05BFC0E20C7
:102840000749087191F9040000F0FCFC012000F038
:1028500005FC10BD94070020391C002090070020C3
:10286000740700200057A6162DE9F04F85B001200F
:102870000490FE4800780B2874D2DFE800F00607C9
:1028800074CCFEFDFCFB73FAF90041E3012000F07B
:10289000E5FB9D20F64909684874F5480068417CCD
:1028A000112000F00DFFF348C07A012816D1F1483D
:1028B000007BEF49096881F82400ED4801681C316C
:1028C0001C2000F0E1FDEA490968097F01F03F01A1
:1028D000E94A52F8210000F089FC04E0FF20E449B5
:1028E000096881F82400E248006890F82410242048
:1028F00000F0E6FE0020DE49096881F83F00DC496F
:10290000096881F840000222D94801683F3140201F
:1029100000F0DEFED748807A012803D1062000F0BF
:102920009DFB0EE0D2480068C07BD149096848731E
:10293000CF480068417B0D2000F0C2FE052000F06A
:102940008DFB4FF48071CD48FDF705FCC948406907
:10295000CB490860CB480068CB4908600220C349D6
:102960000870D5E2D3E200F0BBFD01281ED1C548B6
:102970000068C5490860BF48C07A01280FD1BC482B
:1029800001681C311C2000F07FFDB9490968097FEE
:1029900001F03F01B84A52F8210000F027FC402125
:1029A000122000F08DFE0320B049087000F0ACFD4D
:1029B00001281FD1B3480068B3490860AD48C07A08
:1029C00001280FD1AA4801681C311C2000F05CFDD1
:1029D000A7490968097F01F03F01A74A52F8210081
:1029E00000F004FC0221122000F06AFE00F0A4FABC
:1029F000A64908709F48807A01280BD1A148006839
:102A0000A1490968401A9E490968884202D90420F0
:102A1000964908707CE2964801681231122000F055
:102A200033FD93480068807C00F0200020280ED100
:102A30002021122000F044FE8E48807A012802D125
:102A40008A49087002E002208849087060E203A900
:102A5000192000F019FD9DF80C0000F08000A0B1D5
:102A60009DF80C00C043401CC0F38500884905E078
:102A700031E20CE202E2D9E15EE157E1087008467A
:102A80000078404240B2087004E09DF80C008008D5
:102A90007F490870774800687E4988424ED27C485A
:102AA00090F9000000282ADA794890F90000FDF733
:102AB00046FD82468B466F484079774901EBC0005E
:102AC00003C802460B46CDE9000100207349FDF71B
:102AD00047FC0022724BCDE90201FDF79AFB064646
:102AE0000022704BFDF795FB044652465B46FDF70E
:102AF00090FB8046FDF7A4FD6B4908606BE05C48E5
:102B000001681A311A2000F0BFFC59490968887E13
:102B1000FDF726FD8046894656484079634901EB1A
:102B2000C000D0E90063324640464946FDF771FBDC
:102B30000446FDF785FD5C4908604CE0544890F977
:102B40000000002829DA524890F90000FDF7F7FC50
:102B500080468946474840794F4901EBC001D1E999
:102B60000063324600204D49FDF7FAFB044600227F
:102B70004B4BFDF74EFB00224D4BCDE90001FDF71D
:102B800048FB42464B46CDE90201FDF742FB824637
:102B9000FDF756FD444908601DE0354801681A31CB
:102BA0001A2000F071FC32490968887EFDF7D8FCD4
:102BB000804689462F4840793E4901EBC000D0E964
:102BC0000063324640464946FDF723FB0446FDF7C5
:102BD00037FD354908602748807A01282FD12448DD
:102BE0000068C07B22490968487321480068417B1E
:102BF0000D2000F065FD1F48407A01280DD11C48CA
:102C0000006890F822002C4908801948006890F864
:102C100022101A4800F092FC7BE01548016813313D
:102C2000132000F031FC12480068C07C2249088063
:102C30000F480068C17C114800F080FC69E00C4836
:102C400001681031102000F01FFC0A48407A01286A
:102C500042D10748006890F82200174908800448CC
:102C60000068007C02490968487327E09407002047
:102C70009007002074070020806A0008A81D00202B
:102C8000A8070020B0070020A4070020A00700200C
:102C900098070020008F423390690008000024400C
:102CA00000C065C0000010409C070020E0690008DB
:102CB00000001840306A0008960700209748006816
:102CC000417B0D2000F0FCFC9448006890F8221035
:102CD000934800F033FC1CE0904801681331132046
:102CE00000F0D2FB8D480068C07C8E4908808B487C
:102CF0000068007C89490968487388480068417BFE
:102D00000D2000F0DDFC85480068C17C844800F09F
:102D100015FC8548807A012802D18449087002E0B8
:102D200002208249087002200490F1E001207F49CE
:102D3000087003200490EBE0012000F08FF97A483E
:102D4000C07A01281AD1F520744909684874764878
:102D5000007B7249096881F82400704801681C31C1
:102D60001C2000F091FB6D490968097F01F03F01CB
:102D70006F4A52F8210000F039FA08E0F72067495D
:102D80000968487400206549096881F8240063488F
:102D9000006890F82410242000F092FC5F4800683E
:102DA000417C112000F08CFC624800785B49096886
:102DB00081F822005948006890F82210222000F083
:102DC0007FFC002055490968887354480068817B5E
:102DD0000E2000F075FC51480068807B4F4909685F
:102DE00048734E480068417B0D2000F069FC4B4859
:102DF000006890F822104A4800F08AFC41204749B8
:102E0000096881F83F0040204449096881F8400082
:102E10000222424801683F31402000F059FC032063
:102E200000F01CF906204149087071E000F058FBE1
:102E3000012806D10821122000F042FC07203B495E
:102E4000087000F061FB012817D13748C07A0128CB
:102E50000FD1324801681C311C2000F015FB2F49AE
:102E60000968097F01F03F01314A52F8210000F062
:102E7000BDF90221122000F023FC49E0012000F0FE
:102E8000EDF80020294908700420049040E001205A
:102E900000F0E4F8FA202149096848741F480068E6
:102EA000417C112000F00CFC00201C49096881F8CD
:102EB0003F001A49096881F840000222174801685A
:102EC0003F31402000F004FC072000F0C7F80A2042
:102ED000164908701CE000F021FB012816D10421DE
:102EE000122000F0EDFB00F021FB012809D10121A7
:102EF000122000F0E5FB01200C4908700820049026
:102F000004E00020094908700720049000E000BF99
:102F100000BF049805B0BDE8F08F000090070020C6
:102F2000A81D0020960700207407002094070020A9
:102F3000806A0008AC07002010B5054801680C3114
:102F40000C2000F0A1FA02480068007B400910BD87
:102F50009007002010B5034801684131422000F07D
:102F600093FA10BD9007002010B504460C48016884
:102F70001D311D2000F088FA09480068407F00F0EC
:102F8000F10040EA440006490968487704480068AF
:102F9000417F1D2000F094FB0248C47110BD000069
:102FA000900700207407002010B504460B48016804
:102FB0001D311D2000F068FA08480068407F00F0CD
:102FC000FE00204305490968487704480068417FAE
:102FD0001D2000F075FB0248447210BD90070020D0
:102FE0007407002010B504460C48016826312620DD
:102FF00000F04AFA0948006890F8260000F0F7004F
:1030000040EAC4000549096881F8260003480068C1
:1030100090F82610262000F053FB10BD90070020EA
:1030200010B504460C4801683031312000F02CFA0C
:103030000948006890F8300000F0F8002043064985
:10304000096881F830000448006890F83010312099
:1030500000F036FB10BD00009007002070B504465C
:10306000002514480068407820F0F80012490870E4
:103070000846007884421CD0032C01D1012500E0D1
:1030800000250E480078854204D00C48057028467B
:1030900000F047FB07480068407800F0F800204344
:1030A000044909684870034800684178012000F02D
:1030B00007FB70BD90070020AE070020AF0700207F
:1030C00010B504460A4801680931092000F0DCF90E
:1030D00007480068407A00F07F00204304490968EF
:1030E000487203480068417A092000F0E9FA10BDEF
:1030F0009007002010B50446134801684C314D205C
:1031000000F0C2F9104801680931092000F0BCF94B
:103110000D480068407A00F08000802807D1012C1B
:103120000AD187200849096881F84C0004E084200E
:103130000549096881F84C000348006890F84C1074
:103140004D2000F0BDFA10BD9007002010B50446D8
:103150000C4801681E311E2000F096F909480068ED
:10316000807F00F0FB0040EA840006490968887708
:1031700004480068817F1E2000F0A2FA0248047211
:1031800010BD0000900700207407002010B5044611
:103190000648006880F822400448006890F8221031
:1031A000222000F08DFA0248047610BD900700201E
:1031B0007407002010B5044602220B480168203134
:1031C000202000F06BF9200A0749096881F82000E7
:1031D0000549096881F8214002220348016820312D
:1031E000202000F075FA10BD900700202DE9F04175
:1031F0000446114804602046FDF7B2F90546002256
:103200000E4BFDF71FF90746FDF7D6F90446200CD3
:103210000B4909688871200A09490968C871084979
:1032200009680C72032206480168891D062000F017
:103230004FFABDE8F08100007407002080844E4002
:103240009007002010B504463D4801680931092067
:1032500000F01AF93A4801684C314D2000F014F999
:1032600037480068407A00F08000802841D1344817
:10327000006890F84C0000F0870087281CD1052CCE
:1032800000DA0524142C00DD14242D480068407A4F
:1032900000F08F0040F07000294909684872284802
:1032A0000068407A00F0F000611F01F00F01084350
:1032B0002349096848723AE0022C00DA0224112CF2
:1032C00000DD11241E480068407A00F08F0040F0B5
:1032D00070001B490968487219480068407A00F07C
:1032E000F000A11E01F00F0108431549096848725A
:1032F0001DE0B4F1FF3F01DA4FF0FF340E2C00DD8A
:103300000E240F480068407A00F08F0040F07000F3
:103310000B49096848720A480068407A00F0F000DA
:10332000611C01F00F01084305490968487204480F
:103330000068417A092000F0C3F90248047110BD09
:1033400090070020740700200149087070470000B2
:103350009407002010B504460B4801681D311D205C
:1033600000F092F808480068407F64F31F10064997
:103370000968487704480068417F1D2000F0A0F9E3
:103380000248447110BD000090070020740700201F
:1033900010B504460C2C01DD0C2402E0062C00DAEA
:1033A0000624062C03D10520FFF73AFE02E0032095
:1033B000FFF736FE0B4801681E311E2000F064F84E
:1033C00008480068807F64F31F1006490968887701
:1033D00004480068817F1E2000F072F90248847161
:1033E00010BD0000900700207407002010B50446AF
:1033F00002220F4801681E311E2000F04FF80C48D1
:103400000068807F00F0FC006FF0FC0101EA2421DD
:10341000084307490968887705490968CC7702227B
:10342000034801681E311E2000F052F910BD000053
:103430009007002070B504460D460948C07A10B9BF
:103440000848058002E0FF200649088005480288F8
:1034500021460548FCF766FE05200449087070BD4A
:1034600074070020AC070020A81D0020940700204E
:1034700010B50448007810B9FEF754FD10BDFFF7F1
:10348000F3F9FBE71407002070B504460D4601224E
:103490002946204600F002F870BD00002DE9F041F9
:1034A00005460E461746002210210C48FDF74BFE3C
:1034B00005F07F0000F0C2FA002405E0002000F0D3
:1034C000BDFA3055601CC4B2BC42F7DB01221021AA
:1034D0000248FDF738FEBDE8F08100000008014019
:1034E00010B54FF400510248FDF720FE10BD00005A
:1034F0000010014010B54FF480410248FDF716FE60
:1035000010BD00000010014010B54FF4004102480A
:10351000FDF70CFE10BD00000010014010B50121A8
:103520000148FDF703FE10BD0008014010B502215F
:103530000148FDF7FBFD10BD0008014070B50446D1
:103540000D462A4621460020FFF7A8FF70BD10B5A2
:10355000012000F069F80A2001F060FB002000F073
:1035600063F80A2001F05AFB10BD000010B50446B4
:1035700029480078A04200D110BD27480470274890
:103580000470007801282BD10020FFF767FD244844
:103590000068407800F07F0040F080002049096812
:1035A00048701F4800684178012000F089F8012028
:1035B000FFF754FD00201A49096881F83F001849B7
:1035C000096881F840000222154801683F31402017
:1035D00000F07EF86F2213490120FFF75FFF18E02B
:1035E0000020FFF73BFD0E480068407800F07F00A8
:1035F0000B49096848700A4800684178012000F0CA
:103600005FF80120FFF72AFD6F2206490120FFF72E
:1036100045FF00BFB0E70000150700201407002099
:1036200090070020391C002038B50446012C12D127
:103630002020ADF8000003208DF8020010208DF846
:10364000030069460D48FDF799FC002220210B4834
:10365000FDF779FD11E02020ADF8000003208DF882
:10366000020010208DF8030069460448FDF786FC2F
:10367000012220210148FDF766FD38BD000C014004
:1036800070B504460D460648007820B92946204604
:10369000FEF7B6FF03E029462046FFF7CBFE70BDDC
:1036A0001407002010B50548007818B90120FEF76E
:1036B000A1FF02E00120FFF747FE10BD1407002024
:1036C00013B50446012201A9204600F001F81CBDF3
:1036D0002DE9F04105460E461746002210210B4801
:1036E000FDF731FD45F0800000F0A8F9002404E06A
:1036F000305D00F0A3F9601CC4B2BC42F8DB0122CB
:1037000010210248FDF71FFDBDE8F08100080140CF
:1037100070B504460D462A4621460020FFF7D8FF23
:1037200070BD10B5044614B100F07AF901E000F064
:1037300069F910BD10B506240AE0A11F202202EB92
:103740000111C8B222460321FEF71EF9601CC4B263
:10375000092CF2DB022303A203215020FEF73EF9DD
:1037600010BD00002E2E2E002DE9F04F8DB0064624
:103770000F4690469946DDF864A0179D4FF0000B68
:1037800005A80490FF208DF81400BAF1000F09D1AC
:103790003068CDF815007068CDF81900307A8DF8D2
:1037A0001D0019E0BAF1010F0DD13068CDF81500F8
:1037B000042405E030210DF115000155601CC4B250
:1037C000092CF7DB08E0002404E00DF11500045596
:1037D000601CC4B2092CF8DBCDF81E70CDF8228035
:1037E0001698FCF702FF02460B46CDE9020148A1FC
:1037F0000DF1270000F088FD8DF82690002406E0EA
:103800000498401C005D80EA0B0B601CC4B21A2CAB
:10381000F6D38DF82FB0F0208DF830001D22012056
:10382000049902F037FA012002F0D8F91D22002095
:10383000049902F02FFA002002F0D0F91420B5FB11
:10384000F0F100FB115000EB0010334901EB400098
:10385000DDF815100160DDF8191041609DF81D10AC
:1038600001721420B5FBF0F100FB115000EB0010C9
:10387000294901EB4000C0F809701420B5FBF0F1B4
:1038800000FB115000EB0010234901EB4000C0F891
:103890000D801420B5FBF0F100FB115000EB00107F
:1038A0001D4901EB400080F811901698FCF79DFE31
:1038B000CDE902011421B5FBF1F001FB105000EB42
:1038C0000011154800EB41001230019010A1DDE914
:1038D000022300F019FD1420B5FBF0F100FB11509C
:1038E00000EB00100C4901EB4000C0F81A50142006
:1038F000B5FBF0F100FB115000EB0010064901EBA5
:1039000040011898C1F81E000DB0BDE8F08F00000E
:1039100025302E31660000007408002010B500F03C
:1039200001F810BD0CB500200190009033480068EC
:1039300040F480303149086000BF3048006800F42E
:10394000003000900198401C0190009818B901982F
:10395000B0F5A06FF1D12948006800F4003010B133
:103960000120009001E0002000900098012843D140
:103970002348006840F010002149086008460068AC
:1039800020F0030008600846006840F0020008606C
:103990001A48406819494860084640684860084627
:1039A000406840F4806048600846406820F47C101D
:1039B00048600846406840F4E810486008460068DF
:1039C00040F08070086000BF0C48006800F0007094
:1039D0000028F9D00948406820F0030007494860F2
:1039E0000846406840F00200486000BF0348406855
:1039F00000F00C000828F9D10CBD000000100240B6
:103A00000020024010B501210448FDF79AFB4FF455
:103A100000710248FDF793FB10BD0000000C01404F
:103A200010B501210448FDF78AFB4FF400710248EC
:103A3000FDF787FB10BD0000000C014010B50446E7
:103A400000BF02210A48FEF7FBF90028F9D0214601
:103A50000748FEF701FA00BF01210548FEF7F0F91B
:103A60000028F9D00248FEF7F4F9C0B210BD0000FA
:103A70000030014000B587B0012141F20500FEF79A
:103A80003BF903208DF8060018208DF80700E02090
:103A9000ADF8040001A91D48FDF770FA10208DF85B
:103AA000070003208DF806001020ADF8040001A9DE
:103AB0001648FDF763FA012210211448FDF743FB75
:103AC0000020ADF808004FF48270ADF80A00002025
:103AD000ADF80C00ADF80E00ADF810004FF400701A
:103AE000ADF812001020ADF814000020ADF816005B
:103AF0000720ADF8180002A90548FEF7AFF901212B
:103B00000348FEF791F907B000BD0000000801402E
:103B10000030014010B500F009F803480068401C6F
:103B20000149086010BD0000B007002010B5002456
:103B300006E0144901EBC40001F0CAF8601CC4B2ED
:103B4000042CF6DB10480068401C0F49086008464A
:103B500000686FF00041884202D100200A490860E5
:103B60000A480068401C09490860B0F57A7F06D30E
:103B70000020086006480068401C05490860FDF701
:103B80004FF810BD440B00203800002040000020FA
:103B90003000002010B51348006840F001001149C2
:103BA000086008464068104908400E4948600846C9
:103BB00000680E4908400B4908600846006820F478
:103BC000802008600846406820F4FE0048604FF4FA
:103BD0001F008860FFF7A2FE4FF0006004490860F4
:103BE00010BD0000001002400000FFF8FFFFF6FECD
:103BF00008ED00E03EB5044601210846FEF75CF8FA
:103C00000120ADF8040024B941F61F40ADF80000D2
:103C100010E0012C04D140F2CF20ADF8000009E003
:103C2000022C03D14720ADF8000003E041F61F400D
:103C3000ADF800000020ADF806001020ADF802003D
:103C40006946800600F02CF83EBD70B50446A5B26A
:103C50000121880700F013F829464FF0804000F05A
:103C60001DF804E04FF0804000F015F80546012DE6
:103C7000F8DC00214FF0804000F001F870BD21B168
:103C8000028842F00102028004E002884FF6FE73CF
:103C90001A40028070470146888C704781847047C3
:103CA000002202881D4B98420ED01D4B98420BD02B
:103CB000B0F1804F08D01B4B984205D01A4B984268
:103CC00002D01A4B984204D14FF68F731A404B889A
:103CD0001A43174B984207D0164B984204D04FF620
:103CE000FF431A40CB881A4302808B8883850B8858
:103CF00003850A4B98420BD0094B984208D00E4BD3
:103D0000984205D00D4B984202D00D4B984201D1FC
:103D10000B7A03860123838270470000002C014048
:103D2000003401400004004000080040000C004046
:103D300000100040001400400040014000440140D9
:103D40000048014000B587B0012144F20400FDF7AE
:103D5000D3FF4FF40070ADF8180018208DF81B0049
:103D600003208DF81A0006A91F48FDF707F94FF444
:103D70008060ADF8180004208DF81B0006A91A48D1
:103D8000FDF7FCF825208DF8140000208DF81500B3
:103D90008DF8160001208DF8170005A8FDF77AFCB4
:103DA0004FF4E13001900020ADF80800ADF80A00B2
:103DB000ADF80C00ADF810000C20ADF80E0001A914
:103DC0000A4800F01FF9012240F22551074800F08F
:103DD000F3F80121054800F0ACF84021034800F059
:103DE0009FF807B000BD0000000801400038014006
:103DF00010B540F22551084800F0B4F858B1064813
:103E000000F06CF9C4B22146044800F06CF9214678
:103E1000034800F068F910BD00380140004400403C
:103E20000048004000B587B001210420FDF764FF81
:103E300001214804FDF740FF0420ADF818001820C8
:103E40008DF81B0003208DF81A0006A91E48FDF707
:103E500095F80820ADF8180004208DF81B0006A97D
:103E60001948FDF78BF826208DF8140000208DF8F6
:103E7000150001208DF816008DF8170005A8FDF734
:103E800009FC4FF4E13001900020ADF80800ADF8D6
:103E90000A00ADF80C00ADF810000C20ADF80E00D3
:103EA00001A90A4800F0AEF8012240F22551074866
:103EB00000F082F80121054800F03BF8402103485A
:103EC00000F02EF807B000BD00080140004400409B
:103ED00010B540F22551064800F044F838B10448C6
:103EE00000F0FCF8C4B2214602A000F0FDF910BDBC
:103EF000004400402563000010B540F225510648FB
:103F000000F030F838B1044800F0E8F8C4B22146B7
:103F100002A000F0E9F910BD004800402563000050
:103F200001F40072B2F5007F00D100BFCA430280E5
:103F3000704721B1828942F40052828104E0828973
:103F40004DF6FF731A408281704702460020B1F59A
:103F5000007F00D100BF13880B400BB1012000E0AF
:103F60000020704770B50246002400230025002081
:103F700040F66A16B14200D100BFC1F3421501F00C
:103F80001F03012606FA03F3012D02D1968933405F
:103F900006E0022D02D1168A334001E0968A3340B2
:103FA0000C12012606FA04F41688344013B10CB141
:103FB000012000E0002070BDF0B50346002400267B
:103FC0000025002040F66A17B94200D100BF18460C
:103FD000C1F3421401F01F06012707FA06F5012C70
:103FE00001D10C3004E0022C01D1103000E014307B
:103FF0001AB107682F43076002E00768AF43076004
:10400000F0BD00002DE9F04786B005460E460024BD
:10401000A24600BFA1460027B08900B100BF2F46CD
:104020002C8A4CF6FF700440F08804432C82AC8943
:104030004EF6F3100440B088318908437189084373
:104040000443AC81AC8A4FF6FF400440B08904437E
:10405000AC8201A8FDF760FE1F48874202D1DDF85F
:1040600010A001E0DDF80CA0A88900F4004040B1E8
:104070000AEBCA0000EB0A1031684900B0FBF1F806
:1040800007E00AEBCA0000EB0A1031688900B0FBB8
:10409000F1F86420B8FBF0F004012009642101FB71
:1040A0001089A88900F4004040B1322000EBC9001B
:1040B000B0FBF1F000F00700044308E0322000EB11
:1040C00009106421B0FBF1F000F00F0004432C81D3
:1040D00006B0BDE8F087000000380140014688883E
:1040E000C0F308007047C1F308028280704700BF28
:1040F000FEE700002DE9F047A0B00446002680212D
:104100006846FCF728F8002514E01420B4FBF0F111
:1041100000FB114000EB00105A4901EB4000475DE5
:104120000DEB06003A4658A100F0EEF8B01CC6B2FE
:10413000681CC5B2092DE8DB012355A2022100202D
:10414000FDF74CFC01236A4602211220FDF746FCD4
:104150001420B4FBF0F100FB114000EB00104949C2
:1041600001EB4000D0F81A502A464AA1684600F0F8
:10417000CBF801236A4603210020FDF72FFC142011
:10418000B4FBF0F100FB114000EB00103D4901EBE6
:10419000400090F911502A4641A1684600F0B4F859
:1041A00001236A4604210020FDF718FC01233FA2E9
:1041B00005210020FDF712FC1420B4FBF0F100FBF8
:1041C000114000EB00102F4901EB400050F8121F86
:1041D00000914068019037A16846FBF7C7FF0123B3
:1041E0006A4605212820FDF7F9FB80216846FBF788
:1041F000B2FF1420B4FBF0F100FB114000EB001003
:10420000204901EB4000D0F809A05046FCF792F994
:1042100081462949FBF7BFFF0546FCF7E6F907464B
:104220003A460B4625A1684600F06EF801236A461F
:1042300006210020FDF7D2FB1420B4FBF0F100FBB7
:10424000114000EB00100F4901EB4000D0F80DA029
:104250005046FCF76FF981461749FBF79CFF05466E
:10426000FCF7C3F907463A460B4616A1684600F02C
:104270004BF801236A4607210020FDF7AFFB20B071
:10428000BDE8F08774080020253032580000000097
:1042900049443A005278436E743A20256400000085
:1042A000534E523A20256464420000005253534951
:1042B0003A00000064426D008096184B453A202574
:1042C000660000004E3A20256600000010B5044646
:1042D00021460020FDF794F910BD10B50446214693
:1042E0004020FDF78DF910BD0FB4054B10B503A9A3
:1042F000044A029800F0E0F810BC5DF814FB0000DE
:10430000194D0008DC0700200FB4084B10B504A9B4
:1043100002AA039800F0D0F8044602A9002000F099
:1043200062FC204610BC5DF814FB0000E74B00085F
:1043300002E008C8121F08C1002AFAD1704770476E
:10434000002001E001C1121F002AFBD1704780F359
:10435000108870472DE9FF5FDDE90220010DDDF8CF
:1043600038B0024318D044F61050A1F2FF31414357
:104370000D140F98012820D0A5EB0B00401C5FEA1C
:10438000000A4FF00004474EDFF81C91A04650464B
:1043900016D5CAF1000728E00F98012443A201288E
:1043A00008D0002100980F9BC0E90021C0E902431A
:1043B000BDE8FF9F6FEA0B01F4E7CBF10000DEE7F9
:1043C000074612E0F80707D02246334640464946E2
:1043D000FBF7C6FF804689462246334610461946FB
:1043E000FBF7BEFF04460E467F10002FEAD1DDE941
:1043F0000201BAF1000F42464B4602DAFBF7B0FF6A
:1044000001E0FCF71FF804460E460022284BFCF79B
:104410009BFA03D84FF0FF30014607E00022254BFE
:1044200020463146FBF7F5FEFCF776FA102409E04A
:10443000002C0ADB0A220023FCF734F9019B3032FE
:104440001A55641E50EA0102F2D1641C019AC4F1AB
:10445000110314440F9A012A03D0012208430DD1FD
:104460000AE0084304D000204FF0110B0F9080E7C2
:10447000A3EB0B056D1E0DE05B4504DD4FF0000264
:1044800005F1010504E003DA4FF00002A5F1010592
:10449000002AECD000980F99C0E90231C0E900452C
:1044A00086E70000000024400000F03F30000000DC
:1044B0000000F0430000E03F2DE9FF4F95B09B4620
:1044C0008946064600250FE2252877D10024274695
:1044D000F84A0121059400E0044316F8013F203B0F
:1044E00001FA03F01042F7D130782A2811D06FF08A
:1044F0002F033078A0F13002092A16D8059A44F02B
:10450000020402EB820203EB42021044761C059087
:10451000EFE759F8042B0592002A03DA504244F4DD
:104520000054059044F00204761C30782E2816D1F1
:1045300016F8010F44F004042A280DD06FF02F0262
:104540003078A0F13003092B09D807EB870302EB81
:104550004303C718761CF3E759F8047B761C3078C0
:104560006C280FD006DC4C2817D068280DD06A289C
:1045700014D104E0742810D07A280FD10DE044F44F
:1045800000140AE044F4801401E044F4401472780A
:10459000824202D104F58014761C761C307866289D
:1045A0000BD013DC582877D009DC002875D04528BB
:1045B000F6D04628F4D047281AD19DE118E06328A8
:1045C00035D0642879D0652812D195E1702873D050
:1045D00008DC6728F1D069286FD06E280DD06F28CD
:1045E00006D1B5E073282CD0752875D0782874D002
:1045F0005A46179990476D1C75E1C4F30250022882
:1046000009D003280DD0D9F8001004280DD00D6072
:1046100009F1040967E1D9F80010EA17C1E900526D
:10462000F6E7D9F800100D80F2E70D70F0E719F801
:10463000041B8DF8001000208DF80100EA460120CF
:1046400003E059F804AB4FF0FF3061074FF0000171
:1046500002D40DE008F101018846B9420FDA804525
:10466000F8DB1AF808100029F4D108E008F101017C
:1046700088468142FADB1AF808100029F6D105981D
:104680005B46A0EB080721463846179A00F094FADB
:10469000284400EB080507E04DE029E10DE01AF899
:1046A000010B5A4617999047B8F10108F7D25B46BB
:1046B00021463846179A13E142E00A220092C4F3D9
:1046C00002524FF0000A022A08D059F804CB032AFC
:1046D0004FEAEC710AD00DE029E02AE009F1070168
:1046E00021F00702F2E802C1914609E00FFA8CFCC2
:1046F0004FEAEC71042A03D14FFA8CFC4FEAEC71BB
:10470000002907DA0A460021DCF1000C61EB020106
:104710002D2202E0220504D52B228DF8042001224F
:1047200003E0E20701D02022F7E7904659E00A2192
:1047300002E010220DE010214FF0000A00910BE082
:1047400010224FF0000A44F004040827009203E00E
:1047500008224FF0000A0092C4F30252022A05D048
:1047600059F804CB0021032A08D009E009F1070118
:1047700021F00702F2E802C1914605E01FFA8CFC25
:10478000042A01D10CF0FF0C4FF00008220728D5B5
:10479000702806D0009B83F0100353EA0A0305D06B
:1047A0000EE040228DF80420012208E05CEA0102BC
:1047B00006D030228DF804208DF8050002229046A4
:1047C000009B83F0080353EA0A030AD15CEA010262
:1047D00001D1620705D530228DF804204FF0010881
:1047E0007F1E582804D034A003900EA802900DE03C
:1047F00036A0F9E753466046009AFBF753FF84461C
:104800000398825C0298401E029002705CEA0100EC
:10481000F0D1029806A9081A00F1200A600702D513
:1048200024F4803400E00127574502DDA7EB0A009D
:1048300000E0002000EB0A01009005984144401A76
:104840000590E00306D45B462146179A059800F0D0
:10485000B3F90544002706E001A85A46C05D179940
:1048600090476D1C7F1C4745F6DBE0030CD55B468B
:104870002146179A059800F09FF9054404E030207E
:104880005A46179990476D1C0099481E00900029C0
:10489000F5DC08E0029802995A460078491C02911A
:1048A000179990476D1CBAF10001AAF1010AF1DCD9
:1048B00065E10000092801003031323334353637E4
:1048C000383961626364656600000000303132335C
:1048D00034353637383941424344454600000000FC
:1048E00000F058F90544761C307800287FF4ECADD0
:1048F00019B02846BDE8F08F620700D4062709F1F9
:10490000070222F0070CFCE80223E14603F000480E
:104910005FEA080C02D00FF2702C0DE05FEA045C35
:1049200002D50FF2682C07E05FEAC47C02D00FF2D8
:10493000602C01E0AFF2700C4FF0FF3823F0004321
:10494000CDF850C065280CD006DC452809D0462893
:104950001DD047283DD13DE0662818D067287ED17C
:1049600038E00021112F01DB112000E0781CCDE997
:10497000000106A90EA8FFF7EDFCDDE90F010E9A74
:1049800003910021009207F1010A04914DE04FF0DC
:1049900000400097CDE9011006A90EA8FFF7DAFC48
:1049A000DDE90F0203920E9B11990022DDF80CA0A5
:1049B0000093049211B9791C00EB010AB7EB0A00CD
:1049C00004D4C0F1FF3007F1010A0490AAEB0700FC
:1049D000019044E0012F00DA01270021112F01DDB1
:1049E000112000E03846CDE9000106A90EA8FFF726
:1049F000B1FCDDE90F010E9A0391002104910092B0
:104A0000BA4621070CD40399514500DA8A46BAF117
:104A1000010F05DD009AAAF10101515C302908D08F
:104A2000B84202DA10F1040F06DA0121CDE90110D3
:104A300015E0AAF10101E9E7002805DC0499014429
:104A40000491AAEB000102E0411C514500DD8A46B9
:104A50000499401A401C01904FF00040029020073A
:104A600004D40198504501DBCDF8048000208DF876
:104A70004F0002980DF14F07B0F1004F25D02B20C9
:104A80000E9002984FF0020800280CDA4042029083
:104A90002D200E9007E00A210298FBF7EDFD303142
:104AA000029007F8011DB8F10001A8F10108F2DC3D
:104AB00002980028EFD1791E0E980870307800F027
:104AC000200040F0450007F8020D12A8C01B00F1BD
:104AD00007081498007800B1012000EB0A01019842
:104AE00001EBE07105984144401A401E0590E00337
:104AF00006D45B462146179A059800F05DF80544F8
:104B00001498007818B15A46179990476D1CE00325
:104B100024D55B462146179A059800F04DF80544C8
:104B20001CE00498002807DBDDE90301884203DD6F
:104B30000098405C179901E0179930205A46904739
:104B4000049805F10105401C04900198401E019055
:104B500004D12E205A46179990476D1CBAF10001D6
:104B6000AAF1010ADDDC05E017F8010B5A46179996
:104B700090476D1CB8F10001A8F10108F4DC5B4618
:104B80002146179A0598ABE62D0000002B00000087
:104B9000200000002DE9F041044600251E4617467E
:104BA000880404D405E039462020B0476D1C641EFB
:104BB000F9D52846BDE8F0812DE9F04104460025ED
:104BC0001E469046C80301D5302700E02027880400
:104BD00004D505E041463846B0476D1C641EF9D542
:104BE0002846BDE8F0810A68531C0B6010707047BE
:104BF0000146042901DB00207047074800EBC10093
:104C00000079012806D10020034A02EBC10210718D
:104C10000120F1E70020EFE7440B002010B5044627
:104C2000012C00D802240120FFF791FB0748046003
:104C3000002006490871FFF78AFB04E00348007969
:104C4000012800D100E0F9E700BF10BD440B0020AF
:104C500070B5002008E00021194A42F8301002EB3C
:104C6000C0021171411CC8B20428F4DB154909685F
:104C70004FF47A73B1FBF3F2B2F1807F00D31DE001
:104C800022F07F41491E4FF0E023596159170F234D
:104C9000002907DA1C07260E0B4C01F00F052D1F0B
:104CA000665503E01C07250E084C655400BF002123
:104CB0004FF0E02399610721196100BF70BD00002A
:104CC000440B0020B407002018ED00E000E400E0F1
:104CD000017939B9016829B10168491E016009B932
:104CE000012101717047000070B504460D46042C87
:104CF00000DB70BD0120FFF72AFB064840F8345066
:104D00000020044901EBC4010871FFF720FB00BF3C
:104D1000EFE70000440B002070B504460D46E1B2F9
:104D20000548FFF7E0F900BF40210348FFF70DF900
:104D30000028F9D0204670BD0038014070B5002031
:104D40006B49086000F0F0F8CC2001F079F84420BD
:104D500001F076F84FF47A70FFF760FF00F0E4F8A6
:104D6000CC2001F06DF8BE2001F06AF800F0D6FC0E
:104D7000054600F0D3FC044600F0D0FC5D49086015
:104D800000F0CCFC5C49086000F0C8FC5B4908609E
:104D900000F0C4FC5A49086000F0C0FC59490860A2
:104DA00000F0BCFC5849086000F0B8FC57490860A6
:104DB000072C19DD01205649087045EA04204C49AA
:104DC000086008460068C043401C08600846006848
:104DD00040F2712148434649086008460068A0F542
:104DE00043405038086013E000204949087045EA04
:104DF00004203F4908600846006840F2712148439A
:104E00003B49086008460068A0F5434050380860F8
:104E1000374800683F4990FBF1F03F49086034484B
:104E200000683C4990FBF1F201FB12003B4990FB0A
:104E3000F1F0394948602E48006842F2107190FB49
:104E4000F1F0642190FBF1F201FB12000A2190FBCA
:104E5000F1F201FB1200304988602548006842F2F7
:104E6000107190FBF1F201FB12004FF47A7190FB8C
:104E7000F1F0294908611E4800684FF47A7190FBEF
:104E8000F1F201FB1200642190FBF1F0224948612C
:104E900008460068642148431F49496801EB8101C5
:104EA00000EB41001C49896808441B49C86008465A
:104EB00000694FF47A7148431749496901EBC1020F
:104EC00002EB011100EB81001349896901EB8101BB
:104ED00000EB41001049C96908440F4908620846BF
:104EE000007B0F4908700C48008C0E49088070BD8B
:104EF0006C0000204C0000205000002054000020D6
:104F0000580000205C0000206000002064000020A9
:104F10007000002040420F00B40B0020A08601006A
:104F2000710000207200002010B50024FBF7B8FFCC
:104F3000FBF7C4FFFBF798FF4FF4F070FEF785FE18
:104F4000FBF7BCFF3C20FEF780FEFCF70FF908B929
:104F5000012000E000200446FBF7A2FFFBF7AEFFB4
:104F60008C20FEF772FE204610BD00009CB034215C
:104F70000DA8FBF7F0F8FEA000680C90FDA00068FB
:104F80000B9000200A900990804681468246089046
:104F900000BF00BF07900690F74C2546FBF7FEFECA
:104FA00000F08CFDF548FCF7F3F8FCF7ABFB0026AE
:104FB00009E0102101EB0611C8B232460021FCF7CE
:104FC000E3FC701CC6B2062EF3DBFCF7A9FD4FF420
:104FD0007A70FFF723FE0020FCF78EFC4FF480511F
:104FE000E748FCF7AEF84FF40061E548FCF7A9F894
:104FF000C820FFF713FE4FF40061E148FCF79FF86B
:10500000FFF79CFEFCF7F2FEDE49086009680868BD
:105010008047DC49096888688047FCF773FB2CE30C
:1050200008A8FBF7D5FE9DF82000012853D1FCF716
:105030006EFB0223D4A200210846FCF7CFFC0698A1
:1050400018BB01200690D34800683C21B0FBF1F06A
:105050000246D1A105900DA8FFF756F902230DAA2B
:1050600004210020FCF7BAFCFDF77CFB30B90223D9
:10507000CDA206210020FCF7B1FC2CE00223CEA239
:1050800006210020FCF7AAFC25E0CF480068FBF7CA
:1050900048FACE490290FBF77EF80390FBF7A5FA99
:1050A00002460B46CDE90401C9A10DA8FFF72CF972
:1050B00002230DAA04210020FCF790FCC7A10DA833
:1050C0001A9AFFF721F902230DAA06210020FCF706
:1050D00085FC002006909DF82100012817D1FCF7DF
:1050E00016FBFDF73FFB48B90120FEF72DF902231F
:1050F000BEA200210846FCF771FC08E00020FEF784
:1051000023F90223BBA200210846FCF767FC9DF8A7
:10511000220001280BD1FCF7FAFA5846FEF7EAFF05
:10512000ABF1010BBBF1000F01D1DDF828B0B348A2
:105130000068B0F57A7F44D94FF480519048FBF76E
:10514000F1FFFCF733F8FCF703F8074640F6E440BC
:105150007843C0EBC000400040F6FF71B0FBF1F0B7
:105160000B21B0FBF1F080B21A90FBF773FE40B94F
:10517000A34802237F22002100905F20FCF7FDFA64
:1051800001E0FBF77DFD00209C490860FCF7F8F882
:105190000A9810B9FEF7CEFA13E00798401CC0B287
:1051A000079007981E280CDDDDE90901884202D02E
:1051B0000A98099003E0FCF7AAFAFEF7BBFA002070
:1051C000079050E20A98401C0A90DDF828B06D481C
:1051D00000688C49C26868489047208845F2AA5107
:1051E00088427DD1E07B6028FBD1616908BAFBF77A
:1051F000A1F985490090FAF7CEFF0190FBF7F5F988
:10520000CDE90401216908BAFBF794F97E490090C1
:10521000FAF7C1FF0190FBF7E8F9CDE90201DDE9FA
:105220000401CDE9000179A0DDE90223FFF75CF874
:105230007C4802887C4801787CA0FFF755F88048BC
:105240000068FBF7D2F902460B46CDE904017D4820
:1052500090F900107CA0FFF747F808F10108FCF76F
:1052600056FA02237FA200210846FCF7B7FB42460C
:105270007FA10DA8FFF748F802230DAA19460020C8
:10528000FCF7ACFB216908BAFBF754F95E490290C0
:10529000FAF781FF0390FBF7A8F902460B46CDE928
:1052A000040176A10DA8FFF72FF802230DAA04210F
:1052B0000020FCF793FB616908BAFBF73BF9524900
:1052C0000290FAF768FF0390FBF78FF902460B464E
:1052D000CDE904016BA10DA8FFF716F8022300E049
:1052E00015E00DAA06210020FCF778FB0020544AA7
:1052F0000A991268CDE90028CDE902106269216996
:10530000504890F90030E01CFEF72EFAA3E128780F
:10531000AA282BD1E889AA28FBD16D1C6868FBF765
:1053200009F95A490090FAF736FF0190FBF75DF949
:10533000CDE90401A868FBF7FDF854490090FAF79D
:105340002AFF0190FBF751F9CDE90201DDE90401E3
:10535000CDE9000129684EA0DDE90223FEF7C4FF74
:10536000304802883048017830A09FE00BE100000F
:10537000AA0F010000160000E807002068080020BE
:105380000008014010000020537973496E666F3A9F
:10539000000000003000002052756E54696D653ABF
:1053A00025646D696E000000524620537461747567
:1053B000733A204F4646000052462053746174757C
:1053C000733A204F4E0000006C00002000401C4645
:1053D00054656D703A25302E32662700566F6C7416
:1053E0006167653A25646D56000000005246204F03
:1053F0004E2100005246204F46462100B0070020B3
:10540000D40600200C0000208096184B576174636E
:10541000685F31353A20453D25662C4E3D25662096
:1054200000000000720000207100002054656D70C3
:10543000657261747572653A25642E2564272000B3
:105440009C07002098070020534E523A256464427E
:105450002C20525353493A25302E326664426D0D4A
:105460000A00000057617463685F31353A0000003C
:105470005278436E743A202564000000453A202596
:10548000660000004E3A2025660000000050C34729
:1054900057617463685F57412049443A25582C4549
:1054A0003D25662C4E3D256620000000FEF71CFFC2
:1054B00072480068FBF799F802460B46CDE90401F3
:1054C0006F4890F90010AFF28000FEF70DFF09F170
:1054D0000109FCF71CF902236AA200210846FCF727
:1054E0007DFA4A46AFF278010DA8FEF70DFF0223C0
:1054F0000DAA19460020FCF771FA216908BAFBF7DA
:1055000019F863490290FAF746FE0390FBF76DF82D
:1055100002460B46CDE90401AFF2A0010DA8FEF74B
:10552000F3FE02230DAA04210020FCF757FA61695B
:1055300008BAFAF7FFFF56490290FAF72CFE0390DB
:10554000FBF753F802460B46CDE90401AFF2CC015C
:105550000DA8FEF7D9FE02230DAA06210020FCF7B4
:105560003DFA0120454A0A991268CDE90029CDE9A2
:105570000210AA6869686D1E414890F90030681CE5
:10558000FEF7F2F867E00AF1010AFCF7C0F802231F
:1055900040A200210846FCF721FA5246AFF2301132
:1055A0000DA8FEF7B1FE02230DAA19460020FCF754
:1055B00015FA3B480068FAF7BDFF35490290FAF743
:1055C000EAFD0390FBF711F802460B46CDE9040112
:1055D000AFF258110DA8FEF797FE02230DAA042181
:1055E0000020FCF7FBF92F480068FAF7A3FF2849D1
:1055F0000290FAF7D0FD0390FAF7F7FF02460B4648
:10560000CDE90401AFF284110DA8FEF77DFE02235F
:105610000DAA06210020FCF7E1F90220174A0A9999
:105620001268CDE9002ACDE90210154890F9003042
:105630001C4802681A4801680AA8FEF795F818483D
:10564000006800F57A70164908601648006800F591
:105650007A701449086080211348FAF77CFD1349D9
:1056600009688868804711490968486980470228A5
:105670003FF4A8AD0120FFF7D1FAD1E49C07002048
:105680009807002057617463685F57413A00000033
:105690008096184B57617463685F583A00000000A9
:1056A0000000002004000020E80700201000002077
:1056B000F0B50B30154D20F007010024144A0FE01F
:1056C00003688B420BD38B4205D95E1A4318476897
:1056D000C3E9006700E04368136002C004E0021DF4
:1056E00010680028ECD12046002802D1286808B1B3
:1056F0000020F0BD064A07481060074A121A22F03F
:105700000702C0E9002401202860D7E7E407002051
:10571000E0070020AC1E0020A822002070B5002564
:10572000002416E0FBF7A0FBFBF7C8FBFBF71EFD10
:10573000064626B10120A0402843C5B202E0012060
:10574000A04085432820FEF780FAFBF7A9FB601CE8
:10575000C4B2082CE6DB284670BD00002DE9F04DF0
:1057600007460E46FBF794F804460D463A46334684
:10577000FAF7F3FDDFF86CA0DFF86CB01B4B0746BF
:10578000884616F0004F4FF000020AD0FAF740FFAB
:105790000AD900225B4638464146FBF7D5F81BD2B2
:1057A00012E0FAF735FF08D2002253462046294678
:1057B000FAF7D0FD04460D460EE000225B4638465F
:1057C0004146FBF7C1F807D8002253462046294638
:1057D000FAF71FFD04460D463146204665F31E01CB
:1057E000BDE8F08D0000F03F0000E03F0000E0BFAA
:1057F00000B587B001218803FCF75EFA012108207B
:10580000FCF77AFA4FF46040ADF8040018208DF8E8
:10581000070003208DF8060001A92B48FBF7AEFB1B
:105820004FF48050ADF8040010208DF8070001A956
:105830002548FBF7A3FB0820ADF8040010208DF8E5
:10584000070001A92048FBF799FB4FF480511E483F
:10585000FBF777FC0020ADF808004FF48270ADF83C
:105860000A000020ADF80C000220ADF80E00012067
:10587000ADF810004002ADF812000820ADF8140099
:105880000020ADF816000720ADF8180002A90F4857
:10589000FCF7E4FA01210D48FCF7C6FA00F040F8E5
:1058A0004FF480510848FBF74AFC042000F082F8CE
:1058B0004FF480510448FBF744FC00F097F80020B7
:1058C00000F0C0F807B000BD000C014000380040F7
:1058D0002DE9F04100F0A4F84FF480510F48FBF798
:1058E0002EFC9F2000F066F8A52000F063F8054626
:1058F000A52000F05FF80646A52000F05BF80746FB
:105900004FF480510548FBF71CFC280440EA0620B0
:1059100040EA07042046BDE8F0810000000C014089
:1059200010B5FFF7D5FF1849086008460068174909
:10593000084418B116490844C0B90BE015A1124833
:10594000001DFAF71FFC4FF400100F494861401288
:10595000088317E012A10C48001DFAF713FC4FF45E
:10596000001009494861401208830BE00FA1064866
:10597000001DFAF707FC4FF400100349486140127C
:10598000088300BF00BF10BD040C0020BFDA40FF39
:105990002C05FDFF53535432355646303136420004
:1059A0004D5832354C31363036450000556E6B6EF1
:1059B0006F77000010B5044600BF02210A48FCF7CB
:1059C0003FFA0028F9D021460748FCF745FA00BF06
:1059D00001210548FCF734FA0028F9D00248FCF709
:1059E00038FAC0B210BD00000038004010B54FF4C6
:1059F00080510A48FBF7A3FB0520FFF7DBFF00BF40
:105A0000A520FFF7D7FF00F001000028F8D14FF4E0
:105A100080510248FBF795FB10BD0000000C0140CF
:105A200010B54FF480510648FBF789FB0620FFF7BD
:105A3000C1FF4FF480510248FBF783FB10BD00000B
:105A4000000C014010B50446194800681949884205
:105A50001DD14FF480511848FBF771FB5020FFF720
:105A6000A9FF4FF480511448FBF76BFB4FF48051B2
:105A70001148FBF764FB0120FFF79CFF2046FFF76E
:105A800099FF4FF480510C48FBF75BFB0FE04FF49C
:105A900080510948FBF753FB0120FFF78BFF20469D
:105AA000FFF788FF4FF480510348FBF74AFB10BD16
:105AB000040C00204125BF00000C014010B58020DF
:105AC0002E4908800020888048808872C872802013
:105AD000FFF7EEFD2949C1F806000846D0F8060098
