:020000040800F2
:100000002034002001010008391900083D160008BD
:1000100035190008E70D00082F4400080000000013
:100020000000000000000000000000004521000862
:10003000F50E000800000000C51D0008153E000870
:100040001B0100081B0100081B0100081B01000820
:100050001B0100081B0100081B0100081B01000810
:100060001B0100081B0100081B0100081B01000800
:100070001B0100081B0100081B0100081B010008F0
:100080001B0100081B0100081B0100081B010008E0
:100090001B0100081B0100081B0100081B010008D0
:1000A0001B0100081B0100081B0100081B010008C0
:1000B0001B0100081B0100081B0100081B010008B0
:1000C0001B0100081B0100081B0100081B010008A0
:1000D0001B010008F54000082942000845420008BD
:1000E0001B0100081B0100081B010008DFF80CD0F1
:1000F00000F050FC004800476952000820340020FE
:100100000648804706480047FEE7FEE7FEE7FEE7B1
:10011000FEE7FEE7FEE7FEE7FEE7FEE7953E0008A6
:10012000ED00000840EA01039B0703D009E008C97D
:10013000121F08C0042AFAD203E011F8013B00F8AC
:10014000013B521EF9D27047D2B201E000F8012BF8
:10015000491EFBD270470022F6E710B513460A4647
:1001600004461946FFF7F0FF204610BD421E12F864
:10017000013F002BFBD111F8013B02F8013B002BA2
:10018000F9D1704730B504460020034600E05B1CFF
:10019000934203D2E05CCD5C401BF8D030BD0346F7
:1001A00011F8012B00F8012B002AF9D118467047ED
:1001B00030B480EA010202F0004530F0004221F044
:1001C000004013D090B1C30DD40DC2F31601C0F39B
:1001D0001600E41A41F4000140F400027D3491421B
:1001E00001D3641C00E04900002C02DA30BC00207E
:1001F00070474FF400000023914201D3891A034352
:1002000040084FEA4101F7D151B1914202D14FF07C
:10021000004105E002D24FF0010101E06FF0010161
:1002200003EBC450284430BC00F0ACBA2DE9FE4FBB
:10023000804681EA0300C00F0C46009021F0004187
:1002400023F00045B8EB0200A94105D24046214603
:1002500090461C460B46024623F00040104347D010
:10026000270DC7F30A00C3F30A510290401A019008
:1002700040286BDAC3F3130040F4801B00989246C9
:1002800020B10023D2EB030A63EB0B0B0198594614
:10029000C0F14002504600F044FA06460D46504672
:1002A0005946019A00F05CFA10EB08006141002405
:1002B00087EA115284EAE7731A4340D0009A62B386
:1002C000019A012A4FEA075215DC001B61EB02017B
:1002D0004FF0004202EA0752CDE90042001C41F50E
:1002E000801132462B4600F093FA03B0BDE8F08F40
:1002F00040462146F9E7001B61EB0201001C41F575
:10030000801300185B412018A2F5001747EB03018A
:1003100040EAD570B6196D4111E06D084FEA360616
:1003200045EAC0754FEA0752001B61EB0201001C51
:1003300041F5801149084FEA300000195141324619
:100340002B4603B0BDE8F04F00F053BA00980122ED
:1003500040000023D0EB020263EBE07300982146DB
:100360004FEAE074B8EB000061EB0401E9E783F0C9
:1003700000435BE781F0004158E72DE9FE4F81EA39
:10038000030404F0004421F0004100944FF0000BFE
:1003900023F0004350EA01045ED052EA03045BD02C
:1003A000C3F30A54C1F30A552C44A4F2F334019464
:1003B000A0FB0254C1F3130141F48011C3F31303F2
:1003C00043F4801301FB024400FB034E840A970AA6
:1003D00044EA815447EA8357A4FB076802958D0AD3
:1003E00005FB07854FEA932C04FB0C542705029D5F
:1003F0004FEA065847EA1637B5EB08056EEB070CCF
:10040000870E920E47EA811742EA8312A7FB020188
:10041000B6EB0B0164EB00042B0D43EA0C335E18C2
:1004200044EB1C50DA465146E7FB0201C5F31304C6
:100430004FEA0B3343EA14534FEA0432019C43EA78
:100440000603A4F10C040294009CCDE900B400F072
:10045000DFF903B0BDE8F08F00200146F9E72DE990
:10046000F04D81EA030404F0004B21F000451446EE
:100470004FF0000A23F0004150EA050220D054EA70
:1004800001021DD0C5F30A570246C5F31303C1F399
:100490001300C1F30A5640F4801543F48013A7EB10
:1004A0000608101BD64608F2FD3873EB050002D390
:1004B00008F1010801E092185B41B8F1000F03DA7E
:1004C00000200146BDE8F08D00204FF48011064663
:1004D00084460EE0171B73EB050705D3121B63EB75
:1004E000050306434CEA010C49084FEA3000921814
:1004F0005B4150EA0107EDD152EA030012D082EAD3
:10050000040083EA0501084305D0101BAB4106D265
:100510000122002306E000224FF0004302E06FF0CA
:10052000010253101AEB06004CEB085110EB0A00C5
:1005300041EB0B01BDE8F04D00F05BB9C10F80EA63
:10054000E0700844CA079623002100F024B99623DE
:100550000022114600F01FB90EB5C10F80EAE0700D
:100560000844CA07002140F233438DE80E000A46D2
:100570000B4600F04DF903B000BD0EB540F233411B
:1005800002910021CDE900110A460B4600F040F926
:1005900003B000BD70B5C1F30A5201F0004500245C
:1005A000C1F3130140F2FF3341F480119A4201DAA2
:1005B000002070BD40F233439A42A2F2334203DC82
:1005C000524200F0BDF800E090402C43F1D0404290
:1005D00070BDC1F30A5210B5C1F3130140F2FF33ED
:1005E00041F480119A4201DA002010BD40F23343F9
:1005F0009A42A2F2334203DC524200F0A1F810BD4D
:10060000904010BD00F0004230F000400AD0C10D13
:1006100001F56071C0F3160042EA0151C2084007BB
:1006200011437047002001467047000030B5041E9A
:1006300071F1000404DB4FF00044404264EB01011F
:10064000141E73F1000405DB1C464FF000435242B8
:1006500063EB04038B4208BF824230BD01F00043CC
:1006600030B421F0004150EA010206D00A0DA2F593
:100670006072C1F31301002A02DC30BC0020704715
:10068000440F44EAC104C100E01830BC00EBC25082
:1006900000F078B830B50B46014600202022012436
:1006A00009E021FA02F59D4205D303FA02F5491B40
:1006B00004FA02F52844151EA2F10102F1DC30BD56
:1006C0002DE9F05F0546002092469B468846064687
:1006D000814640241BE0284641464746224600F01A
:1006E0002FF853465A46C01A914110D31146184666
:1006F000224600F016F82D1A67EB01084F462246F5
:100700000120002100F00DF817EB00094E41201EDA
:10071000A4F10104DFDC484631462A464346BDE8E1
:10072000F09F202A04DB203A00FA02F100207047F3
:100730009140C2F1200320FA03F31943904070471F
:10074000202A04DB203A21FA02F00021704721FA26
:1007500002F3D040C2F1200291400843194670478D
:10076000202A06DBCB17203A41FA02F043EAE07375
:1007700006E041FA02F3D040C2F120029140084362
:10078000194670470029A8BF7047401C490008BFA0
:1007900020F00100704710B4B0FA80FC00FA0CF0B1
:1007A00050EA010404BF10BC704749B1CCF12004E9
:1007B00021FA04F411FA0CF118BF01212143084376
:1007C000A3EB0C01CB1D4FEA00614FEA102042BFA2
:1007D000002010BC704700EBC35010440029A4BF98
:1007E00010BC7047401C490008BF20F0010010BC3D
:1007F000704710B5141E73F1000408DA401C41F173
:10080000000192185B411A4301D120F0010010BD94
:100810002DE9F04D92469B4611B1B1FA81F202E00A
:10082000B0FA80F220329046FFF77BFF04460F4675
:1008300040EA0A0041EA0B0153465A46084313D0E6
:10084000114653EA010019D0C8F140025046FFF7A3
:1008500077FF05460E46504659464246FFF761FF70
:10086000084305D0012004E020463946BDE8F08D5C
:100870000020054346EAE0762C4337430A98630597
:10088000E40AA0EB08000022FD0A44EA47540A30BB
:1008900002D500200146E9E7010510196941DDE9AB
:1008A000084500196941BDE8F04DA2E72DE9F04186
:1008B000054621F000400C46284309D0C4F30A50F5
:1008C00040F23341884205DD28462146BDE8F081EB
:1008D0002846FBE740F2FE31884210DC0CDB4FEA91
:1008E000043040EA155050EA053105D0104804F0B4
:1008F000004101430020E9E700200146E6E7A0F2BD
:1009000033404642C6F1400228462146FFF709FF20
:1009100007468846284621463246FFF711FF4346E0
:100920003A46FFF766FF3246BDE8F041FFF7F9BEF1
:100930000000F03FC1F30A52C1F3130140F2FF334C
:1009400041F480119A4202DA00200146704740F2D9
:1009500033439A42A2F2334202DC5242FFF7F0BE26
:10096000FFF7DFBE30B5041E71F1000404DB4FF069
:100970000044404264EB0101141E73F1000405DBE6
:100980001C464FF00043524263EB0403994208BFF8
:10099000904230BD064C074D06E0E06840F0010390
:1009A00094E8070098471034AC42F6D3FFF7A2FB57
:1009B00094740008B474000870B58C1810F8015BCA
:1009C00015F0070301D110F8013B2A1106D110F8E8
:1009D000012B03E010F8016B01F8016B5B1EF9D1EC
:1009E0002B0705D40023521E0DD401F8013BFAE772
:1009F00010F8013BCB1A921C03E013F8015B01F8DD
:100A0000015B521EF9D5A142D8D3002070BD21B19F
:100A1000826842F00102826003E0826822F00102F3
:100A20008260704700B587B001214FF4047001F077
:100A3000B9FA0220ADF8180000208DF81B0006A9B5
:100A40001D4800F0EFFB0020019001208DF8080008
:100A50008DF809004FF460200390002004900120DD
:100A60008DF8140001A9154800F04EF80523012265
:100A70000921124800F070F80121104800F020F818
:100A800001210E48FFF7C3FF0C4800F0C1F800BF7A
:100A90000A4800F02EF80028FAD1084800F0C8F8FB
:100AA00000BF064800F017F80028FAD101210348DA
:100AB00000F0B3F807B000BD000C01400024014075
:100AC00021B1826842F48072826003E0826822F47D
:100AD000807282607047014600208A6802F004023A
:100AE0000AB1012000E0002070470146C86C80B2C6
:100AF0007047014600208A6802F008020AB101200E
:100B000000E000207047000030B5024600200023BE
:100B100050680F4C20400D790C6844EA05242043AE
:100B2000506090680B4C2040D1E902542C434D7921
:100B300044EA450420439060D06A20F470000C7CA5
:100B4000641EE4B2234340EA0350D06230BD00008B
:100B5000FFFEF0FFFDF7F1FFF0B504460D46002063
:100B60000021092D11DDE068A5F10A0606EB460714
:100B7000072606FA07F18843A5F10A0606EB4606A2
:100B800003FA06F10843E0600CE0206905EB450735
:100B9000072606FA07F1884305EB450603FA06F136
:100BA00008432061072A0FDA606B561E06EB8607A2
:100BB0001F2606FA07F18843561E06EB860605FA3D
:100BC00006F10843606322E00D2A0FDA206BD61F7E
:100BD00006EB86071F2606FA07F18843D61F06EBA9
:100BE000860605FA06F10843206310E0E06AA2F1E8
:100BF0000D0606EB86071F2606FA07F18843A2F1C9
:100C00000D0606EB860605FA06F10843E062F0BD24
:100C1000816841F008018160704721B1826842F427
:100C2000A002826003E0826822F4A0028260704722
:100C3000816841F0040181607047000070B513487D
:100C4000FFF753FF1249134A128821F81200114886
:100C50000088401C80B20F490880142801DB002066
:100C600008800025002405E0094830F814000544F8
:100C7000601C84B2142CF7DB1420B5FBF0F006499D
:100C8000088001210148FFF7C8FF70BD0024014022
:100C9000940C00202E0000201400002038B500F035
:100CA000ABFB85B240F6E4406843C0EBC0004000B7
:100CB00040F6FF71B0FBF1F00B21B0FBF1F084B214
:100CC00040F6EC60844208DB2E4802237F2200219C
:100CD00000905F2000F0A5FE53E040F6746084426F
:100CE00008DB294802237F22002100905F2000F0CA
:100CF00098FE46E040F6AC50844208DB23480223CD
:100D00007F22002100905F2000F08BFE39E040F64A
:100D10004850844208DB1E4802237F2200210090B5
:100D20005F2000F07EFE2CE040F61650844208DB87
:100D3000184802237F22002100905F2000F071FEFE
:100D40001FE040F6EE4084420EDB124802237F2271
:100D5000002100905F2000F064FE02230EA2042117
:100D6000182000F08FFF0CE000F00FFF4FF48051CF
:100D7000104800F038FB002002F03CFC002002F09C
:100D8000C3FA38BD90050020D005002010060020D1
:100D900050060020900600204C6F7720506F77653A
:100DA000722C506C656173652043686172676521C0
:100DB000000000000008014010B500F0E3F904F065
:100DC000C5F803F03FF903F0D5F902F0D3FF04F0C2
:100DD00097FF00F057FC00F07BFEFFF723FE022098
:100DE00003F088F810BD00BFFEE7000038B50446E8
:100DF00000200090002525E04FF480711A4800F093
:100E0000E9FA9DF800100844C0B28DF800004FF4D4
:100E10000061164800F0DEFA9DF801100844C0B2E7
:100E20008DF801004FF48061104800F0D3FA9DF86E
:100E300002100844C0B28DF80200142004F06CF8CF
:100E4000681CC5B2072DD7DB00200AE01DF8001092
:100E5000022902DC0121215401E000212154411C1E
:100E6000C8B20328F2DB38BD00080140000C014085
:100E700010B54FF40041024800F0ACFA044610BD32
:100E8000000801400548006820F4807003490860AC
:100E90000846006840F4807008607047140C0140F8
:100EA0000548006820F00F00034908600846006804
:100EB00040F0040008607047040C014005480068D9
:100EC00020F00F00034908600846006840F0030066
:100ED00008607047040C01400548006820F48070E9
:100EE000034908600846006840F480700860704755
:100EF000100C01407047000000B58BB0202103A802
:100F0000FFF729F9012317A20321002000F0BAFE00
:100F10001A48C07819498978CDE9001017484378F4
:100F2000027817A103A803F06DFB012303AA042193
:100F3000002000F0A7FE202103A8FFF70CF916A25D
:100F400018A103A803F05EFB012303AA05210020DA
:100F500000F098FE012303A20621002000F092FE7B
:100F60000BB000BD2A2A2A2A2A2A2A2A2A2A2A2A11
:100F70002A2A2A2A2A2A2A2A2A00000008000020CF
:100F80002A204657205265763A2025642E25642E65
:100F900025642E256400000041756720313420321D
:100FA000303137002A205265446174653A20257338
:100FB0000000000010B50821014800F014FA10BD2F
:100FC000000C014010B50821014800F00EFA10BDD8
:100FD000000C014030B5044604254FF4302000F0E9
:100FE000A1F80546042D17D10C48006940F0020015
:100FF0000A49086108464461006940F04000086100
:101000004FF4302000F08EF805460448006941F6A0
:10101000FD71084001490861284630BD00200240AA
:1010200004200B49C96801F0010109B101200EE05B
:101030000749C96801F0040109B1022007E0044929
:10104000C96801F0100109B1032000E004207047D5
:10105000002002400348006940F080000149086117
:10106000704700000020024001B500200099C1F344
:1010700009021AB1012202EB912000E0880A08BDA2
:1010800010B5FFF7E7FF10BD70B504460D46042606
:10109000F00200F047F80646042E11D10948006915
:1010A00040F00100074908612580F00200F03AF89D
:1010B00006460448006941F6FE710840014908618E
:1010C000304670BD0020024073B582B0044604254E
:1010D00000260020019000F019F80398FFF7C4FFE4
:1010E00006460AE04FF48062019902FB0140FFF7D7
:1010F00071FF05460198401C01900198B04201D251
:10110000042DEFD0284604B070BD0000024803490A
:10111000486003484860704723016745002002404B
:10112000AB89EFCD00B502460423FFF779FF0346F4
:1011300003E0FFF775FF0346521E012B01D1002A81
:10114000F7D102B90523184600BDF8B506460C468E
:101150001746354600940EE029880098FFF794FF63
:10116000288800990988884201D00020F8BDAD1C6C
:101170000098801C0090E01900998842ECD801206A
:10118000F4E7000008B50121042000F00BFF012165
:10119000082000F007FF0121102000F003FF0121CB
:1011A000084600F0FFFE01211B4800F0C7F84FF48D
:1011B000C050ADF8000003208DF8020010208DF81B
:1011C00003006946154800F02DF84FF40140ADF8D2
:1011D000000003208DF8020004208DF8030069460A
:1011E0000E4800F01FF84FF44060ADF800000320F7
:1011F0008DF8020004208DF803006946084800F0CD
:1012000011F84FF48051054800F0EDF84FF40061FB
:10121000024800F0E8F808BD000230000008014074
:10122000000C01402DE9F041024600250026002077
:1012300000230024002791F803C00CF00F0591F85B
:1012400003C00CF0100CBCF1000F03D091F802C0E9
:101250004CEA050591F800C0BCF1000F31D01468CC
:1012600000202BE04FF0010C0CFA00F3B1F800C0A5
:101270000CEA03069E4220D183004FF00F0C0CFABB
:1012800003F7BC4305FA03FC4CEA040491F803C0DD
:10129000BCF1280F06D14FF0010C0CFA00FCC2F88B
:1012A00014C00AE091F803C0BCF1480F05D14FF01B
:1012B000010C0CFA00FCC2F810C0401C0828D1D365
:1012C0001460B1F800C0BCF1FF0F34DD5468002099
:1012D0002EE000F1080C4FF0010808FA0CF3B1F809
:1012E00000C00CEA03069E4221D183004FF00F0C90
:1012F0000CFA03F7BC4305FA03FC4CEA040491F82A
:1013000003C0BCF1280F05D100F1080C08FA0CF855
:10131000C2F8148091F803C0BCF1480F07D100F166
:10132000080C4FF0010808FA0CF8C2F81080401CB5
:101330000828CED35460BDE8F0810000F0B50A461D
:10134000002300240021002500F00046B6F1004FE4
:1013500002D11D4EF16901E01B4E7168C0F30345D7
:1013600083B200F44016B6F5401F08D121F0706139
:10137000154E766826F07066134F7E6012E000F41A
:101380008016B6F5801F06D1032606FA05F4A143A0
:1013900041F0706106E0460D360103FA06F6B143EE
:1013A00041F0706122B1460D360103FA06F6314371
:1013B00000F00046B6F1004F02D1034EF16101E0AA
:1013C000014E7160F0BD000000000140C2684A405B
:1013D000C26070470246002093680B400BB10120A9
:1013E00000E00020704741617047016170470AB119
:1013F000016100E041617047012080F3108800BF67
:1014000003480188002080F3108800BF0846704719
:101410001400002000B5FFF743FD0648006882B2C3
:1014200002F48070B0F5807F01D1012000BD002062
:10143000FCE70000080C0140054909680160044907
:101440000831096841600249091D096881607047D7
:10145000E8F7FF1F70B500206549086003F0E2FE61
:10146000CC2005F090F9BE2005F08DF904F0F0FADB
:10147000054604F0EDFA044604F0EAFA5D49086016
:1014800004F0E6FA5C49086004F0E2FA5B4908609F
:1014900004F0DEFA5A49086004F0DAFA59490860A3
:1014A00004F0D6FA5849086004F0D2FA57490860A7
:1014B000072C19DD01205649087045EA04204C49E3
:1014C000086008460068C043401C08600846006881
:1014D00040F2712148434649086008460068A0F57B
:1014E00043405038086013E000204949087045EA3D
:1014F00004203F4908600846006840F271214843D3
:101500003B49086008460068A0F543405038086031
:10151000374800683F4990FBF1F03F490860344884
:1015200000683C4990FBF1F201FB12003B4990FB43
:10153000F1F0394948602E48006842F2107190FB82
:10154000F1F0642190FBF1F201FB12000A2190FB03
:10155000F1F201FB1200304988602548006842F230
:10156000107190FBF1F201FB12004FF47A7190FBC5
:10157000F1F0294908611E4800684FF47A7190FB28
:10158000F1F201FB1200642190FBF1F02249486165
:1015900008460068642148431F49496801EB8101FE
:1015A00000EB41001C49896808441B49C860084693
:1015B00000694FF47A7148431749496901EBC10248
:1015C00002EB011100EB81001349896901EB8101F4
:1015D00000EB41001049C96908440F4908620846F8
:1015E000007B0F4908700C48008C0E49088070BDC4
:1015F00068000020480000204C000020500000201F
:1016000054000020580000205C00002060000020F2
:101610006C00002040420F002C0D0020A08601002D
:101620006D0000206E00002010B503F0FBFDCC2003
:1016300005F0A9F8442005F0A6F810BD00BFFEE7AC
:1016400070B502460024002500230020958A138BE4
:101650001B0445EA030626F07F4404EA01068E4295
:1016600001D1012000E0002070BD21B1028842F0CC
:101670000102028004E002884FF6FE731A400280E5
:101680007047000000B585B00121480500F06AFCF4
:101690000121082000F086FCC020ADF800000320E6
:1016A0008DF802001C208DF8030069461148FFF7F1
:1016B000B9FD114800F024F80020ADF808004BF601
:1016C000FF70ADF80A003020ADF80C004FF48060D8
:1016D000ADF80E000001ADF810000848019001219E
:1016E0000548FFF7C2FF01A9034800F05BF805B009
:1016F00000BD0000000C014000540040801A0600AC
:1017000010B504460B48844209D10121480500F078
:1017100039FC00214FF4001000F034FC08E00121F6
:10172000880500F02FFC00214FF4800000F02AFC17
:1017300010BD00000054004021B1028842F48072C4
:10174000028004E002884FF6FF631A40028070476F
:1017500021B1028842F40072028004E002884FF650
:10176000FF531A40028070470CB502460020002348
:101770000193009300920B0F019321F07F41019B95
:101780001BB1009B1433009303E0090C009B18333A
:101790000093009B1B680B400BB1012000E0002070
:1017A0000CBD00002DE9F04385B004460D4600262F
:1017B000B1460427DFF8CC80A6884FF6C0700640FB
:1017C000684600F0FFFBDDF808802F48B8FBF0F01A
:1017D0001FFA80F946EA0906A68020884FF6FE71B6
:1017E0000840208000262949286888420CD82868AB
:1017F0004000B8FBF0F087B2042F00DA04273E4324
:1018000009F10100208427E0E8884BF6FF71884247
:1018100006D1286800EB4000B8FBF0F087B209E081
:10182000286800EBC00101EB0010B8FBF0F087B2B4
:1018300047F48047C7F30B0008B947F0010747F4A6
:10184000004006434FF4967009FB00F04FF47A71A4
:1018500090FBF1F0401C2084A683208840F001001A
:10186000208026884FF6F5300640A888698908430D
:1018700006432680A88929890843208105B0BDE850
:10188000F083000000127A0040420F00A0860100A1
:1018900012B141F0010102E04FF6FE7319400182DE
:1018A000704701827047000070B504460D4600BFC6
:1018B0004FF400311C48FFF757FF0028F8D10121F1
:1018C0001948FFF739FF00BF18491748FFF7B8FE5E
:1018D0000028F9D0002278211348FFF7D9FF00BF74
:1018E00013491148FFF7ACFE0028F9D021460E48F5
:1018F000FFF7D7FF00BF0E49891C0B48FFF7A0FE7A
:101900000028F8D029460848FFF7CBFF00BF084958
:10191000891C0548FFF794FE0028F8D001210248F1
:10192000FFF716FF70BD00000054004001000300E7
:101930008200070000BFFEE77047000070B500217D
:1019400000230F22C47804B3154C246804F4E06427
:10195000C4F5E064210AC1F10403CA40447804FAE2
:1019600003F184781440214309010E4C0678A155F7
:10197000047804F01F050124AC4005786D11AD001A
:1019800005F1E025C5F8004109E0047804F01F05E1
:101990000124AC40044D0678761145F8264070BD10
:1019A0000CED00E000E400E080E100E010B5002074
:1019B00000F071F810BD70B5002415E004F1B0011D
:1019C000C8B202F001FE002002F0FEFD102002F07D
:1019D000FBFD002504E0002002F0FDFD681CC5B2FF
:1019E0005F2DF8DB601CC4B2022CE7DB022415E09B
:1019F00004F1B001C8B202F0E7FD002002F0E4FDFE
:101A0000102002F0E1FD002504E0002002F0E3FDDB
:101A1000681CC5B2802DF8DB601CC4B2082CE7DB63
:101A200070BD2DE9F05F06460F4690461C46DDF876
:101A300028A04FF0000BE11704EB5171C910A4EB83
:101A4000C10131B92046E11704EB5171C1F3C7055B
:101A500006E02046E11704EB5171C910491CCDB2D4
:101A60003D4614E02946304600F0CEF8B1460AE083
:101A700059460BF1010B1AF8010002F0ACFD09F117
:101A8000010000F0FF09C145F2DB681CC5B2A542A8
:101A9000E8DBBDE8F09F70B50646002415E004F1D0
:101AA000B001C8B202F090FD002002F08DFD1020C0
:101AB00002F08AFD002504E0304602F08CFD681C2F
:101AC000C5B2802DF8DB601CC4B2082CE7DB70BD0A
:101AD00010B54FF47A7003F01FFAAE2002F074FDD7
:101AE000202002F071FD102002F06EFDB02002F007
:101AF0006BFDC82002F068FD002002F065FD10209B
:101B000002F062FD402002F05FFD812002F05CFDEA
:101B1000FF2002F059FDA12002F056FDA62002F0A0
:101B200053FDA82002F050FD3F2002F04DFDA420FF
:101B300002F04AFDD32002F047FD002002F044FDF0
:101B4000D52002F041FDF02002F03EFDD92002F048
:101B50003BFD222002F038FDDA2002F035FD122094
:101B600002F032FDDB2002F02FFD202002F02CFDE0
:101B70008D2002F029FD142002F026FDAF2002F096
:101B800023FD2E2002F020FD10BD10B58D2002F0A7
:101B90001BFD102002F018FDAE2002F015FD10BD57
:101BA00010B50446022C00D202242146012003F085
:101BB00019FA00F012F80DE0012003F097F948B18E
:101BC0002E2002F001FD4FF4FA7003F0A5F9FFF7A3
:101BD000EDFE00E0F0E700BF10BD10B5292002F0D7
:101BE000F3FC002002F0F0FC002002F0EDFC0020ED
:101BF00002F0EAFC022002F0E7FC002002F0E4FC24
:101C00002F2002F0E1FC10BD70B504460D4605F131
:101C1000B001C8B202F0D8FC102141EA141002F061
:101C2000D3FC04F00F0141F0010002F0CDFC70BDC7
:101C30002DE9F04180460E46174600247D013146CD
:101C40004046FFF7E1FF00BF06E00D49485D02F0A6
:101C5000C2FC6D1C601CC4B2102CF6DB701CC1B23F
:101C60004046FFF7D1FF002406E00549485D02F039
:101C7000B2FC6D1C601CC4B2102CF6DBBDE8F08118
:101C8000700000202DE9F0470646894617469A461F
:101C90004FF0000800240025BAF1010F06D0BAF178
:101CA000020F29D0BAF1030F25D15DE020E0785D65
:101CB000203800F0FF087E2E04DD002609F1010027
:101CC00000F0FF0949463046FFF79EFF002409E077
:101CD00008EB4801384A02EB4101085D02F07BFC49
:101CE000601CC4B2062CF3DBB01DC6B2681CC5B2C2
:101CF000785D0028DBD15CE032E0785D203800F0D0
:101D0000FF08782E04DD002609F1020000F0FF092B
:101D100049463046FFF778FF002407E004EB08113E
:101D2000264A505C02F057FC601CC4B2082CF5DB5C
:101D300009F10100C1B23046FFF766FF002408E058
:101D400004EB081108311D4A505C02F044FC601C91
:101D5000C4B2082CF4DB06F10800C6B2681CC5B298
:101D6000785D0028C9D124E01FE0785D203800F0BC
:101D7000FF08782E04DD002609F1010000F0FF09BC
:101D800049463046FFF740FF002407E00C4901EBCD
:101D9000C801085D02F01FFC601CC4B2082CF5DB12
:101DA00006F10800C6B2681CC5B2785D0028DCD117
:101DB00000BF00BFBDE8F087BC670008E46C000806
:101DC000E4690008704700007CB51A4C04F1110565
:101DD000D4F8012006236946012004F09DFC04226A
:101DE00015A16846FEF7CEF9D0B1D4F80110012054
:101DF00004F07CFCD5F80110012004F077FC0EA063
:101E0000006800900020ADF80400D4F801200623FB
:101E10006946012004F08FFC09A002F0E3FB08E012
:101E2000BDF804000D490880084601880CA002F0A6
:101E3000D9FB7CBD13070020574157450000000027
:101E4000496E697420666C6173682073746F726187
:101E500067652073706163652E0D0A002C000020F9
:101E6000486973746F72795258436E743A25640DE1
:101E70000A00000008B511A002F0B4FB1DA220A1C9
:101E800022A002F0AFFB2848C07800902648837853
:101E90004278017825A002F0A5FB2A48806803BAA1
:101EA0002848406802BA2748006801BA26A002F014
:101EB00099FB02A002F096FB08BD00002A2A2A2AFC
:101EC0002A2A2A2A2A2A2A2A2A2A2A2A2A2A2A2A72
:101ED0002A2A2A2A2A2A2A2A2A2A2A2A2A2A2A2A62
:101EE0002A2A2A2A2A2A2A2A2A2A2A2A2A2A0D0A8F
:101EF0000000000030303A30343A3239000000003F
:101F00004175672031342032303137002A20526544
:101F10006C656173652044617465203A20257320E7
:101F200025730D0A00000000080000202A204657F3
:101F3000205265763A2025642E25642E25642E25B0
:101F4000640D0A00880800202A2048572049443A96
:101F50002025303858202530385820253038580D65
:101F60000A00000029B1064AD2690243044BDA6133
:101F700004E0034AD2698243014BDA6170470000F2
:101F80000010024029B1064A12690243044B1A614B
:101F900004E0034A12698243014B1A617047000052
:101FA0000010024029B1064A92690243044B9A612B
:101FB00004E0034A92698243014B9A617047000032
:101FC0000010024030B500210022002400232D4DD6
:101FD0006D6805F00C0121B1042905D0082923D131
:101FE00005E0294D056022E0274D05601FE0254DE5
:101FF0006D6805F47012234D6D6805F48034022578
:1020000005EB92421CB9214D554305600BE01D4D77
:102010006D6805F400351DB11C4D5543056002E0A7
:10202000194D5543056002E0174D056000BF00BF24
:10203000144D6D6805F0F0010909154D6B5C0568DC
:10204000DD4045600F4D6D6805F4E061090A104DF3
:102050006B5C4568DD4085600A4D6D6805F4605134
:10206000C90A0B4D6B5C4568DD40C560054D6D6868
:1020700005F44041890B074D6B5CC568B5FBF3F572
:10208000056130BD0010024000127A0000093D00D9
:10209000E8070020F80700200748084908600848BA
:1020A0004860084888600848C860084808610848CF
:1020B0004861084670470000F9280008981D002074
:1020C000FB37000851390008D52800082D390008D1
:1020D0001D37000821B1028842F04002028004E06E
:1020E00002884FF6BF731A400280704702460020F4
:1020F00013890B400BB1012000E00020704701461E
:10210000888970478181704710B50022028802F4E7
:1021100041520B884C8823438C882343CC8823432B
:102120000C8923434C8923438C892343CC89234343
:102130001A430280838B4FF2FF74234083830B8A00
:10214000038210BD7047000030B51648006890F853
:10215000270000F00700421C1248006890F8300089
:10216000C3091048006890F8300000F0060008B17C
:10217000012000E0002004460A48006890F8321070
:102180000848006890F8300000F01000102801D1D5
:10219000022000E000200546D018204408442844CE
:1021A00080B230BD5407002070B505460C46064885
:1021B000008820800020044908802288034928469E
:1021C000FDF7B0FF70BD000068070020201E002052
:1021D0002DE9F04F89B001200890F84800780C28CC
:1021E0007ED2DFE800F0060784EFEDECEBEAE9E8E9
:1021F000E7E6BFE2F248006890F8300000F0100017
:10220000102805D14C20EE49096881F8400004E00F
:102210000C20EB49096881F84000E120E849096891
:1022200081F841000222E64801684031402001F077
:10223000A5FB052000F002FB4FF48071E148FDF79B
:102240008AFFE1494868FEF798F9CDE90201FFF7F6
:102250007BFF0190FEF791F980460022DB4BFEF7F1
:102260008CF80646DDE90223FEF7F9F80022D84B88
:10227000CDE90401FEF781F8CDE9060103F008FC81
:1022800004460022D34BFDF7D1FF8246FEF7A1F9A9
:1022900080B2D14908600846006800EB5000086031
:1022A00008460068CD490860CD480068CD490860FF
:1022B000CD490860A020C249096881F83500C048AE
:1022C000006890F83510352001F050FB0020C74918
:1022D0000870C7490870C7490870C749087000E00E
:1022E00047E2C64908800220B449087042E201F082
:1022F00073FA012809D1BD48007830B90120BB49E3
:102300000870B7480068B849086001F053FA01281E
:102310001ED1B648007801281AD1B5480078B8B95E
:102320000120B349087000F063FAB54A03C200F017
:1023300037FAB449086000F073FAB3490870A84846
:102340000068A8490860A849086003209B490870F4
:10235000A7480078B8B9A5480078012813D1A0484B
:102360000068A1490968401A9C49096888420AD94D
:1023700001209249087092480068407B40F020019B
:102380000D2001F0F3FA9A48007888B99748007850
:1023900070B99848007858B991480068914909681F
:1023A000401A8D490968884202D90520834908707E
:1023B000E0E1D8E1D1E184E14FE127E1EAE0D6E0D4
:1023C000CCE0FFE78D480088B0F5807F03DD062074
:1023D0007A490870CEE101F0E3F9012853D187482A
:1023E0000088A8B98448007890B97548006890F8CA
:1023F000300000F08000802804D101217F4801F0E6
:10240000F3F905E06E48006890F832007B490880D7
:102410007A48008878490978401A6949096891F82A
:10242000351001F03F01884217DD654A126892F8C5
:10243000352002F03F01634A6F4B1B78D01801F042
:10244000D3F95F48006890F8350000F03F006A4912
:10245000097808446849087015E0684A1278664BA4
:102460001B78D21AD1B2574A634B1B78D01801F0AF
:10247000BBF96248007860490978401A5E490978DA
:1024800008445D49087001F081F9012856D154488B
:102490000068544908605948008890BB5648007845
:1024A00078BB4748006890F8300000F08000802832
:1024B00004D10121514801F097F905E04048006836
:1024C00090F832004D4908804C4A12784A4B1B78EC
:1024D000D21AD1B23B4A484B1B78D01801F084F98C
:1024E0004648007844490978401A43490978084425
:1024F0004149087001203F49087004202F490870A5
:102500001CE0FFE73D4A12783B4B1B78D21AD1B250
:102510002C4A394B1B78D01801F066F937480078FF
:1025200035490978401A3449097808443249087015
:102530000120304908700420204908702D48007897
:1025400058B92748006827490968401A224909688C
:10255000884202D90520194908700BE1002026495C
:1025600008700120154908700220089002E100203F
:10257000214908702149088011480068407B40F0DB
:1025800020010D2001F0F2F901200C490870032010
:102590000890EFE0002018490870184908800848A2
:1025A0000068407B40F020010D2001F0DFF90120A0
:1025B0000249087006200890DCE00000590700205E
:1025C00054070020201E0020380700200000204073
:1025D00000408F400000F03F5C07002060070020B3
:1025E000D007002080070020840700206407002017
:1025F00065070020660700206A07002068070020A2
:1026000070070020780700207C07002001205C492B
:10261000096881F8400020205949096881F8410083
:102620000222574801684031402001F0A7F9982064
:102630005349096881F835005148006890F8351011
:10264000352001F093F9032000F0F8F808204D49F7
:10265000087000204C4908708CE001F0B5F80128A2
:102660002ED14748006890F8300000F080008028A4
:1026700003D10121454801F0A1F944480088002810
:1026800008DD42480088402804DC40480078404982
:10269000087002E020203E4908703D4801783D481E
:1026A00001F08CF9384800783949097808443649EE
:1026B00008703948006839490860092031490870B4
:1026C00058E001F06DF870BB304800882E49097859
:1026D000401A2F49097888420FDD2E492A4A12787C
:1026E00088182B49097801F069F9274800782849AA
:1026F000097808442449087015E0244A1278224BCE
:102700001B78D21AD1B2234A1F4B1B78D01801F084
:1027100055F91E4800781C490978401A1A49097869
:1027200008441949087001F031F8012809D11A4804
:1027300000681A4908600A2012490870012000F058
:102740007DF81548006815490968401AB0F57A7F88
:1027500002D90B200B4908700CE0002009490870D1
:102760000420089006E00020064908700520089023
:1027700000E000BF00BF089809B0BDE8F08F00007E
:1027800054070020590700206B070020880700200D
:1027900058070020201E0020D00700208C070020B2
:1027A0002DE9F0470222104801681B311B2000F080
:1027B000CBFF0D490968097F0B4A1268D27E41EAB6
:1027C0000220FDF7C9FE8046FDF7E4FE8246FDF7D4
:1027D000C3FE06460022054BFDF7CFFD0446FDF77C
:1027E000D9FEBDE8F087000054070020A8CB484080
:1027F00070B50A4801681131112000F09BFF0749AC
:102800000968487CFDF7B9FE044600224FF080437A
:10281000FDF725FE81F0004170BD00005407002047
:1028200010B5054801680C310C2000F083FF024808
:102830000068007B400910BD5407002070B50446B5
:10284000002514480068407820F0F800124908700C
:102850000846007884421CD0032C01D1012500E0F9
:1028600000250E480078854204D00C4805702846A3
:1028700001F0ADF807480068407800F0F800204308
:10288000044909684870034800684178012001F054
:102890006DF870BD540700209007002091070020BC
:1028A00001490870704700005907002070B50446C0
:1028B0000D4605480580028821460448FDF732FC94
:1028C00007200349087070BD88070020201E0020E3
:1028D0005907002070B504460D460648007820B917
:1028E00029462046FFF760FC03E02946204600F019
:1028F00095F870BD360700201CB5164816490860CB
:102900001649086000F040F800F077FF01A90620A2
:1029100000F010FF6946422000F00CFF0CE010A010
:1029200001F060FE022312A203210020FFF7AAF9A2
:102930004FF4FA6002F0F0FA9DF804006C28EED132
:102940000120104908700846007800F065FF00F08B
:1029500079F81CBDB01D002054070020B0070020EE
:10296000486172642053504920457272210D0A005B
:102970005246204D6F64756C65204572726F7221EE
:10298000000000003607002008B501211D20FFF7D8
:1029900009FB10208DF8030003208DF8020001F0E0
:1029A000B1F904208DF80300C002ADF800006946BB
:1029B0001448FEF737FC4FF48040ADF8000069463C
:1029C0001048FEF72FFC4FF40040ADF800006946B8
:1029D0000C48FEF727FC0120ADF8000069460A48C4
:1029E000FEF720FC0220ADF8000069460648FEF71D
:1029F00019FC1020ADF8000069460448FEF712FCEF
:102A000008BD00000010014000080140000C01401A
:102A10000148007870470000B407002070B50546F3
:102A20000C4606480088208000200449088022883F
:102A300003492846FDF776FB70BD0000B60700206D
:102A4000201F002010B500202D49087000F0D8FB91
:102A50006F222C49012000F077FE20202A490968C6
:102A600008736F222749012000F088FF2749086872
:102A700000F012FD2549887900F0E0FD2349C8796E
:102A800000F0C8FB2149087A00F0B6FC1F494879DC
:102A900000F0B6FD1D49487A00F0DCFB40F2FF3043
:102AA00000F0FAFD1949087E00F0C6FC012000F094
:102AB000EFFB102000F0D4FC144800681449884251
:102AC0000DD9802000F052FC012000F069FC142098
:102AD0000E49087191F9040000F00AFD0CE0002095
:102AE00000F044FC002000F05BFC0E200749087158
:102AF00091F9040000F0FCFC012000F005FC10BD81
:102B0000B4070020B11D0020B0070020940700206A
:102B10000057A6162DE9F04F85B001200490FE481D
:102B200000780B2874D2DFE800F0060774CCFEFDB5
:102B3000FCFB73FAF90041E3012000F0E5FB9D2066
:102B4000F64909684874F5480068417C112000F096
:102B50000DFFF348C07A012816D1F148007BEF49F8
:102B6000096881F82400ED4801681C311C2000F040
:102B7000E1FDEA490968097F01F03F01E94A52F89D
:102B8000210000F089FC04E0FF20E449096881F895
:102B90002400E248006890F82410242000F0E6FEAB
:102BA0000020DE49096881F83F00DC49096881F8A6
:102BB00040000222D94801683F31402000F0DEFE8B
:102BC000D748807A012803D1062000F09DFB0EE053
:102BD000D2480068C07BD14909684873CF48006873
:102BE000417B0D2000F0C2FE052000F08DFB4FF46C
:102BF0008071CD48FDF7AFFAC9484069CB490860FC
:102C0000CB480068CB4908600220C3490870D5E270
:102C1000D3E200F0BBFD01281ED1C5480068C549BC
:102C20000860BF48C07A01280FD1BC4801681C3138
:102C30001C2000F07FFDB9490968097F01F03F01C0
:102C4000B84A52F8210000F027FC4021122000F081
:102C50008DFE0320B049087000F0ACFD01281FD1A3
:102C6000B3480068B3490860AD48C07A01280FD165
:102C7000AA4801681C311C2000F05CFDA7490968C6
:102C8000097F01F03F01A74A52F8210000F004FC3F
:102C90000221122000F06AFE00F0A4FAA649087092
:102CA0009F48807A01280BD1A1480068A149096892
:102CB000401A9E490968884202D904209649087042
:102CC0007CE2964801681231122000F033FD9348EF
:102CD0000068807C00F0200020280ED120211220E6
:102CE00000F044FE8E48807A012802D18A4908709B
:102CF00002E002208849087060E203A9192000F070
:102D000019FD9DF80C0000F08000A0B19DF80C00AA
:102D1000C043401CC0F38500884905E031E20CE265
:102D200002E2D9E15EE157E10870084600784042CE
:102D300040B2087004E09DF80C0080087F490870DC
:102D4000774800687E4988424ED27C4890F900005E
:102D500000282ADA794890F90000FDF7FDFB824649
:102D60008B466F484079774901EBC00003C80246A3
:102D70000B46CDE9000100207349FDF7FEFA002261
:102D8000724BCDE90201FDF751FA06460022704B65
:102D9000FDF74CFA044652465B46FDF747FA80467B
:102DA000FDF75CFC6B4908606BE05C4801681A3118
:102DB0001A2000F0BFFC59490968887EFDF7DDFB49
:102DC0008046894656484079634901EBC000D0E906
:102DD0000063324640464946FDF728FA0446FDF7AF
:102DE0003DFC5C4908604CE0544890F90000002824
:102DF00029DA524890F90000FDF7AEFB804689467B
:102E0000474840794F4901EBC001D1E900633246A0
:102E100000204D49FDF7B1FA044600224B4BFDF767
:102E200005FA00224D4BCDE90001FDF7FFF94246BE
:102E30004B46CDE90201FDF7F9F98246FDF70EFC9C
:102E4000444908601DE0354801681A311A2000F035
:102E500071FC32490968887EFDF78FFB8046894600
:102E60002F4840793E4901EBC000D0E9006332466B
:102E700040464946FDF7DAF90446FDF7EFFB3549D0
:102E800008602748807A01282FD124480068C07B39
:102E900022490968487321480068417B0D2000F0F1
:102EA00065FD1F48407A01280DD11C48006890F844
:102EB00022002C4908801948006890F822101A480E
:102EC00000F092FC7BE0154801681331132000F0FC
:102ED00031FC12480068C07C224908800F48006815
:102EE000C17C114800F080FC69E00C480168103199
:102EF000102000F01FFC0A48407A012842D1074800
:102F0000006890F822001749088004480068007C97
:102F100002490968487327E0B4070020B007002081
:102F200094070020C8730008201F0020C807002055
:102F3000D0070020C4070020C0070020B8070020E9
:102F4000008F4233D87200080000244000C065C0E2
:102F500000001040BC070020287300080000184043
:102F600078730008B607002097480068417B0D2061
:102F700000F0FCFC9448006890F82210934800F0A0
:102F800033FC1CE0904801681331132000F0D2FBA1
:102F90008D480068C07C8E4908808B480068007CA2
:102FA00089490968487388480068417B0D2000F012
:102FB000DDFC85480068C17C844800F015FC85482C
:102FC000807A012802D18449087002E002208249F7
:102FD000087002200490F1E001207F49087003206E
:102FE0000490EBE0012000F08FF97A48C07A0128C4
:102FF0001AD1F5207449096848747648007B7249F3
:10300000096881F82400704801681C311C2000F018
:1030100091FB6D490968097F01F03F016F4A52F841
:10302000210000F039FA08E0F72067490968487480
:1030300000206549096881F824006348006890F819
:103040002410242000F092FC5F480068417C11208D
:1030500000F08CFC624800785B49096881F8220026
:103060005948006890F82210222000F07FFC0020D0
:1030700055490968887354480068817B0E2000F028
:1030800075FC51480068807B4F49096848734E4879
:103090000068417B0D2000F069FC4B48006890F807
:1030A00022104A4800F08AFC41204749096881F80B
:1030B0003F0040204449096881F84000022242480C
:1030C00001683F31402000F059FC032000F01CF95A
:1030D00006204149087071E000F058FB012806D134
:1030E0000821122000F042FC07203B49087000F044
:1030F00061FB012817D13748C07A01280FD1324827
:1031000001681C311C2000F015FB2F490968097F5C
:1031100001F03F01314A52F8210000F0BDF90221CF
:10312000122000F023FC49E0012000F0EDF800201F
:10313000294908700420049040E0012000F0E4F8E0
:10314000FA202149096848741F480068417C112011
:1031500000F00CFC00201C49096881F83F001A4966
:10316000096881F840000222174801683F31402079
:1031700000F004FC072000F0C7F80A201649087088
:103180001CE000F021FB012816D10421122000F0E0
:10319000EDFB00F021FB012809D10121122000F0F4
:1031A000E5FB01200C4908700820049004E0002091
:1031B000094908700720049000E000BF00BF049890
:1031C00005B0BDE8F08F0000B0070020201F0020F0
:1031D000B607002094070020B4070020C873000839
:1031E000CC07002010B5054801680C310C2000F018
:1031F000A1FA02480068007B400910BDB00700201A
:1032000010B5034801684131422000F093FA10BD27
:10321000B007002010B504460C4801681D311D2080
:1032200000F088FA09480068407F00F0F10040EAA9
:10323000440006490968487704480068417F1D201A
:1032400000F094FB0248C47110BD0000B0070020DC
:103250009407002010B504460B4801681D311D205D
:1032600000F068FA08480068407F00F0FE00204344
:1032700005490968487704480068417F1D2000F02F
:1032800075FB0248447210BDB0070020940700206F
:1032900010B504460C4801682631262000F04AFA91
:1032A0000948006890F8260000F0F70040EAC400E2
:1032B0000549096881F826000348006890F826103F
:1032C000262000F053FB10BDB007002010B50446C7
:1032D0000C4801683031312000F02CFA09480068B0
:1032E00090F8300000F0F80020430649096881F8A2
:1032F00030000448006890F83010312000F036FBB0
:1033000010BD0000B007002070B504460025144829
:103310000068407820F0F8001249087008460078EC
:1033200084421CD0032C01D1012500E000250E4869
:103330000078854204D00C480570284600F047FB11
:1033400007480068407800F0F80020430449096805
:103350004870034800684178012000F007FB70BD09
:10336000B0070020CE070020CF07002010B504468C
:103370000A4801680931092000F0DCF907480068B3
:10338000407A00F07F0020430449096848720348EE
:103390000068417A092000F0E9FA10BDB00700206A
:1033A00010B50446134801684C314D2000F0C2F9B5
:1033B000104801680931092000F0BCF90D48006887
:1033C000407A00F08000802807D1012C0AD18720A4
:1033D0000849096881F84C0004E08420054909681F
:1033E00081F84C000348006890F84C104D2000F024
:1033F000BDFA10BDB007002010B504460C480168A6
:103400001E311E2000F096F909480068807F00F008
:10341000FB0040EA84000649096888770448006890
:10342000817F1E2000F0A2FA0248047210BD000045
:10343000B00700209407002010B504460648006835
:1034400080F822400448006890F82210222000F002
:103450008DFA0248047610BDB007002094070020C2
:1034600010B5044602220B4801682031202000F0EC
:103470006BF9200A0749096881F8200005490968A5
:1034800081F821400222034801682031202000F009
:1034900075FA10BDB00700202DE9F041044611482F
:1034A00004602046FDF769F8054600220E4BFCF744
:1034B000D6FF0746FDF78DF80446200C0B49096836
:1034C0008871200A09490968C871084909680C729D
:1034D000032206480168891D062000F04FFABDE866
:1034E000F08100009407002080844E40B007002047
:1034F00010B504463D4801680931092000F01AF969
:103500003A4801684C314D2000F014F93748006802
:10351000407A00F08000802841D13448006890F85B
:103520004C0000F0870087281CD1052C00DA052408
:10353000142C00DD14242D480068407A00F08F0020
:1035400040F0700029490968487228480068407AAC
:1035500000F0F000611F01F00F01084323490968E2
:1035600048723AE0022C00DA0224112C00DD11240A
:103570001E480068407A00F08F0040F070001B4940
:103580000968487219480068407A00F0F000A11EEE
:1035900001F00F0108431549096848721DE0B4F1B4
:1035A000FF3F01DA4FF0FF340E2C00DD0E240F48F0
:1035B0000068407A00F08F0040F070000B49096805
:1035C00048720A480068407A00F0F000611C01F07F
:1035D0000F01084305490968487204480068417AA8
:1035E000092000F0C3F90248047110BDB0070020A3
:1035F000940700200149087070470000B4070020BC
:1036000010B504460B4801681D311D2000F092F8EA
:1036100008480068407F64F31F100649096848772E
:1036200004480068417F1D2000F0A0F90248447161
:1036300010BD0000B00700209407002010B504461C
:103640000C2C01DD0C2402E0062C00DA0624062CEA
:1036500003D10520FFF73AFE02E00320FFF736FE14
:103660000B4801681E311E2000F064F8084800680D
:10367000807F64F31F100649096888770448006852
:10368000817F1E2000F072F90248847110BD000095
:10369000B00700209407002010B5044602220F480E
:1036A00001681E311E2000F04FF80C480068807F32
:1036B00000F0FC006FF0FC0101EA242108430749F7
:1036C0000968887705490968CC77022203480168B0
:1036D0001E311E2000F052F910BD0000B00700207E
:1036E00070B504460D460948C07A10B908480580EF
:1036F00002E0FF2006490880054802882146054867
:10370000FCF710FD05200449087070BD94070020E7
:10371000CC070020201F0020B407002010B504486B
:10372000007810B9FEF754FD10BDFFF7F3F9FBE781
:103730003607002070B504460D4601222946204672
:1037400000F002F870BD00002DE9F04105460E467C
:103750001746002210210C48FDF749FE05F07F00B6
:1037600000F0ECFA002405E0002000F0E7FA305504
:10377000601CC4B2BC42F7DB012210210248FDF7F5
:1037800036FEBDE8F08100000008014010B54FF49E
:1037900000510248FDF71EFE10BD00000010014060
:1037A00010B54FF480410248FDF714FE10BD000033
:1037B0000010014010B54FF400410248FDF70AFE29
:1037C00010BD00000010014010B501210148FDF7B7
:1037D00001FE10BD0008014010B502210148FDF7AF
:1037E000F9FD10BD0008014070B504460D462A469B
:1037F00021460020FFF7A8FF70BD10B5012000F0A2
:1038000069F80A2001F088FB002000F063F80A2024
:1038100001F082FB10BD000010B504462948007875
:10382000A04200D110BD27480470274804700078DA
:1038300001282BD10020FFF767FD2448006840785D
:1038400000F07F0040F080002049096848701F4860
:1038500000684178012000F089F80120FFF754FD4D
:1038600000201A49096881F83F001849096881F861
:1038700040000222154801683F31402000F07EF8E8
:103880006F2213490120FFF75FFF18E00020FFF7C8
:103890003BFD0E480068407800F07F000B49096846
:1038A00048700A4800684178012000F05FF8012064
:1038B000FFF72AFD6F2206490120FFF745FF00BFF1
:1038C000B0E700003707002036070020B0070020CF
:1038D000B11D002038B50446012C12D12020ADF8CE
:1038E000000003208DF8020010208DF803006946C7
:1038F0000D48FDF797FC002220210B48FDF777FDCE
:1039000011E02020ADF8000003208DF80200102007
:103910008DF8030069460448FDF784FC012220214C
:103920000148FDF764FD38BD000C014070B5044648
:103930000D460648007820B929462046FEF7B6FF16
:1039400003E029462046FFF7CBFE70BD3607002076
:1039500010B50548007818B90120FEF7A1FF02E074
:103960000120FFF747FE10BD3607002013B50446BF
:10397000012201A9204600F001F81CBD2DE9F0410B
:1039800005460E461746002210210B48FDF72FFD75
:1039900045F0800000F0D2F9002404E0305D00F032
:1039A000CDF9601CC4B2BC42F8DB012210210248F0
:1039B000FDF71DFDBDE8F0810008014070B504462B
:1039C0000D462A4621460020FFF7D8FF70BD10B5EE
:1039D000044614B100F0A4F901E000F093F910BD21
:1039E00010B506240AE0A11F202202EB0111C8B283
:1039F00022460321FEF71CF9601CC4B2092CF2DB3D
:103A0000022303A203215020FEF73CF910BD000061
:103A10002E2E2E002DE9F04F8DB007468846914698
:103A20009A46179C002604A80390FF208DF81000EA
:103A3000199848B93868CDF811007868CDF81500A4
:103A4000387A8DF8190019E0199801280DD13868D5
:103A5000CDF81100042505E030210DF1110041558C
:103A6000681CC5B2092DF7DB08E0002504E00DF164
:103A700011004555681CC5B2092DF8DBCDF81A8038
:103A8000CDF81E901698FCF7BDFD02460B46CDE919
:103A900000015EA10DF1230000F0B4FD8DF822A01D
:103AA000ADF82B401898ADF82D00002505E00398DF
:103AB000401C405D4640681CC5B21E2DF7D38DF8F2
:103AC0002F60F0208DF8300021220120039902F0B0
:103AD00037FD012002F0D8FC21220020039902F0DA
:103AE0002FFD002002F0D0FC2046E11704EBD1614D
:103AF0004911A4EB4111474A02EB411146A2138838
:103B00000B8092788A70E11704EBD1614911A4EB24
:103B10004111404A02EB4111DDF8112041F8032F19
:103B2000DDF815204A609DF819200A72E11704EBB0
:103B3000D1614911A4EB4111364A02EB4111C1F8A0
:103B40000C80E11704EBD1614911A4EB411102EBA8
:103B50004111C1F81090E11704EBD1614911A4EBB8
:103B6000411102EB411181F814A01698FCF74AFDAF
:103B7000A346CDE90001E11704EBD1614911A4EBA3
:103B80004111244A02EB411101F115001FA1DDE9A9
:103B9000002300F037FD2046E11704EBD161491105
:103BA000A4EB41111B4A02EB4111A1F81B40E217A3
:103BB00004EBD2625211A4EB4212164B03EB4212F9
:103BC0001899A2F81D100026E11704EBD1614911E4
:103BD000A4EB41111A4602EB41110291002504E0C9
:103BE0000298405D4640681CC5B21F2DF8D32046A0
:103BF000E11704EBD1614911A4EB4111054A02EB35
:103C00004111CE770DB0BDE8F08F000025302E3188
:103C100066000000940800204651480010B500F0EE
:103C200001F810BD0CB500200190009033480068E9
:103C300040F480303149086000BF3048006800F42B
:103C4000003000900198401C0190009818B901982C
:103C5000B0F5A06FF1D12948006800F4003010B130
:103C60000120009001E0002000900098012843D13D
:103C70002348006840F010002149086008460068A9
:103C800020F0030008600846006840F00200086069
:103C90001A48406819494860084640684860084624
:103CA000406840F4806048600846406820F47C101A
:103CB00048600846406840F4E810486008460068DC
:103CC00040F08070086000BF0C48006800F0007091
:103CD0000028F9D00948406820F0030007494860EF
:103CE0000846406840F00200486000BF0348406852
:103CF00000F00C000828F9D10CBD000000100240B3
:103D00000020024010B501210448FDF76EFB4FF47E
:103D100000710248FDF767FB10BD0000000C014078
:103D200010B501210448FDF75EFB4FF40071024815
:103D3000FDF75BFB10BD0000000C014010B5044610
:103D400000BF02210A48FEF7D1F90028F9D0214628
:103D50000748FEF7D7F900BF01210548FEF7C6F96D
:103D60000028F9D00248FEF7CAF9C0B210BD000021
:103D70000030014000B587B0012141F20500FEF797
:103D800011F903208DF8060018208DF80700E020B7
:103D9000ADF8040001A91D48FDF744FA10208DF884
:103DA000070003208DF806001020ADF8040001A9DB
:103DB0001648FDF737FA012210211448FDF717FBCA
:103DC0000020ADF808004FF48270ADF80A00002022
:103DD000ADF80C00ADF80E00ADF810004FF4007017
:103DE000ADF812001020ADF814000020ADF8160058
:103DF0000720ADF8180002A90548FEF785F9012152
:103E00000348FEF767F907B000BD00000008014055
:103E10000030014010B500F009F803480068401C6C
:103E20000149086010BD0000D007002010B5002433
:103E300006E0144901EBC40001F0C8F8601CC4B2EC
:103E4000042CF6DB10480068401C0F490860084647
:103E500000686FF00041884202D100200A490860E2
:103E60000A480068401C09490860B0F57A7F06D30B
:103E70000020086006480068401C05490860FCF7FF
:103E8000DDFE10BDBC0C0020340000203C000020F2
:103E90002800002010B51348006840F001001149C7
:103EA000086008464068104908400E4948600846C6
:103EB00000680E4908400B4908600846006820F475
:103EC000802008600846406820F4FE0048604FF4F7
:103ED0001F008860FFF7A2FE4FF0006004490860F1
:103EE00010BD0000001002400000FFF8FFFFF6FECA
:103EF00008ED00E03EB5044601210846FEF732F821
:103F00000120ADF8040024B941F61F40ADF80000CF
:103F100010E0012C04D140F2CF20ADF8000009E000
:103F2000022C03D14720ADF8000003E041F61F400A
:103F3000ADF800000020ADF806001020ADF802003A
:103F40006946800600F02CF83EBD70B50446A5B267
:103F50000121880700F013F829464FF0804000F057
:103F60001DF804E04FF0804000F015F80546012DE3
:103F7000F8DC00214FF0804000F001F870BD21B165
:103F8000028842F00102028004E002884FF6FE73CC
:103F90001A40028070470146888C704781847047C0
:103FA000002202881D4B98420ED01D4B98420BD028
:103FB000B0F1804F08D01B4B984205D01A4B984265
:103FC00002D01A4B984204D14FF68F731A404B8897
:103FD0001A43174B984207D0164B984204D04FF61D
:103FE000FF431A40CB881A4302808B8883850B8855
:103FF00003850A4B98420BD0094B984208D00E4BD0
:10400000984205D00D4B984202D00D4B984201D1F9
:104010000B7A03860123838270470000002C014045
:10402000003401400004004000080040000C004043
:1040300000100040001400400040014000440140D6
:104040000048014000B587B0012144F20400FDF7AB
:10405000A9FF4FF40070ADF8180018208DF81B0070
:1040600003208DF81A0006A92048FDF7DBF84FF46D
:104070008060ADF8180004208DF81B0006A91B48CD
:10408000FDF7D0F825208DF8140000208DF81500DC
:104090008DF8160001208DF8170005A8FDF74EFCDD
:1040A0004FF4E13001900020ADF80800ADF80A00AF
:1040B000ADF80C00ADF810000C20ADF80E0001A911
:1040C0000B4800F03FF9012240F22551084800F06A
:1040D00013F90121064800F0CCF8142000F01CFF71
:1040E0004021034800F0BCF807B000BD00080140C3
:1040F0000038014010B540F22551194800F0D2F8BF
:1041000068B3184800F08AF9C4B22146002002F0D2
:10411000A3F915480078002804DD13480078401CF6
:10412000114908700D2C06D1104804700E48007813
:10413000401C0D4908700C48007802280FD10B482C
:104140004470002008490870084800780D2806D1FE
:10415000064840780A2802D101200549087010BDA0
:1041600000380140004800403200002030000020AC
:104170003507002000B587B001210420FDF712FFAC
:1041800001214804FDF7EEFE0420ADF818001820C8
:104190008DF81B0003208DF81A0006A92048FDF7B2
:1041A00041F80820ADF8180004208DF81B0006A97E
:1041B0001B48FDF737F826208DF8140000208DF8F5
:1041C000150001208DF816008DF8170005A8FDF7E1
:1041D000B5FB4FF4E13001900020ADF80800ADF8D8
:1041E0000A00ADF80C00ADF810000C20ADF80E0080
:1041F00001A90C4800F0A6F8012240F22551094817
:1042000000F07AF80121074800F033F8142000F09C
:1042100083FE4021034800F023F807B000BD0000F2
:10422000000801400044004010B540F22551044808
:1042300000F038F818B1024800F0F0F8C4B210BD30
:104240000044004010B540F22551044800F02AF81F
:1042500018B1024800F0E2F8C4B210BD00480040B6
:1042600001F40072B2F5007F00D100BFCA430280A2
:10427000704721B1828942F40052828104E0828930
:104280004DF6FF731A408281704702460020B1F557
:10429000007F00D100BF13880B400BB1012000E06C
:1042A0000020704770B5024600240023002500203E
:1042B00040F66A16B14200D100BFC1F3421501F0C9
:1042C0001F03012606FA03F3012D02D1968933401C
:1042D00006E0022D02D1168A334001E0968A33406F
:1042E0000C12012606FA04F41688344013B10CB1FE
:1042F000012000E0002070BDF0B503460024002638
:104300000025002040F66A17B94200D100BF1846C8
:10431000C1F3421401F01F06012707FA06F5012C2C
:1043200001D10C3004E0022C01D1103000E0143037
:104330001AB107682F43076002E00768AF430760C0
:10434000F0BD00002DE9F04786B005460E4600247A
:10435000A24600BFA1460027B08900B100BF2F468A
:104360002C8A4CF6FF700440F08804432C82AC8900
:104370004EF6F3100440B088318908437189084330
:104380000443AC81AC8A4FF6FF400440B08904433B
:10439000AC8201A8FDF716FE1F48874202D1DDF866
:1043A00010A001E0DDF80CA0A88900F4004040B1A5
:1043B0000AEBCA0000EB0A1031684900B0FBF1F8C3
:1043C00007E00AEBCA0000EB0A1031688900B0FB75
:1043D000F1F86420B8FBF0F004012009642101FB2E
:1043E0001089A88900F4004040B1322000EBC900D8
:1043F000B0FBF1F000F00700044308E0322000EBCE
:1044000009106421B0FBF1F000F00F0004432C818F
:1044100006B0BDE8F08700000038014001468888FA
:10442000C0F308007047C1F308028280704700BFE4
:10443000FEE700002DE9F043A1B0044600268021EC
:1044400001A8FBF788FE00250FE004F01F014C4B8C
:1044500003EB4111C91C4A5D01A9881949A100F06B
:10446000D1F8B01CC6B2681CC5B2092DEDDB012322
:1044700046A202210020FDF705FC012301AA02212A
:104480001220FDF7FFFB04F01F003D4901EB401037
:10449000B0F81B203EA101A800F0B4F8012301AA46
:1044A00003210020FDF7EEFB04F01F00344901EB6F
:1044B000401090F9142039A101A800F0A3F80123BD
:1044C00001AA04210020FDF7DDFB012336A205210E
:1044D0000020FDF7D7FB04F01F00294901EB401035
:1044E00050F8151F01918088ADF8080030A101A88F
:1044F000FBF73CFE012301AA05212820FDF7C2FBA2
:10450000802101A8FBF727FE04F01F011C4A02EBE3
:104510004111C868FCF71BF881462649FBF748FEA5
:104520000546FCF76FF807463A460B4622A101A85C
:1045300000F068F8012301AA06210020FDF7A2FB84
:1045400004F01F010E4A02EB41110869FBF7FFFF5F
:1045500081461849FBF72CFE0546FCF753F8074641
:104560003A460B4616A101A800F04CF8012301AA17
:1045700007210020FDF786FB21B0BDE8F083000095
:1045800094080020253032580000000049443A00C9
:104590005278436E743A202564000000534E523A1C
:1045A0002025646442000000525353493A00000041
:1045B00064426D008096184B453A20256600000045
:1045C0004E3A20256600000010B504462146002022
:1045D000FDF76AF910BD10B5044621464020FDF7ED
:1045E00063F910BD0FB4054B10B503A9044A029836
:1045F00000F0E0F810BC5DF814FB00001550000856
:10460000FC0700200FB4084B10B504A902AA0398B8
:1046100000F0D0F8044602A9002000F062FC204619
:1046200010BC5DF814FB0000E34E000802E008C86F
:10463000121F08C1002AFAD170477047002001E01C
:1046400001C1121F002AFBD1704780F31088704708
:104650002DE9FF5FDDE90220010DDDF838B00243EE
:1046600018D044F61050A1F2FF3141430D140F98B9
:10467000012820D0A5EB0B00401C5FEA000A4FF098
:104680000004474EDFF81C91A046504616D5CAF1EB
:10469000000728E00F98012443A2012808D0002138
:1046A00000980F9BC0E90021C0E90243BDE8FF9FCD
:1046B0006FEA0B01F4E7CBF10000DEE7074612E0FA
:1046C000F80707D02246334640464946FBF755FED9
:1046D000804689462246334610461946FBF74DFE72
:1046E00004460E467F10002FEAD1DDE90201BAF13F
:1046F000000F42464B4602DAFBF73FFE01E0FBF7B4
:10470000AEFE04460E460022284BFCF72BF903D8D8
:104710004FF0FF30014607E00022254B204631468E
:10472000FBF784FDFCF706F9102409E0002C0ADBF6
:104730000A220023FBF7C4FF019B30321A55641E86
:1047400050EA0102F2D1641C019AC4F1110314442D
:104750000F9A012A03D0012208430DD10AE0084331
:1047600004D000204FF0110B0F9080E7A3EB0B0556
:104770006D1E0DE05B4504DD4FF0000205F1010503
:1047800004E003DA4FF00002A5F10105002AECD0A5
:1047900000980F99C0E90231C0E9004586E70000A2
:1047A000000024400000F03F300000000000F04313
:1047B0000000E03F2DE9FF4F95B09B468946064635
:1047C00000250FE2252877D100242746F84A012149
:1047D000059400E0044316F8013F203B01FA03F082
:1047E0001042F7D130782A2811D06FF02F0330789B
:1047F000A0F13002092A16D8059A44F0020402EB0F
:10480000820203EB42021044761C0590EFE759F850
:10481000042B0592002A03DA504244F40054059018
:1048200044F00204761C30782E2816D116F8010FB9
:1048300044F004042A280DD06FF02F023078A0F144
:104840003003092B09D807EB870302EB4303C71892
:10485000761CF3E759F8047B761C30786C280FD06F
:1048600006DC4C2817D068280DD06A2814D104E043
:10487000742810D07A280FD10DE044F400140AE017
:1048800044F4801401E044F440147278824202D16E
:1048900004F58014761C761C307866280BD013DC67
:1048A000582877D009DC002875D04528F6D046284E
:1048B000F4D047281AD19DE118E0632835D0642848
:1048C00079D0652812D195E1702873D008DC67286B
:1048D000F1D069286FD06E280DD06F2806D1B5E0D1
:1048E00073282CD0752875D0782874D05A4617991B
:1048F00090476D1C75E1C4F30250022809D00328CB
:104900000DD0D9F8001004280DD00D6009F104096C
:1049100067E1D9F80010EA17C1E90052F6E7D9F8C3
:1049200000100D80F2E70D70F0E719F8041B8DF808
:10493000001000208DF80100EA46012003E059F83C
:1049400004AB4FF0FF3061074FF0000102D40DE0DF
:1049500008F101018846B9420FDA8045F8DB1AF800
:1049600008100029F4D108E008F1010188468142CD
:10497000FADB1AF808100029F6D105985B46A0EB7F
:10498000080721463846179A00F094FA284400EBAD
:10499000080507E04DE029E10DE01AF8010B5A4641
:1049A00017999047B8F10108F7D25B46214638467F
:1049B000179A13E142E00A220092C4F302524FF028
:1049C000000A022A08D059F804CB032A4FEAEC71F6
:1049D0000AD00DE029E02AE009F1070121F00702E1
:1049E000F2E802C1914609E00FFA8CFC4FEAEC7143
:1049F000042A03D14FFA8CFC4FEAEC71002907DA44
:104A00000A460021DCF1000C61EB02012D2202E0DC
:104A1000220504D52B228DF80420012203E0E207B1
:104A200001D02022F7E7904659E00A2102E0102247
:104A30000DE010214FF0000A00910BE010224FF022
:104A4000000A44F004040827009203E008224FF013
:104A5000000A0092C4F30252022A05D059F804CB8E
:104A60000021032A08D009E009F1070121F007021B
:104A7000F2E802C1914605E01FFA8CFC042A01D13C
:104A80000CF0FF0C4FF00008220728D5702806D044
:104A9000009B83F0100353EA0A0305D00EE0402286
:104AA0008DF80420012208E05CEA010206D03022E1
:104AB0008DF804208DF8050002229046009B83F0BB
:104AC000080353EA0A030AD15CEA010201D1620732
:104AD00005D530228DF804204FF001087F1E58289C
:104AE00004D034A003900EA802900DE036A0F9E7A0
:104AF00053466046009AFBF7E3FD84460398825CC8
:104B00000298401E029002705CEA0100F0D1029807
:104B100006A9081A00F1200A600702D524F480349F
:104B200000E00127574502DDA7EB0A0000E0002066
:104B300000EB0A01009005984144401A0590E003FB
:104B400006D45B462146179A059800F0B3F9054450
:104B5000002706E001A85A46C05D179990476D1CD2
:104B60007F1C4745F6DBE0030CD55B462146179AD0
:104B7000059800F09FF9054404E030205A46179943
:104B800090476D1C0099481E00900029F5DC08E054
:104B9000029802995A460078491C02911799904749
:104BA0006D1CBAF10001AAF1010AF1DC65E1000017
:104BB00009280100303132333435363738396162F3
:104BC00063646566000000003031323334353637B7
:104BD00038394142434445460000000000F058F98E
:104BE0000544761C307800287FF4ECAD19B02846D7
:104BF000BDE8F08F620700D4062709F1070222F012
:104C0000070CFCE80223E14603F000485FEA080CC9
:104C100002D00FF2702C0DE05FEA045C02D50FF2B7
:104C2000682C07E05FEAC47C02D00FF2602C01E040
:104C3000AFF2700C4FF0FF3823F00043CDF850C0B6
:104C400065280CD006DC452809D046281DD0472809
:104C50003DD13DE0662818D067287ED138E000219C
:104C6000112F01DB112000E0781CCDE9000106A91D
:104C70000EA8FFF7EDFCDDE90F010E9A039100216C
:104C8000009207F1010A04914DE04FF000400097B7
:104C9000CDE9011006A90EA8FFF7DAFCDDE90F0245
:104CA00003920E9B11990022DDF80CA00093049250
:104CB00011B9791C00EB010AB7EB0A0004D4C0F16A
:104CC000FF3007F1010A0490AAEB0700019044E0CD
:104CD000012F00DA01270021112F01DD112000E052
:104CE0003846CDE9000106A90EA8FFF7B1FCDDE9C1
:104CF0000F010E9A0391002104910092BA462107F8
:104D00000CD40399514500DA8A46BAF1010F05DD4A
:104D1000009AAAF10101515C302908D0B84202DAA8
:104D200010F1040F06DA0121CDE9011015E0AAF116
:104D30000101E9E7002805DC049901440491AAEB8C
:104D4000000102E0411C514500DD8A460499401AE9
:104D5000401C01904FF000400290200704D40198BD
:104D6000504501DBCDF8048000208DF84F000298FB
:104D70000DF14F07B0F1004F25D02B200E90029877
:104D80004FF0020800280CDA404202902D200E90CD
:104D900007E00A210298FBF77DFC3031029007F80A
:104DA000011DB8F10001A8F10108F2DC0298002809
:104DB000EFD1791E0E980870307800F0200040F096
:104DC000450007F8020D12A8C01B00F1070814984F
:104DD000007800B1012000EB0A01019801EBE071BD
:104DE00005984144401A401E0590E00306D45B46F6
:104DF0002146179A059800F05DF80544149800784C
:104E000018B15A46179990476D1CE00324D55B46AC
:104E10002146179A059800F04DF805441CE00498C7
:104E2000002807DBDDE90301884203DD0098405CD0
:104E3000179901E0179930205A469047049805F1D8
:104E40000105401C04900198401E019004D12E20C1
:104E50005A46179990476D1CBAF10001AAF1010A50
:104E6000DDDC05E017F8010B5A46179990476D1CD9
:104E7000B8F10001A8F10108F4DC5B462146179A5D
:104E80000598ABE62D0000002B000000200000007C
:104E90002DE9F041044600251E461746880404D437
:104EA00005E039462020B0476D1C641EF9D5284620
:104EB000BDE8F0812DE9F041044600251E469046EC
:104EC000C80301D5302700E02027880404D505E079
:104ED00041463846B0476D1C641EF9D52846BDE8EA
:104EE000F0810A68531C0B6010707047014604295A
:104EF00001DB00207047074800EBC1000079012862
:104F000006D10020034A02EBC10210710120F1E733
:104F10000020EFE7BC0C002010B50446012C00D89F
:104F200002240120FFF791FB074804600020064996
:104F30000871FFF78AFB04E003480079012800D1DB
:104F400000E0F9E700BF10BDBC0C002070B50020E8
:104F500008E00021194A42F8301002EBC00211713A
:104F6000411CC8B20428F4DB154909684FF47A7370
:104F7000B1FBF3F2B2F1807F00D31DE022F07F415C
:104F8000491E4FF0E023596159170F23002907DA12
:104F90001C07260E0B4C01F00F052D1F665503E074
:104FA0001C07250E084C655400BF00214FF0E0237C
:104FB00099610721196100BF70BD0000BC0C002081
:104FC000D407002018ED00E000E400E0017939B9D1
:104FD000016829B10168491E016009B90121017107
:104FE0007047000070B504460D46042C00DB70BD10
:104FF0000120FFF72AFB064840F8345000200449FE
:1050000001EBC4010871FFF720FB00BFEFE70000D0
:10501000BC0C002070B504460D46E1B20548FFF710
:1050200002FA00BF40210348FFF72FF90028F9D00A
:10503000204670BD0038014070B500206B49086003
:1050400000F0F0F8CC2001F09EFB442001F09BFB27
:105050004FF47A70FFF760FF00F0E4F8CC2001F025
:1050600092FBBE2001F08FFB00F0F2FC054600F041
:10507000EFFC044600F0ECFC5D49086000F0E8FC41
:105080005C49086000F0E4FC5B49086000F0E0FC6B
:105090005A49086000F0DCFC5949086000F0D8FC6F
:1050A0005849086000F0D4FC57490860072C19DD06
:1050B00001205649087045EA04204C49086008461A
:1050C0000068C043401C08600846006840F2712137
:1050D00048434649086008460068A0F543405038F8
:1050E000086013E000204949087045EA04203F4960
:1050F00008600846006840F2712148433B49086057
:1051000008460068A0F543405038086037480068FA
:105110003F4990FBF1F03F490860344800683C4942
:1051200090FBF1F201FB12003B4990FBF1F0394991
:1051300048602E48006842F2107190FBF1F0642143
:1051400090FBF1F201FB12000A2190FBF1F201FB4E
:105150001200304988602548006842F2107190FBC7
:10516000F1F201FB12004FF47A7190FBF1F0294942
:1051700008611E4800684FF47A7190FBF1F201FB60
:105180001200642190FBF1F0224948610846006852
:10519000642148431F49496801EB810100EB41004C
:1051A0001C49896808441B49C860084600694FF4D7
:1051B0007A7148431749496901EBC10202EB0111B9
:1051C00000EB81001349896901EB810100EB41008B
:1051D0001049C96908440F4908620846007B0F4915
:1051E00008700C48008C0E49088070BD68000020D3
:1051F000480000204C0000205000002054000020F7
:10520000580000205C000020600000206C0000209E
:1052100040420F002C0D0020A08601006D000020F0
:105220006E00002010B50024FBF748FEFBF754FE8B
:10523000FBF728FE4FF4F070FEF787FEFBF74CFEFD
:105240003C20FEF782FEFCF7E5F808B9012000E0FB
:1052500000200446FBF732FEFBF73EFE8C20FEF7F3
:1052600074FE204610BD00009CB034210DA8FAF752
:1052700072FFFEA000680C90FDA000680B9000205B
:105280000A900990804681468246089000BF00BF80
:1052900007900690F74C2546FBF78EFD01F04CF881
:1052A000F548FCF7C9F8FCF7E5FDFCF78DFDFCF7C8
:1052B0007DFB002609E0102101EB0611C8B2324641
:1052C0000021FCF7B5FC701CC6B2062EF3DBFBF721
:1052D00013FE4FF47A70FFF71FFE0020FCF760FC0E
:1052E0004FF48051E548FCF780F84FF40061E34843
:1052F000FCF77BF8C820FFF70FFE4FF40061DF4892
:10530000FCF771F8FFF798FEFCF7C6FEDC49086071
:10531000096808688047DA49096888688047FCF7A7
:1053200045FB32E308A8FBF761FD9DF8200001284A
:1053300053D1FCF740FB0223D2A200210846FCF720
:10534000A1FC069818BB01200690D14800683C21BA
:10535000B0FBF1F00246CFA105900DA8FFF752F97E
:1053600002230DAA04210020FCF78CFCFDF750FB62
:1053700030B90223CBA206210020FCF783FC2CE0ED
:105380000223CCA206210020FCF77CFC25E0CD48BE
:105390000068FBF7D3F8CC490290FAF709FF0390B5
:1053A000FBF730F902460B46CDE90401C7A10DA871
:1053B000FFF728F902230DAA04210020FCF762FC64
:1053C000C5A10DA81A9AFFF71DF902230DAA0621FF
:1053D0000020FCF757FC002006909DF821000128D2
:1053E00017D1FCF7E8FAFDF713FB48B90120FEF7E7
:1053F00001F90223BCA200210846FCF743FC08E0A7
:105400000020FEF7F7F80223B9A200210846FCF7B6
:1054100039FC9DF8220001280DD1FCF7CCFA584642
:10542000FFF708F8ABF101001FFA80FBBBF1000F9A
:1054300001D1BDF828B0B0480068B0F57A7F4AD9EC
:105440004FF480518D48FBF7C1FFFCF703F8FBF7E1
:10545000D3FF074640F6E4407843C0EBC00040006D
:1054600040F6FF71B0FBF1F00B21B0FBF1F080B220
:105470001A90FBF7FDFC40B9A04802237F220021CF
:1054800000905F20FCF7CDFA01E0FBF707FC00205D
:1054900099490860FCF7C8F8BDF8280028B9FDF75D
:1054A000B7FAC0B1FEF79CFA15E00798401CC0B2ED
:1054B000079007981E280EDDBDF82810099888422D
:1054C00003D0BDF82800099003E0FCF774FAFEF75A
:1054D00087FA002007904EE2BDF82800401C80B2F9
:1054E0000A90BDF828B0664800688549C2686148DE
:1054F0009047208845F2AA5188427CD1E07B602801
:10550000FBD1616908BAFBF722F87E490090FAF7EF
:105510004FFE0190FBF776F8CDE90401216908BA46
:10552000FBF715F877490090FAF742FE0190FBF778
:1055300069F8CDE90201DDE90401CDE9000172A0BD
:10554000DDE90223FFF74EF87548028875480178B7
:1055500075A0FFF747F879480068FBF753F8024653
:105560000B46CDE90401764890F9001075A0FFF7CD
:1055700039F808F101001FFA80F8FCF71CFA022341
:1055800077A200210846FCF77DFB424677A10DA8D3
:10559000FFF738F802230DAA19460020FCF772FB2A
:1055A000216908BAFAF7D3FF56490290FAF700FECC
:1055B0000390FBF727F802460B46CDE904016EA1E4
:1055C0000DA8FFF71FF802230DAA04210020FCF705
:1055D00059FB616908BAFAF7BAFF4A490290FAF72B
:1055E000E7FD0390FBF70EF802460B46CDE90401F8
:1055F00063A10DA800E019E0FFF704F802230DAA4B
:1056000006210020FCF73EFB0020BDF828104B4A85
:105610001268CDE90028CDE9021062692169484885
:1056200090F90030E01CFEF7F5F99CE12878AA28F3
:105630001AD1E889AA28FBD16D1C6868FAF787FFA0
:1056400051490090FAF7B4FD0190FAF7DBFFCDE97C
:105650000401A868FAF77BFF4B490090FAF7A8FD10
:105660000190FAF7CFFF91E012E10000AA0F0100CC
:1056700000160000080800208808002000080140EB
:1056800010000020537973496E666F3A00000000E5
:105690002800002052756E54696D653A25646D6965
:1056A0006E0000005246205374617475733A204FA7
:1056B000464600005246205374617475733A204F79
:1056C0004E0000006800002000401C4654656D70CC
:1056D0003A25302E32662700566F6C746167653A42
:1056E00025646D56000000005246204F4E210000F8
:1056F0005246204F46462100D0070020D006002009
:105700000C0000208096184B57617463685F313538
:105710003A20453D25662C4E3D25662000000000C0
:105720006E0000206D00002054656D70657261741C
:105730007572653A25642E2564272000BC07002079
:10574000B8070020534E523A256464422C2052532D
:1057500053493A25302E326664426D0D0A0000002E
:1057600057617463685F31353A0000005278436EC8
:10577000743A202564000000453A202566000000A8
:105780004E3A2025660000000050C347CDE90201D3
:10579000DDE90401CDE9000129687CA0DDE90223EF
:1057A000FEF720FF8048028880480178AFF2880029
:1057B000FEF718FF7E480068FAF724FF02460B4602
:1057C000CDE904017B4890F90010AFF28800FEF7A4
:1057D00009FF09F101001FFA80F9FCF7ECF8022338
:1057E00075A200210846FCF74DFA4A46AFF2840143
:1057F0000DA8FEF707FF02230DAA19460020FCF7AB
:1058000041FA216908BAFAF7A2FE6E490290FAF746
:10581000CFFC0390FAF7F6FE02460B46CDE90401F1
:10582000AFF2AC010DA8FEF7EDFE02230DAA042194
:105830000020FCF727FA616908BAFAF788FE614987
:105840000290FAF7B5FC0390FAF7DCFE02460B462D
:10585000CDE90401AFF2D8010DA8FEF7D3FE022373
:105860000DAA06210020FCF70DFA0120BDF8281032
:105870004F4A1268CDE90029CDE90210AA6869688B
:105880006D1E4C4890F90030681CFEF7C3F86AE0C2
:105890000AF101001FFA80FAFCF78DF802234AA2F0
:1058A00000210846FCF7EEF95246AFF240110DA870
:1058B000FEF7A8FE02230DAA19460020FCF7E2F924
:1058C00044480068FAF743FE3E490290FAF770FC3C
:1058D0000390FAF797FE02460B46CDE90401AFF2BA
:1058E00068110DA8FEF78EFE02230DAA04210020E8
:1058F000FCF7C8F938480068FAF729FE31490290E8
:10590000FAF756FC0390FAF77DFE02460B46CDE906
:105910000401AFF294110DA8FEF774FE02230DAA44
:1059200006210020FCF7AEF90220BDF82810204A1D
:105930001268CDE9002ACDE902101E4890F9003026
:1059400025480268234801680AA8FEF763F8214841
:10595000006800F57A701F4908601F48006800F56C
:105960007A701D49086080211C48FAF7F4FB1C4935
:105970000968886880471A49096848698047022889
:105980003FF4AAAD0120FFF7C7FACBE45761746377
:10599000685F57412049443A25582C453D25662CDF
:1059A0004E3D2566200000006E0000206D000020A6
:1059B000BC070020B807002057617463685F574137
:1059C0003A0000008096184B57617463685F583A3C
:1059D0000000000000000020040000200808002053
:1059E00010000020F0B50B30154D20F00701002409
:1059F000144A0FE003688B420BD38B4205D95E1A21
:105A000043184768C3E9006700E04368136002C0B9
:105A100004E0021D10680028ECD12046002802D1C5
:105A2000286808B10020F0BD064A07481060074A00
:105A3000121A22F00702C0E9002401202860D7E7EB
:105A4000040800200008002024200020202400203A
:105A500070B50025002416E0FBF714FAFBF73CFABA
:105A6000FBF7D8FC064626B10120A0402843C5B26A
:105A700002E00120A04085432820FEF766FAFBF7EC
:105A80001DFA601CC4B2082CE6DB284670BD00007D
:105A90002DE9F04D07460E46FAF708FF04460D467D
:105AA0003A463346FAF766FCDFF86CA0DFF86CB0D4
:105AB0001B4B0746884616F0004F4FF000020AD0F5
:105AC000FAF7B4FD0AD900225B4638464146FAF798
:105AD00049FF1BD212E0FAF7A9FD08D20022534673
